:081000006F100072042B0100C7
:10100800000000000000000090200020182C0020A4
:10101800A9BDF9F5942000200000000000000000A0
:10102800962000209820002000000000000000000A
:101038009A200020000000009C20002000000000F2
:101048009E200020A0200020A2200020A420002014
:10105800A6200020A8200020AA200020AC200020E4
:10106800AE200020B0200020B2200020B4200020B4
:10107800202D0020B82000203A2D0020BC20002080
:10108800BE200020C0200020C2200020C420002054
:1010980001A001A001A001A001A001A001A001A040
:1010A80001A001A001A001A001A001A001A001A030
:1010B80001A001A001A001A001A001A001A001A020
:1010C80001A001A001A041118146014681451145B9
:1010D80006C6EF10602DB727004011472383E7802D
:1010E800B7F700E003A707D16D9B23A8E7D003A7B4
:1010F80007D15D9B23A8E7D07300501001000100C1
:10110800B240410182804111814601468145114525
:1011180006C6EF106029B727004011472383E780F0
:10112800B717004083C6E70203C6E70483D78703DF
:10113800116793F6F60F1366360063E5E700F19A38
:1011480093E6160073270080218B9727000093876A
:10115800A7B419CB732700809725000023AEE5B20A
:1011680098435D9B7310078001000100371700400A
:10117800930570052300B704930580FA2300B7048C
:10118800010001002302070223000704F325008061
:101198009843218B4D8F7310078017270000232D4C
:1011A80007AE0100010073270080218B19CB73273C
:1011B80000809725000023A1E5AE98435D9B73103E
:1011C80007800100010037170040930570052300D0
:1011D800B704930580FA2300B70401000100230730
:1011E800D7022307C70423000704F3260080984387
:1011F800218B558F7310078017270000232E07A80F
:101208000100010073270080218B19CB7327008010
:101218009726000023A2E6A898435D9B73100780D9
:101228000100010037170040930670052300D7041A
:10123800930680FA2300D704010001008346B7040F
:1012480093E60602A305D70423000704F3260080CB
:101258009843218B558F7310078017270000232D83
:1012680007A20100010037F700E0832607D193E6C3
:1012780046002328D7D0832607D1DD9A2328D7D044
:10128800730050100100010073270080218B19CBD7
:10129800732700809726000023A0E6A098435D9B53
:1012A800731007800100010037170040930670058E
:1012B8002300D704930680FA2300D7040100010015
:1012C8008346B70493F6F60DA305D7042300070455
:1012D800732700809C43A18BD98F73900780972731
:1012E800000023AB079A01000100B240410182804F
:1012F8000111B7F5070022CC81460A862A84E10548
:10130800194506CE26CA4AC802C023120100EF10AA
:10131800A009B717004083C6E70203C6E70483D7CE
:101328008703116793F6F60F1366360063E5E70047
:10133800F19A93E6160073270080218B1729000085
:101348001309899501CFF32700801727000023256B
:10135800F79483270900DD9B739007800100010043
:1013680037170040930770052300F704930780FAA6
:101378002300F704010001002302070223000704E9
:10138800F327008003270900218B5D8F73100780E6
:101398009727000023A2079001000100732700800F
:1013A800218B01CFF3270080172700002326F78E13
:1013B80083270900DD9B7390078001000100371720
:1013C8000040930770052300F704930780FA230071
:1013D800F704010001002307D7022307C7042300ED
:1013E8000704F327008083260900A18ADD8E739005
:1013F80006809727000023A1078A01000100B7F79C
:1014080000E083A607D193E6460023A8D7D08357E8
:1014180007026577110793F70760C18FD98FC20755
:10142800C183010073270080218B01CF73270080BF
:101438009726000023A2E686032709005D9B731008
:10144800078001000100371700409306700523004C
:10145800D704930680FA2300D704010001008346CD
:10146800F70093E60604A307D7008346B70493E67C
:101478000602A305D7042310F702230007047327E5
:10148800008083270900A18BD98F73900780972745
:10149800000023A3078001000100B7F4070037F418
:1014A80000E0E104832704D1DD9B2328F4D07300F6
:1014B8005010010001001305C012EF00100381460F
:1014C8003000A685194502C423160100EF00D06D2F
:1014D80022478247E318F7FCF3270080A18B81CFCE
:1014E800F3270080171700002328F77A83270900BD
:1014F800DD9B7390078001000100B71700401307B8
:1015080070052380E704130780FA2380E7040100AD
:10151800010003C7B7041377F70DA385E7042380F9
:1015280007047327008083270900A18BD98F739044
:1015380007809717000023A1077601000100514595
:101548006D27F2406244D2444249056182804111CC
:1015580026C281460146AA848145114506C622C491
:10156800EF009064B717004003C7E70283C6E7049B
:1015780083D7870311661377F70F93E6360063E581
:10158800C700719B13671700F3270080A18B1714FE
:1015980000001304647099CBF3270080171600002D
:1015A800232CF66E1C40DD9B739007800100010020
:1015B800B7170040130670052380C704130680FA86
:1015C8002380C70401000100238207022380070447
:1015D800732600801C40A18BD18F739007809717CA
:1015E800000023AB076A01000100F3270080A18BEC
:1015F80099CBF327008017160000232FF6681C40AC
:10160800DD9B7390078001000100B71700401306A7
:1016180070052380C704130680FA2380C7040100DD
:1016280001002387E7022387D70423800704732751
:1016380000801C40A18BD98F7390078097170000FA
:1016480023AC07640100010013055002BD2237F7DF
:1016580000E0832707D193E747002328F7D0F32733
:101668000080A18B99CBF327008017170000232552
:10167800F7621C40DD9B7390078001000100B717DB
:101688000040130770052380E704130780FA2380BE
:10169800E7040100010003C7F70013670704A387E5
:1016A800E70023800704732700801C40A18BD98F93
:1016B800739007809717000023A0075E01000100C0
:1016C800F3270080A18B99CBF32700801717000020
:1016D8002324F75C1C40DD9B739007800100010008
:1016E800B7170040130770052380E704130780FA33
:1016F8002380E704010001002567D98C2390970215
:1017080023800704732700801C40A18BD98F739016
:1017180007809717000023A107580100010037F739
:1017280000E0832707D1DD9B2328F7D073005010F2
:10173800010001008146014681451145EF00D04670
:10174800F3270080A18B99CBF3270080171700009F
:101758002324F7541C40DD9B73900780010001008F
:10176800B7170040130770052380E704130780FAB2
:101778002380E7040100010003C76704136717000B
:101788002383E70423800704732700801C40A18B70
:10179800D98F739007809717000023AF074E010079
:1017A8000100B240224492444101828085679387B8
:1017B80007770100FD17F5FF8280F3270080A18BD2
:1017C800171700001307474D99CBF327008097168A
:1017D800000023A3F64C1C43DD9B73900780010097
:1017E8000100B7170040930670052380D7049306BD
:1017F80080FA2380D7040100010083C6B70493F65A
:10180800F60DA385D70423800704732600801443AC
:10181800A18AD18E739006809716000023AE0646E3
:1018280001000100937605026382061883C7A700AA
:10183800918BB9EFF3270080A18B639207300100E9
:101848000100B7170040930670052380D70493065C
:1018580080FA2380D7040100010083C6A70093E61D
:1018680046002385D70023800704F32600801C4305
:10187800A18BD58F739007809717000023AE074080
:10188800010001009307004B01000100FD17EDFF67
:10189800F3270080A18B99CBF327008097160000CF
:1018A80023ACF63E1C43DD9B7390078001000100CA
:1018B800B7170040930670052380D704930680FA73
:1018C8002380D704010001007D892394A70001002B
:1018D80001000100010023800704F32600801C4357
:1018E800A18BD58F739007809717000023A6073A1E
:1018F80001000100F3270080A18B639707220100F4
:101908000100B7170040930670052380D70493069B
:1019180080FA2380D7040100010001000100B726E6
:10192800004013061005A383C68023800704F3260E
:1019380000801C43A18BD58F7390078097170000F8
:1019480023AC073401000100F3270080A18B99CB59
:10195800F32700809716000023A0F6341C43DD9B74
:101968007390078001000100B717004093067005C7
:101978002380D704930680FA2380D704010001004E
:1019880083C6B70493E60608A385D7042380070413
:10199800F32600801C43A18BD58F7390078097177F
:1019A800000023AB072E0100010082809376050416
:1019B8006389061283C7A700C18BA5EBF3270080B4
:1019C800A18B99CBF32700809716000023A6F62C4D
:1019D8001C43DD9B7390078001000100B71700408E
:1019E800930670052380D704930680FA2380D704D2
:1019F8000100010083C6A70093E606012385D700EE
:101A080023800704F32600801C43A18BD58F739095
:101A180007809717000023A10728010001009307FA
:101A2800007D01000100FD17EDFFF3270080A18B69
:101A380099CBF32700809716000023AFF6241C43A8
:101A4800DD9B7390078001000100B71700409306E3
:101A580070052380D704930680FA2380D7040100F9
:101A680001009376F50193E606042394D70001005C
:101A780001000100010023800704F32600801C43B5
:101A8800A18BD58F739007809717000023A6072096
:101A98000100010093076004630EF50AF327008034
:101AA800A18B99CBF32700809716000023A6F61E7A
:101AB8001C43DD9B7390078001000100B7170040AD
:101AC800930670052380D704930680FA2380D704F1
:101AD80001000100B726004013062005A383C68035
:101AE800A9B5F3270080A18B99CBF327008097161F
:101AF800000023A3F61A1C43DD9B739007800100A6
:101B08000100B7170040930670052380D704930699
:101B180080FA2380D7040100010083D6870093E66A
:101B2800060C2394D70011B5F32700809716000000
:101B380023A4F6161C43DD9B73900780C9B3F327D3
:101B480000809716000023A9F6141C43DD9B7390B0
:101B58000780F5B1F3270080A18B99CBF32700808C
:101B68009716000023AAF6121C43DD9B739007808A
:101B780001000100B7170040930670052380D704C1
:101B8800930680FA2380D70401000100B72600409D
:101B98000946A383C68051BB411181460146814550
:101BA800114506C6EF005000F3270080A18B971659
:101BB80000009386660E99CBF32700801717000064
:101BC800232CF70C9C42DD9B7390078001000100D9
:101BD800B7170040130770052380E704130780FA3E
:101BE8002380E7040100010003C767041367170097
:101BF8002383E70423800704732700809C42A18B7A
:101C0800D98F739007809717000023A70708010052
:101C18000100B2404101828081460146814511455B
:101C28006127F3270080A18B171700001307C70649
:101C380099CBF32700809716000023AFF6041C43C6
:101C4800DD9B7390078001000100B71700409306E1
:101C580070052380D704930680FA2380D7040100F7
:101C68000100FD562396D70223800704F32600803F
:101C78001C43A18BD58F739007809717000023AD65
:101C8800070001000100F3270080A18B99CBF327FF
:101C980000809716000023A1F6001C43DD9B73907B
:101CA800078001000100B7170040930670052380E4
:101CB800D704930680FA2380D7040100010083C665
:101CC800670493E616002383D70423800704F326CA
:101CD80000801C43A18BD58F739007809717000055
:101CE80023AC07FA0100010001A0931715003E95E7
:101CF800060501007D1575FD828015C1411122C4BC
:101D080026C206C6AA840144050442044180793CDF
:101D1800E39C84FEB2402244924441018280828046
:101D2800B7170040130700032388E70285471717F2
:101D380000002321F7FA73002030011122CE26CCAF
:101D48004ACA4EC852C6977000E0E780E0A09317D1
:101D5800F5002A8463D5071493771500639A072C36
:101D68009317D40063D30724B70704009387670841
:101D7800E18F95CB9717000083C767F71717000007
:101D88000347F7F663E9E74C9717000083C747F660
:101D9800638E0740054597170000A38D07F49770D9
:101DA80000E0E780009393770440639907308567E4
:101DB80013890780B379F400137704109164A1673D
:101DC800137A042033792401E18C7D8C55E7631C58
:101DD8000A0263170904639C0900B5E025EC724404
:101DE800E2445249C249324A056173002030056510
:101DF800977000E0E780A0979D471717000023071A
:101E0800F7EEE9DC2DA813050020977000E0E780C5
:101E18000096914717170000230AF7ECE30D09FA1B
:101E2800056513050580977000E0E78040949947A1
:101E380017170000230CF7EAE38109FA4DBF116573
:101E4800977000E0E780A092A14717170000230FC2
:101E5800F7E851D42165977000E0E780409172441B
:101E6800A547171700002303F7E8E2445249C2497F
:101E7800324A05617300203013050010977000E0A6
:101E8800E780E08E0545977000E0E78080849547FD
:101E980017170000230CF7E4E30D0AF2ADB79377A8
:101EA8002500B1C7B707040093870708E98F638A3D
:101EB800071897170000938727E411479C43971644
:101EC8000000A389E6E217170000A30407E217172A
:101ED8000000230107E281CF9C4391CB97150000B6
:101EE800938545E11715000013054506829793175A
:101EF800D4009374044063C5071693770404B1C7EC
:101F0800171700000347E7DEFD4763EEE72497173E
:101F18000000938707DE03C907001379F90F9307B9
:101F28001900171700002306F7DC977000E0E78018
:101F3800C08197170000938767FF3E992300A90087
:101F48000545976000E0E780207B9377040195CFF3
:101F5800375700408357078093E717002310F7800F
:101F680097170000938747D99C4381CFDC4391CBD7
:101F78009715000083C5E5D717150000130505FB65
:101F8800829797170000238607D6E38204E2370575
:101F9800001013050540976000E0E780407D054587
:101FA800976000E0E780407519B59377240081CFEA
:101FB8009717000083C7B7D3638D071A0545976045
:101FC80000E0E780607393770404639007129377C7
:101FD8000440E38E07DC37050010130505409760C1
:101FE80000E0E780C0789714000083C444D093874A
:101FF800140017170000230CF7CE976000E0E78065
:10200800C07497170000938767F0A6972380A700EE
:102018009717000083C7C7CD638B071E0545971721
:102028000000A38907CC976000E0E780806A41B38D
:10203800171500000345D5CB976000E0E780407096
:1020480005B38D4717170000A306F7CA97170000B6
:10205800238107CA9317D40093740440E3DF07E889
:102068000545976000E0E7802069639F0410937737
:102078004408E38E07D29717000083C797C717173E
:102088000000034727C763F7E716971700009387F1
:1020980057C683C7070017170000130727EB93F7E6
:1020A800F70F3E9703450700850717170000A3029F
:1020B800F7C4976000E0E780A068D5B9370500103D
:1020C80013050540976000E0E780606A8D471717A1
:1020D8000000230DF7C0054597170000A38C07C023
:1020E800976000E0E780E05ED9B19714000083C4F0
:1020F80004C09387140017170000230AF7BE9760DF
:1021080000E0E780806497170000938727E0A69790
:102118002380A70017170000034777BD9717000013
:1021280083C7E7BC63EFE70C0145976000E0E780F1
:10213800A05C9717000083C707BC6387071497172D
:102148000000238A07BA9717000083C767BA63831A
:1021580007140545976000E0E780A057971700002F
:10216800A38A07B8ADB50145976000E0E780C0587D
:10217800E9BB0145976000E0E780005885471717DD
:102188000000230AF7B681B537050010130505408E
:10219800976000E0E780A05D0545976000E0E78074
:1021A800A05597170000A38707B415B9854781453F
:1021B8001305004017170000A30AF7B2976000E064
:1021C800E780E055814513050020976000E0E7802F
:1021D8000055814513050010976000E0E780205402
:1021E8000545976000E0E780604C97170000A383DF
:1021F80007B055BE1305F00F976000E0E780405424
:102208007DB60545976000E0E780004FC9B3854774
:1022180081451305004017170000A309F7AC976024
:1022280000E0E780C04F814513050020976000E07B
:10223800E780E04E814513050010976000E0E780D5
:10224800004E0545976000E0E7804046971700007C
:10225800A38207AAA9BE97170000938747A983C737
:10226800070017170000130767CA93F7F70F3E9781
:1022780003450700850717170000230AF7A697608C
:1022880000E0E780E04B05B68547171700002304F8
:10229800F7A635BB85478145130500401717000091
:1022A800A306F7A4976000E0E7806047814513051F
:1022B8000020976000E0E780804681451305001004
:1022C800976000E0E780A0450545976000E0E7805B
:1022D800E03D97170000A38F07A0D5B9411122C48C
:1022E80006C6370400201C408297F5BF23030480EC
:1022F80015472303E48001002302A480828083071A
:102308006480E3CE07FE2303048082808307648011
:10231800E3CE07FE03454480828083076480E3CED2
:1023280007FE2302A4808280411126C44AC24EC0FF
:1023380006C61377F50BAD47AA892E89954463061F
:10234800F70019456537653F8D444E854537FD597A
:10235800FD1463983401B240A244124982494101F4
:102368008280135509011375F50F453F2209CDB732
:10237800011126CC06CEB704080051371545BD37E4
:10238800713769372AC6A53F32459377150089EB1F
:10239800136515001375F50FF240E244056182805C
:1023A800FD14E9FC0145CDBF397126DC4ADA4ED867
:1023B80052D656D45AD25ED006DE62CE66CCB7E785
:1023C80000E07D5783AA070022C603AA470023A07E
:1023D800E71823A2E718B7170040130770052380F2
:1023E800E704130780FA2380E70483C74704930BA5
:1023F80075FFB684E20793FBFB0F8546AA892E8BEF
:10240800328937240040E187015763FA760163086F
:10241800D5008946130700026313D5000157D98FE9
:1024280093F7F70FB71C00402382FC0411472303DE
:10243800E4801305F00F5D3D094CD135636D7C11C7
:10244800B7050700DA9537870700795563F2E50481
:10245800B3879500636EF702370B0800A94733EB83
:1024680065016399F90689E48144513D26850DA0EB
:10247800DA850945553D05090345F9FFFD14050BA6
:10248800693D81C49377FB0FFDF7DD3569FD7D5507
:10249800B7170040130770052380E704130780FA75
:1024A8002380E70403C74704418B2382E704F250E3
:1024B800B7E700E023A0571123A24711E2543244A2
:1024C8005259C259325AA25A125B825B724CE24C80
:1024D80021618280A5476395F90685691309F00F84
:1024E800B3069900B3742B01B6941349F9FFB3747A
:1024F8009900856B33796901416B9387F9FFB3F7CD
:10250800270199E363FC340193D94900C147E3E605
:1025180037FF99BF0569C1697D19D9B71305800DC2
:1025280063886901130500026384790113051008A3
:10253800CA85DD3B353D21DD4E99B3843441D9B799
:10254800DA852D45D533CA94E30099F205097D3B18
:10255800A30FA9FED5BF9387F9FF93F7F70F636120
:10256800FC0C83C71C0413073008631FF7043707E4
:102578000800636BEB04B3079B00B706100063F514
:10258800D704334BEB0089476393F9068980D54913
:10259800E38C04ECDA850945413B11090327C9FF9F
:1025A80091472320E48003076480E34E07FE23035A
:1025B8003481FD17EDFBFD14110B81C49377FB0FDC
:1025C800E9FF7D3371F5E1B5B717004003C757043C
:1025D800B70708001377070219E3B787070079558B
:1025E800E378FBEA33079B00E3FFE7F855B5854737
:1025F800E382F9F2DA852D45053B9389F4FFE385FB
:1026080004E6293393F7390091EB832604800327E6
:10261800090093074900E39AE6E43E89CE84F1BFB6
:10262800B5476396F9001305900BC93135BDB1471D
:102638001305B00AE38BF9FE99476391F904B705CE
:102648000800B365BB002D45C53181448D4BA149B8
:10265800753963967401832704802320F900850463
:10266800E39834FF8327048013172B016355070071
:102678002312F900D5BB2322F900FDB39D476399C6
:10268800F90281451305B0044531BD4423200900F2
:1026980023220900FD599D3993F77400CA9703C78F
:1026A8000700FD14398D2380A700E39634FF6DBB26
:1026B800A1476392F9046D398144630D0B008D477E
:1026C8009304C0036308FB009304000563048B01B3
:1026D800930440041375C507E30895D819453931A3
:1026E80039390545213126850D3909453D314931AD
:1026F800E31C05D669BB91476399F9001305600689
:10270800F536F53E130590090DB7E38F09D4F1545A
:04271800A9BB000059
:10272000970100209381018E176100201301818D94
:1027300017F5FFFF1305858D970500209385858C80
:1027400017160020130646FD63FAC5008322050014
:1027500023A0550011059105E3EAC5FE1705010008
:102760001305C53A97150020938505FB1716002021
:102770001306C65163FAC5008322050023A0550045
:1027800011059105E3EAC5FE171500201305055054
:1027900097350020938545126377B5002320050007
:1027A0001105E36DB5FEFD42739002BC8D4273903E
:1027B0004280B72200009382828873A00230970281
:1027C00000209382228493E232007390523097A2C9
:1027D000000093826244739012346FD073027300CE
:1027E00020303D432A876373C3029377F700BDEF20
:1027F000ADE5937606FF3D8ABA960CC34CC30CC771
:102800004CC74107E36BD7FE11E28280B306C34099
:102810008A069702000096966780A6002307B700F5
:10282000A306B7002306B700A305B7002305B7002A
:10283000A304B7002304B700A303B7002303B70022
:10284000A302B7002302B700A301B7002301B7001A
:10285000A300B7002300B700828093F5F50F93968D
:102860008500D58D93960501D58D61B79396270088
:102870009702000096968682E78086FA9680C117B6
:102880001D8F3E96E374C3F8A5B7411106C6EF80CD
:10289000006BEF505050B2404205418541018280AB
:1028A000797122D485452A84014506D626D24AD09C
:1028B0004ECEEF509047EF50103E1374F40FB71701
:1028C0000040238C8704AA8440001309E100EF50E4
:1028D000904A2310A4000904E31B89FE9546814712
:1028E000139717004C00130627002E962E9783553A
:1028F000070003550600850793F7F70F6376B500C9
:102900002310A7002310B600E3CCD7FCFD16E1FA94
:1029100003558100EFD000682A892685AE89EFD063
:1029200040602A86AE864A85CE85EFC0E02097F7C4
:1029300000009387A73C9043D443EFC0F01297F771
:1029400000009387273C9043D443EFC0705D97F716
:1029500000009387A73B9043D443EFC0F010EFD023
:102960008056B2502254420592540259F249418194
:1029700045618280371700408327C70A9D668145DD
:10298000D58F2326F70A1D656F60701F171700206B
:102990001307473883478702B337F000A309F702CC
:1029A0002309F70282809717002083C72739638E97
:1029B000A7064111971700202382A73822C406C614
:1029C00089472A8463F5A7028547630EF4024DC444
:1029D00089476307F4088D47630AF4042244B24030
:1029E000171500200345853541016F207008B70792
:1029F0000400BC4B914517150020034525298297FB
:102A00008547E316F4FC0145EF5020752244B2409F
:102A100093074006171700202313F73217150020DD
:102A20000345C53141016F20B00482800545EF5058
:102A3000C072971700209387E72D03D7070322441E
:102A4000B24093172700BA9786071717002023185C
:102A5000F72E171500200345652E41016F20500108
:102A60000145EF50806F2244B24017150020034506
:102A7000E52C41016F20C07F0545EF50006E2244D8
:102A8000B2409307400617170020231AF72A17159C
:102A900000200345A52A41016F20807D411106C613
:102AA00021C59717002083C76729A5C3B70704006E
:102AB000BC4B91451717002023020728171500204B
:102AC0000345C51C82970545EF502069B240930726
:102AD0004006171700202314F7261715002003457A
:102AE000E52541016F20C0781717002003574724C0
:102AF0009717002083D7E7246379F7001717002082
:102B00000347C72389476315F700B240410182801C
:102B100037070400384B9145971600202380F62292
:102B2000171500200345851602970145EF50E06216
:102B3000B240171500200345652041016F20407306
:102B4000411106C6171700200357671F971700206B
:102B500083C7C71E0DCB7D17420741839716002000
:102B6000239FE61C954663EDF60097F600009386DA
:102B7000661A8A07B6979C43B69782876308071C34
:102B8000B240410182801547E36CF7FE17F7000061
:102B90001307C7198A07BA979C43BA9782871717F2
:102BA00000200347371793172700BA978607171790
:102BB00000200357E7189716002083D686173E9704
:102BC000634CD700171700200357871663F0E61EE3
:102BD000B306D74063DCD71CB7070400BC4B914554
:102BE00017170020230C0714171500200345050AAA
:102BF00082970545EF506056930740061715002051
:102C00000345C51317170020231BF712EF2040665A
:102C10009717002083D7A712A5F71717002003479F
:102C2000E7118547E30EF7F4B7070400BC4B0547EF
:102C30009145971600202383E610171500200345C1
:102C4000E504829701459DA81307204997170020A6
:102C500083C7570CB387E702171700200357670D88
:102C6000635AF70091471145171700202308F70C06
:102C7000EF2000609717002083D7670CE39207F0DE
:102C8000171700200357E70B9717002083D7670A11
:102C9000E378F7EE9717002083C7470AE38207EE31
:102CA000B7070400BC4B91451717002023080708FD
:102CB00017150020034585FD82970545EF50E04933
:102CC000171500200345850793074006B2401717E4
:102CD00000202316F70641016F20805917170020A6
:102CE0000357E705E31E07E817170020035767059A
:102CF0009717002083D7E703E374F7E855B79307E6
:102D0000E0479716002083C6F600B386F6029717B1
:102D1000002083D7070263DED700954715451717B4
:102D20000020230DF700EF20A054171700200357B1
:102D30000701E31707E49717002083D787FF1717CA
:102D4000002003570700E37DF7E2A9B7171700201B
:102D5000035707FE9717002083D787FEE372F7E239
:102D60008D47054517170020230AF7FCEF50E03E7A
:102D700097170020938707FA03D70703171500203A
:102D80000345C5FB93172700BA97860781B79307BA
:102D9000E047171700200347F7F73307F7029717A5
:102DA000002083D707F9E3CAE7F651BF9717002041
:102DB00083D7E7F8E38A07E6E1B3411122C4370479
:102DC00004008327040806C626C217250000130541
:102DD000E5EA829797140020938444EB2380A400B3
:102DE000EF50402D13052004EF90A002EF50403526
:102DF000EF50403CEF409013EF20D004EF50A03B49
:102E0000EF20C01161363C4803C504008545171406
:102E10000020130424F082979307C0127D552315D8
:102E2000F40085472308F40A23040400EF407019D6
:102E3000EF20105F03458402D1472315F400934728
:102E4000F5FF2304F4022244B24092444101A1BEA2
:102E500041119307C01222C42A841717002023109F
:102E6000F7EC97170020238B87EA85477D551717C6
:102E700000202309F7F406C6EF40B0149307700250
:102E800063E2871E17F700001307C7EB0A043A94A2
:102E90001C40BA97828717170020034747F29357C1
:102EA0003700858B9376770F99E393668700054605
:102EB0009305F00F0545971700202382D7F0C5A88A
:102EC000EF20105617150020034545E722445147CF
:102ED000B2409347F5FF971600202392E6E41717B8
:102EE0000020230DF7E441017DBC0545EF40700D46
:102EF0002244B24041016F3080372244B240014544
:102F000041016F40100C9717002083D747E29306CA
:102F10007070054763F4F6048566138676BB09472F
:102F2000637EF602138676060D476379F602938672
:102F30007651114763F4F60289661386769C15472D
:102F4000637EF600138676E719476379F600938669
:102F50007632B3B7F600FD1713F777009717002006
:102F6000A38AE7DAEF20203F29479717002083C77D
:102F700007E597160020A389E6E493E78700130787
:102F8000400601A89717002083C767E393E78700EF
:102F90007947971600202394E6D8171700202300BE
:102FA000F7E2EF20506E05469305F00F05452244E9
:102FB000B24041016F202060EF408051EDB7EF40FB
:102FC000A054D5B7971700209387C7D483D7A701FC
:102FD0002244B24017170020231FF7D441016F404D
:102FE000E066EF408034C1B7EF40A06B6DBFEF40AB
:102FF000C06E55BFEF30E0017DB72244B2404101C1
:1030000017030020670083B917170020035787D2E2
:1030100097170020938707D00DE783D6870103D742
:10302000A7011306004B9717002083C7B7CEB387BD
:10303000C7026373D7003687998F17170020231BA9
:10304000F7CE97170020239007D8EF40F0360546BB
:103050009305F00F0545EF200056A94717170020EC
:10306000231FF7CAB2402244410182800145EF503C
:10307000C00EEF205022014605BFB7070400BC4731
:103080006146814517150020130555CE17170020FE
:10309000230E07CC8297EF40E0579717002083C795
:1030A00007D293E707F805469305F00F0545171774
:1030B00000202306F7D0E5BD97170020238607D010
:1030C000EF400048CDB5411106C617170020035741
:1030D00027C79717002083C7F7C335C161C393067D
:1030E000A05AB386D702635DD708290701468545F4
:1030F0000945971700202395E7C4EF20C04B97168A
:10310000002083C636C193072003B387F602171742
:1031100000200357E7C217160020035686C2BA974D
:10312000635EF60293072003B386F602B240369739
:10313000971700202397E7C041016F40001F9306B7
:10314000E047B387D70263CFE700054689450545C9
:1031500097170020239607BEEF20E045B2404101BB
:103160006F40A01C5917014685450545971700205B
:103170002398E7BCEF202044B24041016F40E01AA1
:103180001307A05AB387E702054689450945171773
:1031900000202317F7BAEF20004295B71307E04746
:1031A000B387E70201468545094517170020231913
:1031B000F7B8EF204040B24041016F40001783470D
:1031C000450091E38280411122C426C24AC006C64E
:1031D00023020500971400209384C4B383D784048A
:1031E0002A841309C01217170020231CF7BC1717D5
:1031F0000020231627B3EF402031034414008547F5
:103200006304F40C09476308E400B240224492448A
:1032100002494101828017170020034747B4631613
:10322000F7021307C05D9717002083C7B7AEB387B7
:10323000E70217170020231507B0171700202313E4
:1032400027B117170020231EF7AE9307C0121717D8
:1032500000202316F7AC9307100217170020230F46
:10326000F7AA7D55854717170020230DF7B4EF40C7
:1032700040559717002083D7E7AB8DE783D68401AD
:1032800003D7A4019717002083C7D7A81306004BC4
:10329000B387C7026373D7003687998F171700204B
:1032A000231AF7A897170020239F07B0EF40D010EC
:1032B00005469305F00F0545EF20E02FA9471717A6
:1032C0000020231EF7A491B7014685450945EF204C
:1032D000802E9717002083C737AF85DBFD1793F744
:1032E000F70F17170020A301F7AE85F397170020FB
:1032F000239727A3930760027D5517170020230FFC
:10330000F7A097170020238F87AAEF40804B9717CD
:103310000020238B07AAEF40A0222244B24092440F
:10332000024905469305F00F054541016F20A0288D
:1033300083474500A1CB011156C206CE22CC26CA36
:103340004AC84EC652C45AC09307C0122302050091
:10335000171700202315F79C834715000547971A78
:103360000020938A2A9B6380E7028946638FD712E5
:10337000F2406244D2444249B249224A924A024B44
:103380000561828082809714002083C4249E171BCD
:103390000020130BBB9DF9C0FD1493F7F40F939419
:1033A0001700BE94171B0020130B5B9C8604971715
:1033B00000209387179C5A84BE94370A04009719FB
:1033C00000209389299A054919A0638584088327D9
:1033D000CA03A28519464E8582971904E31725FF73
:1033E000014685450945EF20001D9717002083C73A
:1033F000B79DBDDFFD1793F7F70F17170020A30543
:10340000F79CBDF79307C0127D55171700202318AE
:10341000F79093076002171700202301F790971782
:1034200000202381279BEF40C03997170020238D70
:103430000798EF40E0106244F240D2444249B2495A
:10344000224A924A024B05469305F00F0545056155
:103450006F2060169714002083C4449113951400C4
:10346000B7070400FC472695060519469715002066
:103470009385458F5A95829783C78A05214785078B
:1034800093F7F70F638BE708171700202300F78ED9
:10349000EF404018054685450945EF20C011A94772
:1034A00017170020A302F792E1B5930710027D558C
:1034B000971600202384F686971700202384E79030
:1034C000EF4020309717002083D7C7868DE783D63B
:1034D0008A0103D7AA019717002083C7B783130671
:1034E000004BB387C7026373D7003687998F1717CE
:1034F00000202311F784971700202396078CEF40B4
:10350000A06B05469305F00F0545EF20C00AA947BB
:10351000171700202315F780A1BD971700202387D8
:103520000784BDB7411122C406C626C297070020F2
:1035300083D7E77E170400201304C47D91C7FD17CD
:1035400017070020231DF77C9717002083C767818A
:1035500089CBFD1793F7F70F171700202303F78088
:10356000ADCB9707002083C7677B13077002636D9D
:10357000F70417F700001307E7868A07BA979C43FA
:10358000BA9782879717002083C7A7800947E39CD3
:10359000E71A9717002083C7E78299E36F10204846
:1035A0009707002083C7377F21476385E70041479E
:1035B000E399E72097170020238607809307C0121E
:1035C00017070020231DF774B240224492444101A2
:1035D000828097070020A3840778EF40503D51B7C1
:1035E0009707002083D7A773E3820732970700204D
:1035F00083C7677B09476394E7006F10C01797077D
:10360000002083C7E77A0947E390E7FC170700200B
:103610000347577AE31AF7FA2244B24092443D45F1
:1036200041016FF0FF82EF30402FEFF06FD1EF10CC
:10363000D0159707002083C7477695CF97070020BE
:10364000238D07749706002083C6A6740947970741
:10365000002083C757746394E6006F10C00B2147A6
:103660006395E7000545EFF06FC39307C012170796
:1036700000202316F76A9707002083C7B77195CFFC
:1036800097070020A38807709706002083C6B670AE
:1036900009479707002083C7C76F6394E6006F1040
:1036A000C00121476395E7000145EFF02FBF930765
:1036B000C012170700202314F7669707002083C75E
:1036C000B76E85C797070020A380076E17070020F5
:1036D0000347776C89476314F7006F10600B9307FB
:1036E000C01217070020231CF7629707002083C72A
:1036F000176BE393072A9707002083C7A76A99CB24
:10370000170700200347D769930700026314F700E7
:103710006F10E01F9707002083C7576A99CB1707E0
:10372000002003478769930700026314F7006F10B6
:1037300060249707002083D7875EE39707E8930705
:10374000C01217070020231CF75C89477D55170717
:1037500000202305F75C8547170700202304F76640
:10376000EF4020062244B2409244014541016F409F
:103770004005EFF0EFBC9707002083C70762B9C38D
:103780008347340817070020230907600547FD1702
:1037900093F7F70F6368F7029307C0127D559706FA
:1037A0000020239EF656970700202389E7569707A7
:1037B00000202389E760EF40C0000545EF4060002E
:1037C000EF20F02A9707002083C7D75CB9C383474F
:1037D000E40717070020A30F075A0547FD1793F7C3
:1037E000F70F6368F7029307C0127D559706002014
:1037F0002397F652970700202382E752970700206D
:103800002382E75CEF30F07B0545EF30907BEF20C3
:1038100010269707002083C79758B9C383478408A9
:1038200017070020A30D07560547FD1793F7F70F5D
:103830006368F7029307C0127D5597060020239016
:10384000F64E97070020238BE74C97070020238B29
:10385000E756EF3010770545EF30B076EF20302196
:103860009707002083C707549DC717070020034709
:103870003753930700026310F7021707002003472E
:10388000E74B89476309F700054597070020238B1D
:103890000750EFF0AFA09707002083C73752E385AA
:1038A00007D2170700200347475193070002E31D83
:1038B000F7D017070020034767488947E306F7D08A
:1038C0002244B240924497070020A389074E054541
:1038D00041016FF0AF9C9707002083C7874BA1463B
:1038E000E389D71E4147E386E71E0946E38CC70CF0
:1038F0009707002083C7374A2147E383E70E4147F4
:10390000E380E70E09476394E7006F00B075170581
:10391000002013053549EFF09F8A17050020130595
:10392000C548EFF0DF899707002083D7473FE39D25
:1039300007C83DAA170700200347F7458947E31545
:10394000F7C817070020034707468547E306F7CC6B
:10395000170700200347C745E318F7C675B91707CF
:10396000002003475743C147E308F7129707002099
:1039700083D7E73AE39A07C485477D551307C012FA
:1039800097060020239DE638170700202308F73804
:10399000170700202308F742EF30B0620545EF30EB
:1039A00050622244B240924441016F20500C97076C
:1039B000002083C7073EA146E381D7184147E38E25
:1039C000E7160946E38AC7029707002083C7B73C7A
:1039D0002147E381E7044147E38EE7020947E38B90
:1039E000E7689707002083C7373CE39C071C9707CD
:1039F000002083C7C73BBDC7835784041304C0128C
:103A0000170700202305073A17070020231AF73A63
:103A10001707002023158730EF30902B97070020E1
:103A200083C7B73805476394E7006F10E00E8946F7
:103A3000639AD702970700202393872EC9477D55A5
:103A400097060020238CF62C97070020238CE7365E
:103A5000EF303057EF30502B05469305F00F0545FA
:103A6000EF1070359707002083D7672BE39E07B4CC
:103A70009307C012170700202313F72A9707002087
:103A8000238E072885477D5517070020230CF73222
:103A9000EF303053EF20C018170500200345052AEA
:103AA00022445147B24092449347F5FF97060020C5
:103AB0002397E626170700202302F72841016FE02D
:103AC0009FEE9707002083C7372E639007689707FC
:103AD000002083C7C72D81CF970700202389072C9B
:103AE000170700200347772C8547630BF766970776
:103AF000002083C7172C81CF97070020A38B072AAC
:103B00009707002083C7C72A05476383E702970703
:103B1000002083C7672AE38B07E497070020238DE3
:103B200007289707002083C7F7280547E390E7E4B5
:103B30001307C012970600202393E61E7D55130736
:103B4000500297060020238BE61C17070020230B4A
:103B5000F726EF301047B7070400BC4761468145A0
:103B600017050020130595201707002023000720C4
:103B70008297EF30302A8347A40A05469305F00F59
:103B800093E707F8054517070020230AF722EF10EF
:103B90009022E9BB9707002083C7A71F09476387C7
:103BA000E768636CF7480547639BE7021307E04744
:103BB0009707002083C71716B387E702170700206F
:103BC00003570718E3CCE75805468945054597078D
:103BD000002023970716EF10101EEF30007597078F
:103BE000002083C7571B0947E38DE748636BF77ACB
:103BF0000547E399E7E60545EFF0EFCCA5B5970754
:103C0000002083C7071909476386E7666365F7469F
:103C100005476395E7029707002083D7A712E3883B
:103C20000752938747FC0146854505451707002045
:103C3000231AF710EF103018EF30B0269707002046
:103C400083C777150947E387E722636CF774054755
:103C5000E39AE7E0835704030567130707E19387B7
:103C6000C703C207C18397060020239DF60CE372A9
:103C7000F74C054689450945970700202394E70C32
:103C8000EF107013EF30F021F1BB9707002083C7CE
:103C900047100947638EE75A636DF7400547639005
:103CA000E7028357240201468545D91705451707C2
:103CB00000202312F708EF101010EF30301997078B
:103CC000002083C7570D0947E382E736636BF76C23
:103CD0000547E399E7D88357240201468545A9079C
:103CE0000945170700202318F704EF10D00CEF3018
:103CF000F0158DBB9707002083D76702E396078CEA
:103D00009307C01217070020231BF7009307000238
:103D1000170700202304F7007D558547170700206B
:103D20002302F70AEF30F0292244B24092444101C5
:103D300017F3FF1F670083E69707002083C7D706A6
:103D400099CF97070020A38107069707002083C714
:103D50006707E3880708970700202385070697076A
:103D6000002083C7C70499CF970700202381070449
:103D70009707002083C70705638B076A9707002012
:103D8000238207049707002083C7B7026391073691
:103D90009707002083C74702E38A07BC97070020E4
:103DA000238C07009707002083C7C7016387077E1E
:103DB000970700202388070055BE9707002083C778
:103DC000C7FD99CF97070020238907FC970700209C
:103DD00083C747FFE38C071C97070020238407FE57
:103DE0009707002083C717FBE38E07C697070020BD
:103DF000A38207FA9707002083C7C7FCE38207085E
:103E000097070020238007FCB1B917050020130590
:103E100015FAEFF0EFD1170500201305A5F9EFF023
:103E20002FD19707002083D787EF639F07F8A9B6A4
:103E30009707002083C767F699CF97070020238E46
:103E400007F49707002083C7E7F763890770970790
:103E50000020238907F69707002083C7B7F3E38381
:103E600007C097070020A38707F29707002083C7A2
:103E700067F5D9F79707002083C7A7F10547E393B4
:103E8000E7BE1307C01297060020239AE6E87D5587
:103E900013071002970600202382E6E81707002088
:103EA0002302F7F2EF30F0119707002083D787E85D
:103EB0008DE7835684010357A4019707002083C729
:103EC00077E51306004BB387C7026373D7003687C5
:103ED000998F17070020231FF7E4970700202394EA
:103EE00007EEEF30704D05469305F00F0545EF10D6
:103EF000806CA947170700202313F7E26FF0CFEC7F
:103F00000357A401835724027D55998F170700207A
:103F10002312F7E29307C012170700202311F7E0DE
:103F20009307100217070020230AF7DE85471707BB
:103F300000202309F7E8EF30D0089707002083D747
:103F400067DFC1FFBDB7636CF70A05476392E706F9
:103F50009706002083C616DC1307004B3387E60262
:103F60009707002083D7E7DDE354F72A1307E0FC27
:103F70003387E602D917C207C18317060020231230
:103F8000F6DC170600200356A6DB3E97635BC700EE
:103F90001307E0FCB386E602B6971707002023114B
:103FA000F7DA014685450545EF10E060EF30E07235
:103FB0009707002083C737DE0947E387E71063626E
:103FC000F73E0547E390E7AA1307C05D9707002077
:103FD00083C757D4B387E70217070020035767D674
:103FE000E350F71629070146854509459707002044
:103FF0002399E7D4EF10205CEF30206EA5B4214761
:104000006385E7004147E395E7FA97070020238B94
:1040100007DA9307C012170700202312F7D00947C9
:104020009707002083C737D7E386E70A6363F7382B
:104030000547E38BE7F86FF02FD921476385E70049
:104040004147E39EE7B897070020238D07D69307E3
:10405000C012170700202314F7CC09479707002048
:1040600083C777D3E385E7026365F7340547E384C5
:10407000E7B86FF06FD521476385E7004147E39FBD
:10408000E7BA97070020238F07D29307C0121707BC
:1040900000202316F7C809479707002083C7B7CF2A
:1040A0006380E75E6367F7300547E385E7BA6FF043
:1040B000AFD121476385E7004147E392E7C0970707
:1040C0000020238107D09307C01217070020231870
:1040D000F7C409479707002083C7F7CB638EE774BF
:1040E0006369F72C0547E388E7BE6FF0EFCD9707CC
:1040F0000020A38007CC9707002083C7A7CC63804C
:10410000073C97070020238F07CA59B11307004BBC
:104110009707002083C717C0B387E702170700205F
:10412000035707C19387872563CFE76A0345A40A2E
:104130001345F5FF05893305A040EF406007EF8088
:10414000A0747D5585476FF07F8397070020A38D6E
:1041500007C417070020034707C58547E319F796EB
:104160009307C01217070020231BF7BAC5477D55D8
:10417000170700202304F7BA8547170700202303F9
:10418000F7C4EF300064EF30A03405469305F00F1C
:104190000545EF104042A1BA97070020A38107C050
:1041A0009707002083C787BF09476387E77E0547D6
:1041B000E388E7149307C012170700202311F7B60E
:1041C0006FF08FC09707002083C7C7BFE380070C3D
:1041D0009707002083C737BC6384D7006399E7F251
:1041E00097070020238007BE9307C01217070020FF
:1041F0002317F7B26FF0AFF19707002083C787BC92
:10420000E38C07049707002083C7F7B86384D700BF
:104210006399E7FC97070020238607BA9307C0122B
:1042200017070020231DF7AE6FF0AFFB97070020A4
:1042300083C747B9638707769707002083C7B7B559
:1042400021476389E7B64147E394E79A6FF08FB659
:104250009707002083C707B7638F0776970700206B
:1042600083C777B321476387E7B44147E392E7A663
:104270006FF04FB49707002083C7C7B4E3850704E6
:104280009707002083C737B121476385E7B24147CD
:10429000E39FE79A6FF00FB29307C0121707002051
:1042A000231FF7A6D1477D55170700202308F7A63F
:1042B0008547170700202307F7B0EF308050EF3015
:1042C000C00605469305F00F0545EF10C02E6FF0B0
:1042D000EFE997070020238707AE9307C01217075F
:1042E0000020231EF7A221479707002083C7B7AA03
:1042F000E388E7EE4147E385E7EE09476399E7E0A6
:104300009307C01217070020231BF7A0CD471707FC
:1043100000202305F7A07D558547170700202303BC
:10432000F7AAEF30004A8357A4011707002023148F
:10433000F7A0EF30A0316FF08FDD970700202383C7
:1043400007A89307C01217070020231AF79C2147DC
:104350009707002083C737A4E38EE7EA4147E38B42
:10436000E7EA0947639FE7E69307C01217070020B3
:104370002317F79AC9477D55170700202300F79A9E
:10438000854717070020230FF7A2EF308043EF3057
:10439000A01705469305F00F0545EF10C0216FF0FB
:1043A0004FE421476388E7A04147639DE7EA6FF048
:1043B0006FA021476380E7A04147638DE79E6FF0C0
:1043C000AFA0835784049304C01217070020A30DE5
:1043D000079C170700202315F79E170700202310BE
:1043E0009794EF30E00E9707002083C7C79B0547DF
:1043F000638DE7708946639CD7DE97070020239082
:104400009792C9477D55970600202389F690970714
:1044100000202389E79AEF30C03AEF30E00E0546DE
:104420009305F00F0545EF1000196FF04FDC97076B
:10443000002083C7979705476389E7728946E3930E
:10444000D7949307C01297060020239AF68C7D55C7
:1044500093071002970600202382F68C970700200E
:104460002382E796EF30E0359707002083D7878CCB
:104470008DE7835684010357A4019707002083C763
:1044800077891306004BB387C7026373D70036875B
:10449000998F17070020231FF78897070020239480
:1044A0000792EF30607105469305F00F0545EF1058
:1044B0008010A947170700202313F786E1B097075C
:1044C000002083C7E78E0547638FE7728946E39133
:1044D000D78C9307C012970600202392F6847D554F
:1044E0009307100297060020238AF6829707002080
:1044F000238AE78CEF30E02C9707002083D787834F
:104500008DE7835684010357A4019707002083C7D2
:1045100077801306004BB387C7026373D7003687D3
:10452000998F170700202317F78097070020239CF7
:104530000788EF30606805469305F00F0545EF10DA
:104540008007A94717F7FF1F231BF77C9707002059
:1045500083C78786E39407846FF00F87970700204F
:1045600083C777830547E398E78E1307C0127D550D
:1045700097F6FF1F2395E67A1307000297F6FF1FB1
:10458000238EE67817070020230EF782EF30602392
:1045900097E0FF1FE78080607DB89707002083C702
:1045A000778105476381E75889466391D7BC9307B4
:1045B000C01297F6FF1F2394F6767D5593071002DD
:1045C00097F6FF1F238CF67497F7FF1F238CE77E67
:1045D000EF30201F97F7FF1F83D7C775E39F078E24
:1045E000C9B897F7FF1F83C7077C05476387E75C58
:1045F00089466396D7F69307C01297F6FF1F23905C
:10460000F6727D559307100297F6FF1F2388F67008
:1046100097F7FF1F2388E77AEF30A01A97F7FF1F5D
:1046200083D747718DE7835684010357A40197F719
:10463000FF1F83C7376E1306004BB387C702637330
:10464000D7003687998F17F7FF1F2315F76E97F757
:10465000FF1F239A0776EF30205605469305F00F8B
:104660000545EF005075A94717F7FF1F2319F76A93
:104670006FF0EFEE97F7FF1F83C7C774639407BE11
:104680009307C01217F7FF1F231BF768E1477D55FB
:1046900017F7FF1F2304F768854717F7FF1F23034A
:1046A000F772EF300012EF10D01605469305F00FA9
:1046B0000545EF0050706FF0EFBA05476384E700DF
:1046C0006FE0FFFE1307C0127D5597F6FF1F23987A
:1046D000E664414797F6FF1F2382E66417F7FF1F42
:1046E0002302F76EEF30E00D8347A40A794797F66F
:1046F000FF1F2396E66293E7870017F7FF1F23004B
:10470000F76CEF10407805469305F00F0545EF0074
:10471000906A6FE0DFF905476384E7006FE0FFF41C
:104720001307C01297F6FF1F239BE65E7D55130704
:10473000700297F6FF1F2383E65E17F7FF1F230320
:10474000F768EF30000897F7FF1F83C7476713D755
:104750003700058B93F6770F19E393E6870005463C
:104760009305F00F054597F7FF1F238AD764EF00E5
:1047700090646FE09FEF17F7FF1F03471763630411
:10478000F7006FE0DFE73D45EFE08FEC6FE03FE7DC
:1047900017F7FF1F0347276185476304F7006FE0A2
:1047A0001FF43D45EFE0CFEA6FE07FF39307C012BF
:1047B00017F7FF1F2315F756E1477D5517F7FF1F22
:1047C000230EF754854717F7FF1F230DF75EEF20E1
:1047D000507FEF10100405469305F00F0545EF00DC
:1047E000905D6FF0EFDF9307C01217F7FF1F2318DC
:1047F000F752930740027D5517F7FF1F2300F7522A
:10480000854717F7FF1F230FF75AEF20907B0145CD
:10481000EF30B014EF1020282244B24092440146F9
:104820009305F00F054541016F00F05897F7FF1F02
:1048300083C74759639807A29307C01217F7FF1F52
:10484000231FF74C9307200217F7FF1F2308F74C8D
:104850007D55854717F7FF1F2306F756EF20707623
:104860006FF04FA097F7FF1F83C7C75599C36FF02D
:104870000F8A79B497F7FF1F83C7C75463930796CE
:10488000E5B497F7FF1F83C7E753639D079C930722
:10489000C01217F7FF1F2314F748DD477D5517F7A0
:1048A000FF1F230DF746854717F7FF1F230CF7500F
:1048B000EF203071EF20706205469305F00F05453B
:1048C000EF00704F6FF00F9A97F7FF1F83C7874F66
:1048D000639A07989307C01217F7FF1F2311F74435
:1048E000D5477D5517F7FF1F230AF742854717F76E
:1048F000FF1F2309F74CEF20D06CEF20905A05469C
:104900009305F00F0545EF00104B6FF0AF9517F7CB
:10491000FF1F0347A74289476314F7006FE09FDF3B
:10492000054597F7FF1F238F0746EFE02F976FF09E
:104930007F88014685450945EF00F0476FF08FB449
:10494000054689450945EF0010476FF0EFEA054637
:1049500089450545EF0030466FF00FAE5917014607
:104960008545054597F7FF1F239CE73CEF00B044C2
:104970006FF0AFA617F7FF1F0347473C8947631443
:10498000F7006FE01FDB054597F7FF1FA38807427D
:10499000EFE0CF906FF01F820145EFE02F906FF0B6
:1049A0007F819307C01217F7FF1F231AF73693076B
:1049B00000027D5517F7FF1F2302F736854717F7CB
:1049C000FF1F2301F740EF20D05F97E0FF1FE78034
:1049D000E01C6FF0CFA09307C01217F7FF1F231042
:1049E000F734C9477D5517F7FF1F2309F73285476D
:1049F00017F7FF1F2308F73CEF20B05CEF20D03003
:104A000005469305F00F0545EF00F03A6FF02FAB28
:104A1000054689450545EF00103A6FF02FD99307F9
:104A2000C01217F7FF1F231CF72ED1477D5517F72C
:104A3000FF1F2305F72E854717F7FF1F2304F738BD
:104A4000EF203058EF20700E05469305F00F054516
:104A5000EF0070366FF0CFD59307C01217F7FF1F26
:104A6000231FF72A930700027D5517F7FF1F23071F
:104A7000F72A854717F7FF1F2306F734EF207054F6
:104A800097E0FF1FE78080116FE01FF49307C012CB
:104A900017F7FF1F2315F728C5477D5517F7FF1F89
:104AA000230EF726854717F7FF1F230DF730EF205A
:104AB0005051EF20F02105469305F00F0545EF001A
:104AC000902F6FE0FFE29307C01217F7FF1F231824
:104AD000F724DD477D5517F7FF1F2301F72485478E
:104AE00017F7FF1F2300F72EEF20B04DEF20F03E09
:104AF00005469305F00F0545EF00F02B6FF00F947E
:104B00000545EFD0BFF96FF0EFEA0146854509454D
:104B1000EF00702A6FE0BFED014685450945EF00C3
:104B200090296FE03FF417F7FF1F0347E7298346FB
:104B3000A40AB397E70093C7F7FFF58F050797F629
:104B4000FF1F238EF6269377F70F21476382E71026
:104B500017F7FF1F230AF726EF20901E054685450D
:104B60000945EF0050256FF0EFE417F7FF1F0347EB
:104B7000A7258346A40AB397E70093C7F7FFF58FED
:104B8000050797F6FF1F238CF6229377F70F21472F
:104B9000638AE70C17F7FF1F2308F722EF20501A4C
:104BA000054685450945EF0010219307C01217F708
:104BB000FF1F2316F7166FF0EF9C8346A40A17F722
:104BC000FF1F03476720B397E700D58F050797F6C8
:104BD000FF1F2386F61E9377F70F21476389E708A7
:104BE00017F7FF1F2302F71EEF2090150546854596
:104BF0000945EF00501C9307C01217F7FF1F231041
:104C0000F7126FF0CF958346A40A17F7FF1F0347EB
:104C1000A71BB397E700D58F050797F6FF1F2380E3
:104C2000F61A9377F70F21476389E70217F7FF1FFB
:104C3000230CF718EF20D010054685450945EF00F5
:104C400090179307C01217F7FF1F231AF70CFDB830
:104C500097F7FF1F238A071601B797F7FF1F2385D2
:104C60000716C9BF97F7FF1F2380071605BF97F7E1
:104C7000FF1F238B07148DBF011122CC06CE26CA3D
:104C80004AC84EC652C456C293F715002E84B9E3E3
:104C900093F725006391071493F74500ADEF93F761
:104CA0000504EDEB93F70501D9EB93F70502639B40
:104CB000071493F705400145B1C797F7FF1F83C756
:104CC000E705FD1793F7F70F05476370F71A1345CC
:104CD00004400DA8B7040400BC4C1306000A894523
:104CE00017F5FF1F034585FA8297BC4C37A60E00C7
:104CF00013060660914517F5FF1F034525F98297B6
:104D000013451400F2406244D2444249B249224A57
:104D1000924A05618280EF308032EF20F069B70758
:104D20000400BC4F37F62B0013060620914517F5FB
:104D3000FF1F0345A5F5829713454400E1B717F51A
:104D4000FF1F0345450097F7FF1F83C7D7FF638BFE
:104D5000A71462058547618517F7FF1F230EF7FC2F
:104D6000EF306041B7070400BC4F13060014C14583
:104D700017F5FF1F034585F1829797F7FF1F93876C
:104D800067F983C7270317F7FF1FA30EF7FA134529
:104D900004018DBF97F7FF1F83C7F7FA95EB97F7CD
:104DA000FF1F938727F783D7070137070400384F82
:104DB000B307F040116697F6FF1F2396F6F6130629
:104DC00006E89305000417F5FF1F034525EC02973D
:104DD0001345040405BFC922EF30A03EEFE08FF475
:104DE000B7070400BC4F37170040A30107041306A0
:104DF000000A894517F5FF1F034545E982971345CA
:104E0000240009B717F7FF1F1307C7F08347870070
:104E10008546FD1793F7F70F63F5F6001345040277
:104E2000D5B58347A70A858BF5DB97F7FF1F83D797
:104E3000E7F217F7FF1F0357A7F86308F70017F704
:104E4000FF1F035707F8E31BF7FC97F7FF1F83C704
:104E500007F10547638EE70A0947E391E7FC01453F
:104E6000EFD0DFC31345040271BD97F4FF1F938495
:104E7000F4EF97FAFF1F938AFAF0370A040097F9C4
:104E8000FF1F938929EE05498327CA03A685194682
:104E90004E858297990463032505E3979AFE13458F
:104EA00004408DB57D55EF30002D97F7FF1F23850A
:104EB00007E897F7FF1F83C717E9E39A07ECB707DF
:104EC0000400BC4F130600649305000417F5FF1F90
:104ED0000345C5DB8297134504012DB597F7FF1FE6
:104EE00083C7A7E809476382E702638F2701B707F3
:104EF0000400BC4B9305000217F5FF1F034515E0A6
:104F0000829713450440FDBB0145EFD03FB9C5B7BB
:104F10000545EFD0BFB813450402EDB3B717004005
:104F200003A7470C97F7FF1F9387C7DE239F07064A
:104F30001D8313471700058B23900708A3810708DB
:104F4000239207082383070823A40708A3860708DA
:104F5000239707082388070823990708239A070837
:104F6000A38B0708239C0708238D070823AE070897
:104F7000A380070A2391070A2382070A2393070ABB
:104F80002394070A2381E70C82809307200317F7F5
:104F9000FF1F2303F7E48280011106CE22CC26CA2C
:104FA0004AC84EC652C497F7FF1F83C7D7E263852E
:104FB0000728094A91491549854417F4FF1F13042E
:104FC000F4CCEF60F00B1DC16303451D637DAA188F
:104FD0006306351BE31725FF83470400F99B17F78A
:104FE000FF1FA305F7CAEF60B00979FD371800402D
:104FF0008327480C97F6FF1F83C656C917F7FF1F74
:10500000034767DD9D83858B93D51600998F17F72E
:10501000FF1F0347C7DA858A858993B717001356A0
:10502000170017F4FF1F2308B4D697F5FF1FA381BD
:10503000D5D697F6FF1FA382F6D693771600814642
:1050400091CB97F6FF1F83C6F6D889C68326480CF6
:10505000A982858A17F6FF1F2304D6D497F7FF1F6E
:1050600083C7E7CF13F61700814619C697F6FF1FCF
:1050700083C616CFB336D00017F6FF1FA304D6D2CF
:10508000898B814699C797F6FF1F83C676CDB336C5
:10509000D000198397F7FF1F2389D7D0058B81464E
:1050A00011CB97F6FF1F83C6F6D289C697F6FF1F6E
:1050B00083C646D297F7FF1F83C727CB17F7FF1F7B
:1050C000A30CD7CE13F72700858B6309071417F7B6
:1050D000FF1F034797C961E797F7FF1FA38907CC15
:1050E00097F7FF1F2388A7CC97F7FF1F938787C2E7
:1050F00017F5FF1F1305D5C4094625430D4EC148BA
:105100008D45054803C7F707630EC70A6301B70E4D
:1051100071C7014783C61708D9EA83C6E707238FFB
:10512000E7069507358F238EE706E39DA7FC97F7E3
:10513000FF1F83C7F7C291C7FD1717F7FF1FA30112
:10514000F7C297F7FF1F83C757C291C7FD1717F71D
:10515000FF1FA30CF7C0F2406244D2444249B24957
:10516000224A05618280E31E95E48347040093E7A9
:10517000270017F7FF1FA30BF7B0A1B58347040063
:1051800093E7170017F7FF1FA302F7B01DBD834772
:105190000400F59B17F7FF1FA30AF7AE1DB50547DF
:1051A00097F6FF1FA385E6C085DF054515BFA380E1
:1051B0000709238FE7069507E38BA7F603C7F707D1
:1051C000E316C7F483C6D7079DEA83C6E7074147BE
:1051D000E39216F5A38F070605472DBF83C6D707B1
:1051E00095DA23800708A38FC706214725B783C612
:1051F000D707094785F2A38F0706414721BF83C61A
:105200000708850693F6F60F2380D7086375D30049
:10521000A38FC70701B713070002EDBD17F7FF1FE4
:10522000A30707B8E38E07EA97F7FF1F83C7F7B313
:10523000E38807EA05456DB5EF7070579DBB4111D6
:1052400022C426C22A84AE840545814506C6EF5095
:10525000A07281450945EF50207222852244B24058
:10526000A68592449306401F514641016F50D00ECF
:10527000411122C481452A84054506C6EF50C06FFE
:1052800081450945EF50406F97F7FF1F83C727B34C
:105290008D83858B89CF954763EB870017D70000F7
:1052A000130747BE0A043A941C40BA978287B2405B
:1052B00022444101828089669386067105468145B4
:1052C00005452244B24041016F5010099306007D0C
:1052D000154681450945F5B79306007D1546C5B7C6
:1052E0008566938686380946D9BF9306800C1306D7
:1052F000200381450945F1B76378B5041307000021
:105300006364A6003A858280411106C622C426C283
:105310004AC0B2842E84EFB0F03A2A892685EFB0D5
:10532000102EAA854A85EFB080692A8933059440FA
:10533000EFB0F02CAA854A85EFB0E002B2402244DB
:10534000924402494101828097D700009387C7B5F4
:1053500098433A85828097F6FF1F9386A69B03C7E2
:1053600016001306C0129307404CB307F7022398A8
:10537000C602130660543307C702C207C18342073F
:10538000D98FDCD68280797122D42A84368526D2C0
:105390004AD056CA5EC606D64ECE52CC5AC862C451
:1053A000B68BAE8A3289EFB0101A931405018D477F
:1053B000C18463D8270F97D700009387A7AE8C438B
:1053C0005E850D4BEFB0603606050581EFB0B01776
:1053D000420541859307803E336AF5020D49B38A41
:1053E0002A419389FAFF63D60400B3049040C204B3
:1053F000C184A299138CF9FF238009002947A5468F
:1054000029A0BE846367890C4A8CB3E7E4021309C0
:10541000FCFF93870703A300F900B3C7E402E3C2CC
:1054200096FE930500005E85EFB06027634A050A8B
:10543000636A8900330689400506930500022285C8
:10544000EFD02FBA330554019307E0022A9B238043
:10545000F9001306FBFF23000B002947A54621A0F6
:105460003E8A636DA608B367EA027D169387070339
:10547000A300F600B347EA02E3C446FF6360A60850
:10548000098E0506930500032254B2509254025926
:10549000F249624AD24A424BB24B224C45616FD02C
:1054A0004FB46300090A05476316E90697D7000061
:1054B0009387C79E8C435E85054BEFB0002706059A
:1054C0000581EFB0500842054185A947336AF502CE
:1054D00039B7930500005E85EFB0601CE35405F614
:1054E0009307D0022300F9001309ECFF91B793054D
:1054F00000005E85EFB0A01A6343050AB250225443
:1055000092540259F249624AD24A424BB24B224C5F
:10551000456182800947631BE90897D7000093879C
:1055200027988C435E85094BEFB020200605058146
:10553000EFB070014205418593074006336AF502DA
:1055400079BD63D60400B3049040C204C184A29A1A
:105550009389FAFF23800A002947A54629A0BE8423
:10556000E36789F8CA89B3E7E4021389F9FF9387EF
:105570000703A300F900B3C7E402E3C296FE930554
:1055800000005E85EFB0A011634B0500E36889F66B
:10559000330689400506930500022285F5B5930779
:1055A000D0022300F9001389E9FFCDB74A8B014AE5
:1055B000E317F9E209B561B1011122CC2A8452C482
:1055C00008412E8A0C4806CE26CA4AC84EC6EFA00D
:1055D000F0224C4848C0AA84EFA05022AA85268514
:1055E000EFA07058832984002A8948C4CE8552854B
:1055F000EFB0E03CCA85EFB04013CE85EFA010209D
:1056000097D700009387478AAA89884323243401C7
:10561000CA85EFB0C03AA685EFB0201108C0F240AD
:1056200062444E85D2444249B249224A0561828091
:105630003D89A54763F5A70013057503828013050F
:105640000503828095670111938707806C002316FC
:10565000F10005479307F00285460D461305000843
:1056600006CE2307F100EF6010028567938757107D
:105670002316F1006C0093079007054785460D46F9
:10568000130500082307F100EF60E07FF240056199
:105690008280011191479305B10005478546054673
:1056A0001305000806CEA305F100EF60C07D6C0075
:1056B0001307803E8546094613051008EF60F00F7A
:1056C0000345C1008347D100F24022053E954205C3
:1056D00041850561828093178501E18763C40714C2
:1056E0007971ED779387073022D44ECE2E84AA8924
:1056F0000547854609466C001305800706D6231624
:10570000F10026D24AD052CC56CA5AC813DA490000
:10571000EF6060770547854609466C00136A0A0109
:1057200013058007011423060100A3064101137429
:10573000F40FEF604075120493F9F90005478546B0
:1057400009466C001305800797D400009384C49920
:1057500097DA0000938ACA9923060100A306310153
:1057600033898400EF602072A29A130B00048347F0
:10577000090005470509854609466C0013058007A1
:1057800023066101A306F100EF60E06FE31159FF0A
:10579000ED77938707400547854609466C0013055A
:1057A00080072316F100EF60006E05478546094625
:1057B0006C001305800723060100A3064101EF607A
:1057C000806C0547854609466C0013058007230653
:1057D0000100A3063101EF60006B93078400BE94C3
:1057E00097D70000938747913E941309000483C71D
:1057F000040005478504854609466C0013058007AB
:1058000023062101A306F100EF60E067E31194FE97
:10581000B250225492540259F249624AD24A424B3F
:10582000456182808280797122D46D74930704E08F
:105830006C000547854609461305800706D626D223
:105840004AD04ECE2316F100F574EF60C063938703
:1058500004506C000547854609461305800723164A
:10586000F100EF6040626C00956705478546094688
:10587000130580072316F100EF60E06093070480B2
:105880006C000547854609461305800711692316F4
:10589000F100EF60405F930709F06C000547854613
:1058A0000946130580072316F100EF60C05D6C0008
:1058B000054785460946938404301305800723165F
:1058C0009100EF60405C6C00054785460946130572
:1058D000800723160100EF60005B6C0005478546DA
:1058E00009461305800723162101EF60C059E577AB
:1058F0006C00938707D00547854609461305800746
:105900002316F1008569EF600058938709406C0009
:10591000054785460946130580072316F100EF6009
:1059200080566C0089670547854609461305800740
:105930002316F100EF602055930700206C00054707
:1059400085460946130580072316F100EF60A05332
:10595000E9746C0005478546094613058007231640
:105960009100EF6040526C00F1770547854609468B
:105970001305800779792316F100EF60C050930773
:1059800009A06C00054785460946130580072316C4
:10599000F100EF60404F6C0005478546094693894A
:1059A00009201305800723163101EF60C04DE17710
:1059B0006C00938707100547854609461305800745
:1059C0002316F100FD79EF60004C938709F06C001D
:1059D000054785460946130580072316F100EF6049
:1059E000804A930709906C000547854609461305D0
:1059F00080072316F100EF6000496C0005478546DB
:105A00000946938909101305800723163101EF60B9
:105A100080476C00054785460946130909B0130500
:105A2000800723162101EF6000466C008D67054753
:105A300085460946130580072316F100EF60A04450
:105A4000938704406C000547854609461305800787
:105A50002316F100EF6020436C0005478546094698
:105A6000938404601305800723169100EF60A04122
:105A7000130404F06C0005478546094613058007AA
:105A800023168100EF602040B250225492540259F4
:105A9000F249456182805D715ED6ED7BA2C4A6C2EB
:105AA0004EDE56DA5AD862D46ECE86C6938D0B304F
:105AB000CAC052DC66D26AD097D400009384D4B1B5
:105AC00017DC0000130C7CB4930A6005394417CB33
:105AD0000000130B6B6193090004938B0B40931729
:105AE0008401E18763C507100547854609466C00B8
:105AF000130580072316B10113594400EF60A03845
:105B00000547854609466C0013690901130580079E
:105B100023060100A3062101EF60E036137AF400AA
:105B20000547854609466C001305800723060100DA
:105B3000A3064101EF60203593870AFE93F7F70F24
:105B4000939C470097C700009387875A330D9B01AA
:105B5000B38A970183480D000547050D8546094620
:105B60006C001305800723063101A3061101EF60C5
:105B70008031E391AAFF0547854609466C0013056D
:105B8000800723167101EF600030054785460946FE
:105B90006C0013058007A306210123060100EF60B6
:105BA000802E0547854609466C0013058007A3062D
:105BB000410123060100EF60002D138A8C0097C776
:105BC0000000938767535A9A3389970183470A00E5
:105BD0000547050A854609466C001305800723061C
:105BE0003101A306F100EF60002AE31149FF83CAE7
:105BF000040021041374F40F63850A008504E39004
:105C000084EFB640264496440649F259625AD25A65
:105C1000425BB25B225C925C025DF24D616182800C
:105C20005D7197E7FF1F9387E70E5ED683AB470052
:105C300086C6A2C4A6C2CAC04EDE52DC56DA5AD804
:105C400062D466D26AD06ECE83CA0B0063850A1412
:105C50006D7C93841B00930D0C3013048002938B96
:105C60003B0317CB0000130B2B4893090004130CC4
:105C70000C4093178401E18763C5071005478546EB
:105C800009466C00130580072316B101135944001F
:105C9000EF60601F0547854609466C0013690901DE
:105CA0001305800723060100A3062101EF60A01D54
:105CB000137AF4000547854609466C0013058007F2
:105CC00023060100A3064101EF60E01B93870AFE53
:105CD00093F7F70F939C470097C7000093874741BE
:105CE000330D9B01B38A970183480D000547050DCD
:105CF000854609466C001305800723063101A3067B
:105D00001101EF604018E391AAFF05478546094657
:105D10006C001305800723168101EF60C01605474C
:105D2000854609466C0013058007A306210123065A
:105D30000100EF6040150547854609466C001305D4
:105D40008007A306410123060100EF60C013138AF8
:105D50008C0097C700009387273A5A9A3389970196
:105D600083470A000547050A854609466C00130566
:105D7000800723063101A306F100EF60C010E31194
:105D800049FF83CA040021041374F40F63850A00D9
:105D90008504E39074EFED7A17D900001309198395
:105DA0009304600513043004938A0A7097CB0000B3
:105DB000938BCB0F17CB0000130BAB0F9309000491
:105DC000130AF00693178401E18763C607080547A5
:105DD000854609466C001305800723165101EF60C4
:105DE000800A9357440093E7070105478546094613
:105DF0006C0013058007A306F10023060100EF6085
:105E000080089377F4000547854609466C00130522
:105E10008007811493F4F40FA306F1002306010018
:105E2000EF60600693971400A6978607338CFB00FB
:105E3000B304FB0083470C000547050C8546094663
:105E40006C001305800723063101A306F100EF6003
:105E50008003E39184FF8344090019041374F40F51
:105E600081C40509E31044F7B64026449644064928
:105E7000F259625AD25A425BB25B225C925C025D7A
:105E8000F24D616182805D715ED6ED7BA2C4A6C2D7
:105E90004EDE56DA5AD862D46ECE86C6938D0B305B
:105EA000CAC052DC66D26AD097C400009384546A98
:105EB00017CC0000130CFC6C930A3005130400028D
:105EC00017CB0000130B4B2293090004938B0B405C
:105ED00093178401E18763C5071005478546094686
:105EE0006C00130580072316B10113594400EF50CD
:105EF00090790547854609466C0013690901130529
:105F0000800723060100A3062101EF50D077137A02
:105F1000F4000547854609466C00130580072306F3
:105F20000100A3064101EF50107693870AFE93F714
:105F3000F70F939C470097C700009387671B330DAB
:105F40009B01B38A970183480D000547050D8546DF
:105F500009466C001305800723063101A3061101D1
:105F6000EF507072E391AAFF0547854609466C0021
:105F70001305800723167101EF50F0700547854621
:105F800009466C0013058007A306210123060100C2
:105F9000EF50706F0547854609466C001305800772
:105FA000A306410123060100EF50F06D138A8C0017
:105FB00097C70000938747145A9A338997018347FC
:105FC0000A000547050A854609466C001305800747
:105FD00023063101A306F100EF50F06AE31149FFF7
:105FE00083CA040021041374F40F63850A00850436
:105FF000E39084EFB640264496440649F259625A2B
:10600000D25A425BB25B225C925C025DF24D6161EE
:1060100082805D715ED6ED7BA2C4A6C24EDE56DAEA
:106020005AD862D46ECE86C6938D0B30CAC052DC6D
:1060300066D26AD097C400009384144D17CC000038
:10604000130CBC4F930A30051304000317CB000058
:10605000130B8B0993090004938B0B409317840156
:10606000E18763C507100547854609466C0013059F
:1060700080072316B10113594400EF50D060054743
:10608000854609466C00136909011305800723063C
:106090000100A3062101EF50105F137AF4000547B9
:1060A000854609466C001305800723060100A306F8
:1060B0004101EF50505D93870AFE93F7F70F939CD1
:1060C000470097C700009387A702330D9B01B38A4F
:1060D000970183480D000547050D854609466C006C
:1060E0001305800723063101A3061101EF50B059B3
:1060F000E391AAFF0547854609466C001305800712
:1061000023167101EF5030580547854609466C004B
:1061100013058007A306210123060100EF50B056A6
:106120000547854609466C0013058007A306410113
:1061300023060100EF503055138A8C0097C70000EA
:10614000938787FB5A9A3389970183470A0005474B
:10615000050A854609466C001305800723063101B0
:10616000A306F100EF503052E31149FF83CA040047
:1061700021041374F40F63850A008504E3109CEE78
:10618000ED7A17C900001309B93893049007194430
:10619000938A0A7097CB0000938B4BD117CB0000EA
:1061A000130B2BD193090004130A200393178401C6
:1061B000E18763C607080547854609466C00130555
:1061C000800723165101EF50104C9357440093E77A
:1061D00007010547854609466C0013058007A3069D
:1061E000F10023060100EF50104A9377F4000547B1
:1061F000854609466C0013058007811493F4F40F5B
:10620000A306F10023060100EF50F0479397140016
:10621000A6978607338CFB00B304FB0083470C0072
:106220000547050C854609466C00130580072306C3
:106230003101A306F100EF501045E39184FF834440
:10624000090019041374F40F81C40509E31044F71D
:10625000B640264496440649F259625AD25A425BE5
:10626000B25B225C925C025DF24D616182801D71C5
:10627000CEC697C90000938969C3A6CACAC8D2C44A
:10628000D6C2DAC05EDE86CEA2CC62DC66DA6AD81E
:106290009304200B17C900001309A9C1856B4E8A0E
:1062A000930A0004130B600B0547854609460C1042
:1062B0001305800723000102A3009102EF50B03CB8
:1062C0000547854609460C10130580072310710306
:1062D000EF50703B0547854609460C1013058007B3
:1062E0002310010217C40000130444BCEF50B0395E
:1062F0008347842205470504854609460C1013058B
:10630000800723005103A300F102EF50D037E311BF
:1063100089FE850493F4F40FE39864F91304000BE9
:10632000056C930B0040930A0004130B800B054788
:10633000854609460C101305800723000102A300BF
:106340008102EF5050340547854609460C1013056D
:10635000800723108103EF50103305478546094617
:106360000C101305800723107103CE84EF50B03159
:1063700083C7842205478504854609460C1013050A
:10638000800723005103A300F102EF50D02FE31147
:1063900099FE05041374F40FE31B64F997CB000016
:1063A000938B5B109304B007A14AED7C130B0004A0
:1063B000130C400393978A01E18763C507080547DB
:1063C000854609460C101305800723109103EF50F2
:1063D000902B93D74A0093E7070105478546094666
:1063E0000C1013058007A300F10223000102EF50F7
:1063F000902993F7FA000547854609460C101305C6
:106400008007A300F102811423000102EF50B0279E
:1064100093F7F40F93941700BE94860433049A0004
:10642000CA948347040005470504854609460C10B5
:106430001305800723006103A300F102EF50B0248D
:10644000E39184FE83C40B00990A93FAFA0F81C486
:10645000850BE3918AF7ED7C97CB0000938B1B06AD
:106460009304D007A14A938C0C70130B0004130CF7
:10647000400393978A01E18763C50708054785466E
:1064800009460C101305800723109103EF50B01F2D
:1064900093D74A0093E707010547854609460C1044
:1064A00013058007A300F10223000102EF50B01D85
:1064B00093F7FA000547854609460C101305800737
:1064C000A300F102811423000102EF50D01B93F7C7
:1064D000F40F93941700BE94860433049A00CA9470
:1064E0008347040005470504854609460C1013053B
:1064F000800723006103A300F102EF50D018E3915D
:1065000084FE83C40B00990A93FAFA0F81C4850BA9
:10651000E3918AF717E5FF1F03558582EFA0901AD4
:10652000EFA0302717C40000130444F71040544074
:1065300097EBFF1F938B9B8ABD4AEF80F052EFA031
:106540001030AA86054691450810EFE0DFE317D525
:10655000FF1F0355057FEFA0F016EFA0902310401A
:106560005440EF807050EFA0902DAA869145080806
:106570000546EFE05FE11408101097C50000938511
:1065800065F517E5FF1F13056585EFA0B05497E487
:10659000FF1F83C4A484CDC8ED7C938C0C10130B17
:1065A0000004130CB00393978A01E18763C50708C1
:1065B0000547854609466C0013058007231691019F
:1065C000EF50700C93D74A0093E7070105478546C3
:1065D00009466C0013058007A306F100230601009D
:1065E000EF50700A93F7FA000547854609466C009C
:1065F00013058007A306F100811423060100EF5064
:10660000900893F7F40F93941700BE948604330414
:106610009A00CA9483470400054705048546094645
:106620006C001305800723066101A306F100EF50FB
:106630009005E39184FE83C40B00990A93FAFA0F44
:1066400081C4850BE3918AF797CB0000938B5BE9BC
:106650006D7D5E8C9304E007B14A130D0D20130B82
:106660000004930C800393978A01E18763C50708B0
:106670000547854609466C00130580072316A101CE
:10668000EF50700093D74A0093E70701054785460E
:1066900009466C0013058007A306F10023060100DC
:1066A000EF50607E93F7FA000547854609466C0077
:1066B00013058007A306F100811423060100EF50A3
:1066C000807C93F7F40F93941700BE9486043304F0
:1066D0009A00CA9483470400054705048546094685
:1066E0006C001305800723066101A306F100EF503B
:1066F0008079E39184FE83440C00990A93FAFA0F9F
:1067000081C4050CE3919AF7ED7C9304E007B14A4C
:10671000938C0C50130B0004130C800393978A0185
:10672000E18763C507080547854609466C001305E0
:10673000800723169101EF50007593D74A0093E725
:1067400007010547854609466C0013058007A30627
:10675000F10023060100EF50007393F7FA0005479C
:10676000854609466C0013058007A306F1008114D5
:1067700023060100EF50207193F7F40F9394170054
:10678000BE94860433049A00CA94834704000547E4
:106790000504854609466C00130580072306610140
:1067A000A306F100EF50206EE39184FE83C40B003A
:1067B000990A93FAFA0F81C4850BE3918AF7056B66
:1067C000930B0B701304000B130B0BC0130A000484
:1067D000930A800B0547854609466C001305800720
:1067E00023060100A3068100EF50E06905478546B6
:1067F00009466C001305800723167101EF50A0684D
:106800000547854609466C0013058007231661017C
:10681000CE84EF50406783C78422054785048546B0
:1068200009466C001305800723064101A306F10009
:10683000EF506065E31199FE05041374F40FE31B38
:1068400054F9F6406644D6444649B649264A964A23
:10685000064BF25B625CD25C425D25618280411135
:1068600006C622C4EFE05FA997B70000938747638D
:106870008C4317D4FF1F13046456EF90106BEFA0E6
:10688000A05213160501418297C500009385C5D516
:106890002285EFA0302483070400BDC7014511A065
:1068A0003285130615001376F60FB307C4008387ED
:1068B0000700FDF709476361C704850793F7F70FE2
:1068C0003307F40083060700EDFA93075002090529
:1068D0002300F700A30007001375F50F8D47630D24
:1068E000F50085473386C7401376F60F05069305F6
:1068F00000022295EFB0FFEEB240224497D7FF1F6F
:10690000A38F074C410182809307500217D7FF1FC6
:106910002316F74C01460545E9B7397162CC06DE0E
:1069200022DC26DA4AD84ED652D456D25AD05ECE7F
:1069300066CA6AC897D7FF1F83C747400D4717DC51
:10694000FF1F130C2C3D6388E7766381076C17C625
:1069500000001306E6C997C500009385A5C917D5A1
:10696000FF1F1305A547EFA0F01617D4FF1F034420
:10697000E44665C46D7A17D9FF1F1309394693049D
:10698000E005130A0A1017BB0000130B2B5297BA2D
:106990000000938A0A5293090004930BA00893976E
:1069A0008401E18763C2070A0547854609466C00F2
:1069B0001305800723164101EF50E04C93D74400A4
:1069C00093E707010547854609466C0013058007D4
:1069D000A306F10023060100EF50E04A93F7F4000C
:1069E0000547854609466C0013058007011413749A
:1069F000F40FA306F10023060100EF50C0489317DF
:106A00001400A2978607B30CFB003384FA0083C7F7
:106A10000C000547850C854609466C001305800768
:106A200023063101A306F100EF50E045E31194FF86
:106A300003440900990493F4F40F05C0939784016B
:106A4000E1870509E3D207F603440900990493F4AA
:106A5000F40F01C40509E39474F517D5FF1F03551E
:106A6000252D9307703E63F7A75E1505420541810A
:106A7000EFA04045EFA0E05197CB0000938B0BA215
:106A800003A60B0083A64B00EF80007EEFA0205BE7
:106A9000AA860546914517D5FF1F13052534EFE05B
:106AA0009F8E97D5FF1F83C5653397D4FF1F9384AF
:106AB000F43217D9FF1F13099935314481E529A80C
:106AC000630C99002285EFE01FC183C504002104F7
:106AD00085041374F40FEDF597D5FF1F83C5952337
