:081000006F10100E4C250100D9
:10100800000000000000000090200020DC2D0020DF
:10101800A9BDF9F5942000200000000000000000A0
:10102800962000209820002000000000000000000A
:101038009A200020000000009C20002000000000F2
:101048009E200020A02000203E220020A420002076
:10105800A6200020A8200020AA200020AC200020E4
:10106800C6200020B0200020B2200020B42000209C
:10107800E42E0020B8200020FE2E0020BC200020F6
:10108800BE200020C0200020C2200020C420002054
:1010980001A001A001A001A001A001A001A001A040
:1010A80001A001A001A001A001A001A001A001A030
:1010B80001A001A001A001A001A001A001A001A020
:1010C80001A001A001A03727004083476740858B16
:1010D80099E373002030411122C626C40544230336
:1010E8008740B717004083A7470C11679726000071
:1010F80083C616E3F98F3337F000972400009384F2
:1011080064DE638FE61097260000A38BE6E0638415
:101118000710BC40EDC7E8407DC13387A7009D4656
:1011280063FFE60C17270000034777E031EB97E0F1
:1011380000E0E780207E972700009387A7D18C43A3
:10114800AA8497E000E0E78020F2635EA00A972770
:101158000000938767D08C43268597E000E0E780FE
:1011680000F96352050A97270000238B07DA9727AF
:10117800000023A307DA97270000A38A87DA61A073
:10118800D85806076374F5001367170097270000FF
:1011980023A4E7D883C7C403DD46850793F7F70F71
:1011A80017260000230EF6D663FFF6049376F700A1
:1011B8009387F6FF93F7F70F0946636EF6029C5C78
:1011C800639BE702B7070400BC4B11831726000096
:1011D800230FD6D497260000239AE6D405479726EE
:1011E8000000A387E6D493050002172500000345F5
:1011F800E5C68297D8589727000023A1E7D29727FA
:101208000000A38607D29727000023AD07D09727B1
:10121800000023AB07D03244A244410173002030C0
:1012280081CBBC40850717270000232DF7CEE5B7F3
:10123800FC408507172700002328F7CEE9BFB7171A
:10124800004003D7E7099316170163DE060211670A
:10125800239FE708B727004003C70740894613675D
:1012680047002380E74003C72740172600002302D2
:10127800D6CC136717002381E740B7E700E03707AC
:10128800000123A0E7107300203041118146014678
:101298008145114506C6EF10602DB727004011475C
:1012A8002383E780B7F700E003A707D16D9B23A846
:1012B800E7D003A707D15D9B23A8E7D073005010A0
:1012C80001000100B240410182804111814601467E
:1012D8008145114506C6EF106029B7270040114720
:1012E8002383E780B717004083C6E70203C6E704F5
:1012F80083D78703116793F6F60F1366360063E505
:10130800E700F19A93E6160073270080218B972750
:101318000000938767B519CB7327008097250000D5
:1013280023A4E5B498435D9B731007800100010076
:1013380037170040930570052300B704930580FA1A
:101348002300B70401000100230207022300070459
:10135800F32500809843218B4D8F73100780172742
:101368000000232307B00100010073270080218BB0
:1013780019CB732700809725000023A7E5AE984373
:101388005D9B73100780010001003717004093052B
:1013980070052300B704930580FA2300B704010001
:1013A80001002307D7022307C70423000704F326F5
:1013B80000809843218B558F7310078017270000F2
:1013C800232407AA0100010073270080218B19CB71
:1013D800732700809726000023A8E6A898435D9B02
:1013E800731007800100010037170040930670054D
:1013F8002300D704930680FA2300D70401000100D4
:101408008346B70493E60602A305D704230007041E
:10141800F32600809843218B558F73100780172778
:101428000000232307A40100010037F700E083260A
:1014380007D193E646002328D7D0832607D1DD9A23
:101448002328D7D0730050100100010073270080B3
:10145800218B19CB732700809726000023A6E6A0CE
:1014680098435D9B73100780010001003717004007
:10147800930670052300D704930680FA2300D70447
:10148800010001008346B70493F6F60DA305D704BF
:1014980023000704732700809C43A18BD98F739086
:1014A80007809727000023A1079C01000100B24094
:1014B800410182800111B7F5070022CC81460A86D6
:1014C8002A84E105194506CE26CA4AC802C0231255
:1014D8000100EF10A009B717004083C6E70203C652
:1014E800E70483D78703116793F6F60F1366360070
:1014F80063E5E700F19A93E6160073270080218BD5
:10150800172900001309499601CFF32700801727F0
:101518000000232BF79483270900DD9B7390078035
:101528000100010037170040930770052300F704F6
:10153800930780FA2300F704010001002302070241
:1015480023000704F327008003270900218B5D8F00
:10155800731007809727000023A807900100010057
:1015680073270080218B01CFF32700801727000005
:10157800232CF78E83270900DD9B739007800100D9
:10158800010037170040930770052300F7049307FD
:1015980080FA2300F704010001002307D70223077C
:1015A800C70423000704F327008083260900A18AC3
:1015B800DD8E739006809727000023A7078A010015
:1015C8000100B7F700E083A607D193E6460023A8F9
:1015D800D7D0835707026577110793F70760C18F44
:1015E800D98FC207C183010073270080218B01CFE7
:1015F800732700809726000023A8E68603270900A2
:101608005D9B7310078001000100371700409306A7
:1016180070052300D704930680FA2300D70401003D
:1016280001008346F70093E60604A307D700834624
:10163800B70493E60602A305D7042310F702230094
:1016480007047327008083270900A18BD98F739023
:1016580007809727000023A9078001000100B7F43D
:10166800070037F400E0E104832704D1DD9B232839
:10167800F4D073005010010001001305C012EF00F0
:10168800100381463000A685194502C423160100BF
:10169800EF00D06D22478247E318F7FCF32700805C
:1016A800A18B81CFF327008017170000232EF77A2C
:1016B80083270900DD9B7390078001000100B7179D
:1016C8000040130770052380E704130780FA23807E
:1016D800E7040100010003C7B7041377F70DA385DA
:1016E800E704238007047327008083270900A18B60
:1016F800D98F739007809717000023A707760100FA
:10170800010051456D27F2406244D24442490561C7
:101718008280411126C281460146AA84814511452D
:1017280006C622C4EF009064B717004003C7E7025B
:1017380083C6E70483D7870311661377F70F93E609
:10174800360063E5C700719B13671700F327008015
:10175800A18B171400001304247199CBF327008080
:10176800171600002322F6701C40DD9B739007803B
:1017780001000100B7170040130670052380C70455
:10178800130680FA2380C7040100010023820702A0
:1017980023800704732600801C40A18BD18F73908F
:1017A80007809717000023A1076C01000100F327A9
:1017B8000080A18B99CBF327008017160000232502
:1017C800F66A1C40DD9B7390078001000100B71783
:1017D8000040130670052380C704130680FA23808F
:1017E800C704010001002387E7022387D704238069
:1017F8000704732700801C40A18BD98F7390078042
:101808009717000023A20766010001001305500284
:10181800BD2237F700E0832707D193E74700232845
:10182800F7D0F3270080A18B99CBF32700801717F7
:101838000000232BF7621C40DD9B7390078001009A
:101848000100B7170040130770052380E70413074A
:1018580080FA2380E7040100010003C7F70013673B
:101868000704A387E70023800704732700801C4030
:10187800A18BD98F739007809717000023A6075E66
:1018880001000100F3270080A18B99CBF32700808A
:1018980017170000232AF75C1C40DD9B7390078014
:1018A80001000100B7170040130770052380E70403
:1018B800130780FA2380E704010001002567D98C0B
:1018C8002390970223800704732700801C40A18B74
:1018D800D98F739007809717000023A70758010036
:1018E800010037F700E0832707D1DD9B2328F7D0D5
:1018F80073005010010001008146014681451145E1
:10190800EF00D046F3270080A18B99CBF327008006
:1019180017170000232AF7541C40DD9B739007809B
:1019280001000100B7170040130770052380E70482
:10193800130780FA2380E7040100010003C7670446
:10194800136717002383E7042380070473270080A5
:101958001C40A18BD98F739007809717000023A58F
:10196800075001000100B2402244924441018280A4
:101978008567938707770100FD17F5FF8280F327B6
:101988000080A18B171700001307074E99CBF32788
:1019980000809716000023A9F64C1C43DD9B73902A
:1019A800078001000100B7170040930670052380E7
:1019B800D704930680FA2380D7040100010083C668
:1019C800B70493F6F60DA385D7042380070473267E
:1019D80000801443A18AD18E739006809716000068
:1019E80023A40648010001009376050263820618C5
:1019F80083C7A700918BB9EFF3270080A18B63926F
:101A0800073001000100B7170040930670052380D6
:101A1800D704930680FA2380D7040100010083C607
:101A2800A70093E646002385D70023800704F32602
:101A380000801C43A18BD58F7390078097170000F7
:101A480023A40742010001009307004B0100010095
:101A5800FD17EDFFF3270080A18B99CBF3270080BA
:101A68009716000023A2F6401C43DD9B7390078065
:101A780001000100B7170040930670052380D704C2
:101A8800930680FA2380D704010001007D892394FE
:101A9800A700010001000100010023800704F326CC
:101AA80000801C43A18BD58F739007809717000087
:101AB80023AC073A01000100F3270080A18B63974C
:101AC800072201000100B717004093067005238024
:101AD800D704930680FA2380D7040100010001008F
:101AE8000100B726004013061005A383C680238093
:101AF8000704F32600801C43A18BD58F73900780C1
:101B08009717000023A2073601000100F327008081
:101B1800A18B99CBF32700809716000023A6F634F3
:101B28001C43DD9B7390078001000100B71700403C
:101B3800930670052380D704930680FA2380D70480
:101B48000100010083C6B70493E60608A385D704FD
:101B580023800704F32600801C43A18BD58F739044
:101B680007809717000023A1073001000100828039
:101B7800937605046389061283C7A700C18BA5EB7A
:101B8800F3270080A18B99CBF327008097160000DC
:101B980023ACF62C1C43DD9B7390078001000100E9
:101BA800B7170040930670052380D704930680FA80
:101BB8002380D7040100010083C6A70093E606012D
:101BC8002385D70023800704F32600801C43A18BBC
:101BD800D58F739007809717000023A70728010067
:101BE80001009307007D01000100FD17EDFFF327B9
:101BF8000080A18B99CBF32700809716000023A5BE
:101C0800F6261C43DD9B7390078001000100B7177F
:101C18000040930670052380D704930680FA23803A
:101C2800D704010001009376F50193E60604239496
:101C3800D700010001000100010023800704F326FA
:101C480000801C43A18BD58F7390078097170000E5
:101C580023AC07200100010093076004630EF50A16
:101C6800F3270080A18B99CBF327008097160000FB
:101C780023ACF61E1C43DD9B739007800100010016
:101C8800B7170040930670052380D704930680FA9F
:101C98002380D70401000100B72600401306200561
:101CA800A383C680A9B5F3270080A18B99CBF3271E
:101CB80000809716000023A9F61A1C43DD9B739039
:101CC800078001000100B7170040930670052380C4
:101CD800D704930680FA2380D7040100010083D635
:101CE800870093E6060C2394D70011B5F3270080EC
:101CF8009716000023AAF6161C43DD9B73900780F5
:101D0800C9B3F32700809716000023AFF6141C43CD
:101D1800DD9B73900780F5B1F3270080A18B99CBE9
:101D2800F32700809716000023A0F6141C43DD9BC0
:101D38007390078001000100B717004093067005F3
:101D48002380D704930680FA2380D704010001007A
:101D5800B72600400946A383C68051BB411181467E
:101D680001468145114506C6EF005000F327008063
:101D7800A18B971600009386260F99CBF327008036
:101D8800171700002322F70E9C42DD9B73900780F3
:101D980001000100B7170040130770052380E7040E
:101DA800130780FA2380E7040100010003C76704D2
:101DB800136717002383E704238007047327008031
:101DC8009C42A18BD98F739007809717000023AD91
:101DD800070801000100B2404101828081460146A6
:101DE800814511456127F3270080A18B1717000053
:101DF8001307870799CBF32700809716000023A5C0
:101E0800F6061C43DD9B7390078001000100B7179D
:101E18000040930670052380D704930680FA238038
:101E2800D70401000100FD562396D702238007043A
:101E3800F32600801C43A18BD58F739007809717DA
:101E4800000023A3070201000100F3270080A18BF3
:101E580099CBF32700809716000023A7F6001C43B0
:101E6800DD9B7390078001000100B71700409306BF
:101E780070052380D704930680FA2380D7040100D5
:101E8800010083C6670493E616002383D7042380E2
:101E98000704F32600801C43A18BD58F739007801D
:101EA8009717000023A207FC0100010001A0931767
:101EB80015003E95060501007D1575FD828015C14A
:101EC800411122C426C206C6AA840144050442045C
:101ED8004180793CE39C84FEB24022449244410113
:101EE80082808280B7170040130700032388E70227
:101EF8008547171700002327F7FA730020300111D0
:101F080022CE26CC4ACA4EC852C6976000E0E78067
:101F1800404F9317F5002A8463D50714937715006B
:101F2800639A072C9317D40063D30724B7070400D8
:101F380093876708E18F95CB9717000083C727F829
:101F4800171700000347B7F763E9E74C9717000036
:101F580083C707F7638E0740054597170000A383DB
:101F680007F6976000E0E780604193770440639943
:101F78000730856713890780B379F4001377041055
:101F88009164A167137A042033792401E18C7D8C54
:101F980055E7631C0A0263170904639C0900B5E04E
:101FA80025EC7244E2445249C249324A0561730041
:101FB80020300565976000E0E78000469D471717C9
:101FC8000000230DF7EEE9DC2DA81305002097602B
:101FD80000E0E78060449147171700002300F7EE00
:101FE800E30D09FA056513050580976000E0E780B1
:101FF800A0429947171700002302F7ECE38109FA7A
:102008004DBF1165976000E0E7800041A1471717B1
:1020180000002305F7EA51D42165976000E0E780C6
:10202800A03F7244A547171700002309F7E8E244C8
:102038005249C249324A0561730020301305001025
:10204800976000E0E780403D0545976000E0E78045
:10205800E0329547171700002302F7E6E30D0AF26E
:10206800ADB793772500B1C7B70704009387070872
:10207800E98F638A0718971700009387E7E41147E9
:102088009C4397160000A38FE6E217170000A30AE7
:1020980007E217170000230707E281CF9C4391CB83
:1020A80097150000938505E217150000130505072D
:1020B80082979317D4009374044063C507169377E7
:1020C8000404B1C7171700000347A7DFFD4763EEF5
:1020D800E724971700009387C7DE03C90700137921
:1020E800F90F9307190017170000230CF7DC976006
:1020F80000E0E780203097170000938727003E997B
:102108002300A9000545976000E0E78080299377C0
:10211800040195CF375700408357078093E717008E
:102128002310F78097170000938707DA9C4381CF25
:10213800DC4391CB9715000083C5A5D8171500007F
:102148001305C5FB829797170000238C07D6E382F7
:1021580004E23705001013050540976000E0E780AA
:10216800A02B0545976000E0E780A02319B5937779
:10217800240081CF9717000083C777D4638D071A8F
:102188000545976000E0E780C021937704046390D9
:10219800071293770440E38E07DC37050010130518
:1021A8000540976000E0E78020279714000083C46B
:1021B80004D193871400171700002302F7D0976003
:1021C80000E0E780202397170000938727F1A69760
:1021D8002380A7009717000083C787CE638B071E4D
:1021E800054597170000A38F07CC976000E0E780AC
:1021F800E01841B317150000034595CC976000E03F
:10220800E780A01E05B38D4717170000A30CF7CA77
:1022180097170000238707CA9317D40093740440C4
:10222800E3DF07E80545976000E0E7808017639FD4
:10223800041093774408E38E07D29717000083C7EA
:1022480057C8171700000347E7C763F7E71697173C
:102258000000938717C783C70700171700001307E5
:10226800E7EB93F7F70F3E97034507008507171726
:102278000000A308F7C4976000E0E7800017D5B90D
:102288003705001013050540976000E0E780C01887
:102298008D47171700002303F7C20545971700005D
:1022A800A38207C2976000E0E780400DD9B1971478
:1022B800000083C4C4C093871400171700002300CC
:1022C800F7C0976000E0E780E01297170000938757
:1022D800E7E0A6972380A70017170000034737BE3B
:1022E8009717000083C7A7BD63EFE70C0145976008
:1022F80000E0E780000B9717000083C7C7BC63871F
:10230800071497170000238007BC9717000083C79E
:1023180027BB638307140545976000E0E780000644
:1023280097170000A38007BAADB50145976000E094
:10233800E7802007E9BB0145976000E0E780600679
:102348008547171700002300F7B881B53705001037
:1023580013050540976000E0E780000C054597608D
:1023680000E0E780000497170000A38D07B415B9B3
:10237800854781451305004017170000A300F7B4EF
:10238800976000E0E78040048145130500209760CE
:1023980000E0E7806003814513050010976000E0C6
:1023A800E78080020545976000E0E780C0FA97174C
:1023B8000000A38907B055BE1305F00F976000E031
:1023C800E780A0027DB60545976000E0E78060FDE4
:1023D800C9B3854781451305004017170000A30FAF
:1023E800F7AC976000E0E78020FE814513050020E8
:1023F800976000E0E78040FD814513050010976075
:1024080000E0E78060FC0545976000E0E780A0F405
:1024180097170000A38807AAA9BE971700009387FB
:1024280007AA83C7070017170000130727CB93F7DE
:10243800F70F3E970345070085071717000023008D
:10244800F7A8976000E0E78040FA05B685471717B8
:102458000000230AF7A635BB8547814513050040D0
:1024680017170000A30CF7A4976000E0E780C0F5F9
:10247800814513050020976000E0E780E0F481457E
:1024880013050010976000E0E78000F405459760A9
:1024980000E0E78040EC97170000A38507A2D5B9B4
:1024A800411122C406C6370400201C408297F5BF9C
:1024B8002303048015472303E48001002302A4803A
:1024C800828083076480E3CE07FE23030480828032
:1024D80083076480E3CE07FE034544808280830738
:1024E8006480E3CE07FE2302A4808280411126C4C3
:1024F8004AC24EC006C61377F50BAD47AA892E8986
:1025080095446306F70019456537653F8D444E8548
:102518004537FD59FD1463983401B240A24412496D
:10252800824941018280135509011375F50F453F12
:102538002209CDB7011126CC06CEB70408005137C1
:102548001545BD37713769372AC6A53F3245937798
:10255800150089EB136515001375F50FF240E24479
:1025680005618280FD14E9FC0145CDBF397126DC87
:102578004ADA4ED852D656D45AD25ED006DE62CE49
:1025880066CCB7E700E07D5783AA070022C603AAF6
:10259800470023A0E71823A2E718B717004013073E
:1025A80070052380E704130780FA2380E70483C7B4
:1025B8004704930B75FFB684E20793FBFB0F854630
:1025C800AA892E8B328937240040E187015763FAA4
:1025D80076016308D5008946130700026313D50006
:1025E8000157D98F93F7F70FB71C00402382FC04DB
:1025F80011472303E4801305F00F5D3D094CD135E5
:10260800636D7C11B7050700DA95378707007955A0
:1026180063F2E504B3879500636EF702370B080091
:10262800A94733EB65016399F90689E48144513D73
:1026380026850DA0DA850945553D05090345F9FFAD
:10264800FD14050B693D81C49377FB0FFDF7DD355C
:1026580069FD7D55B7170040130770052380E7040F
:10266800130780FA2380E70403C74704418B2382BA
:10267800E704F250B7E700E023A0571123A247115F
:10268800E25432445259C259325AA25A125B825BFE
:10269800724CE24C21618280A5476395F9068569F1
:1026A8001309F00FB3069900B3742B01B6941349BC
:1026B800F9FFB3749900856B33796901416B93878E
:1026C800F9FFB3F7270199E363FC340193D9490073
:1026D800C147E3E637FF99BF0569C1697D19D9B7D5
:1026E8001305800D6388690113050002638479016D
:1026F80013051008CA85DD3B353D21DD4E99B384AD
:102708003441D9B7DA852D45D533CA94E30099F217
:1027180005097D3BA30FA9FED5BF9387F9FF93F762
:10272800F70F6361FC0C83C71C0413073008631F91
:10273800F70437070800636BEB04B3079B00B70681
:10274800100063F5D704334BEB0089476393F90610
:102758008980D549E38C04ECDA850945413B1109A8
:102768000327C9FF91472320E48003076480E34ED1
:1027780007FE23033481FD17EDFBFD14110B81C403
:102788009377FB0FE9FF7D3371F5E1B5B71700408B
:1027980003C75704B70708001377070219E3B78779
:1027A80007007955E378FBEA33079B00E3FFE7F876
:1027B80055B58547E382F9F2DA852D45053B9389BE
:1027C800F4FFE38504E6293393F7390091EB832678
:1027D80004800327090093074900E39AE6E43E8949
:1027E800CE84F1BFB5476396F9001305900BC93144
:1027F80035BDB1471305B00AE38BF9FE99476391DC
:10280800F904B7050800B365BB002D45C5318144FF
:102818008D4BA14975396396740183270480232061
:10282800F9008504E39834FF8327048013172B01EC
:10283800635507002312F900D5BB2322F900FDB325
:102848009D476399F90281451305B0044531BD449C
:102858002320090023220900FD599D3993F77400AC
:10286800CA9703C70700FD14398D2380A700E39694
:1028780034FF6DBBA1476392F9046D398144630D40
:102888000B008D479304C0036308FB009304000505
:1028980063048B01930440041375C507E30895D8B6
:1028A8001945393139390545213126850D3909450B
:1028B8003D314931E31C05D669BB91476399F9005D
:1028C80013056006F536F53E130590090DB7E38F3D
:0828D80009D4F154A9BB000072
:1028E00097F1FF1F9381017217510020130181712D
:1028F00017E5FFFF1305857197F5FF1F9385857019
:1029000017160020130686FD63FAC5008322050012
:1029100023A0550011059105E3EAC5FE1705010046
:10292000130545C397150020938545FB1716002016
:102930001306C65263FAC5008322050023A0550082
:1029400011059105E3EAC5FE171500201305055191
:1029500097350020938545086377B500232005004F
:102960001105E36DB5FEFD42739002BC8D4273907C
:102970004280B72200009382828873A0023097F2CF
:10298000FF1F9382226893E232007390523097A225
:102990000000938222CD739012346FD0636673006F
:1029A00020303D432A876373C3029377F700BDEF5E
:1029B000ADE5937606FF3D8ABA960CC34CC30CC7AF
:1029C0004CC74107E36BD7FE11E28280B306C340D8
:1029D0008A069702000096966780A6002307B70034
:1029E000A306B7002306B700A305B7002305B70069
:1029F000A304B7002304B700A303B7002303B70061
:102A0000A302B7002302B700A301B7002301B70058
:102A1000A300B7002300B700828093F5F50F9396CB
:102A20008500D58D93960501D58D61B793962700C6
:102A30009702000096968682E78086FA9680C117F4
:102A40001D8F3E96E374C3F8A5B7411106C6EF800B
:102A5000001BEF504071B240420541854101828028
:102A6000797122D485452A84014506D626D24AD0DA
:102A70004ECEEF508068EF50005F1374F40FB7171D
:102A80000040238C8704AA8440001309E100EF5022
:102A9000806B2310A4000904E31B89FE954681473F
:102AA000139717004C00130627002E962E97835578
:102AB000070003550600850793F7F70F6376B50007
:102AC0002310A7002310B600E3CCD7FCFD16E1FAD3
:102AD00003558100EFC0D0702A892685AE89EFC0EA
:102AE00010692A86AE864A85CE85EFB0B02997F761
:102AF0000000938727C59043D443EFC0A01B97F7EE
:102B000000009387A7C49043D443EFC0206697F793
:102B10000000938727C49043D443EFC0A019EFC0AF
:102B2000505FB2502254420592540259F2494181F9
:102B300045618280371700408327C70A9D6681451B
:102B4000D58F2326F70A1D656F6060401717002098
:102B50001307473983478702B337F000A309F70209
:102B60002309F70282809717002083C7273A638ED4
:102B7000A706411197170020238AA73822C406C64A
:102B800089472A8463F5A7028547630EF4024DC482
:102B900089476307F4088D47630AF4042244B2406E
:102BA000171500200345853641016F207008B707CF
:102BB0000400BC4B9145171500200345252A829738
:102BC0008547E316F4FC0145EF50A0012244B240D2
:102BD0009307400617170020231BF7321715002014
:102BE0000345C53241016F20B00482800545EF40A6
:102BF000507F971700209387E72E03D707032244BF
:102C0000B24093172700BA978607171700202310A2
:102C1000F730171500200345652F41016F20500143
:102C20000145EF40107C2244B240171500200345B7
:102C3000E52D41016F20C07F0545EF40907A224489
:102C4000B24093074006171700202312F72C1715E0
:102C500000200345A52B41016F20807D411106C650
:102C600021C59717002083C7672AA5C3B7070400AB
:102C7000BC4B914517170020230A07281715002081
:102C80000345C51D82970545EF40B075B2409307D7
:102C9000400617170020231CF726171500200345B0
:102CA000E52641016F20C0781717002003574725FC
:102CB0009717002083D7E7256379F70017170020BF
:102CC0000347C72489476315F700B240410182805A
:102CD00037070400384B9145971600202388F622C9
:102CE000171500200345851702970145EF40706FC7
:102CF000B240171500200345652141016F20407344
:102D0000411106C6171700200357672097170020A8
:102D100083C7C71F0DCB7D1742074183971600203D
:102D20002397E61E954663EDF60097F6000093861E
:102D3000E6A28A07B6979C43B69782876308071C6A
:102D4000B240410182801547E36CF7FE17F700009F
:102D5000130747A28A07BA979C43BA978287171727
:102D600000200347371893172700BA9786071717CD
:102D700000200357E7199716002083D686183E9740
:102D8000634CD700171700200357871763F0E61E20
:102D9000B306D74063DCD71CB7070400BC4B914592
:102DA0001717002023040716171500200345050BED
:102DB00082970545EF40F062930740061715002003
:102DC0000345C514171700202313F714EF2040669E
:102DD0009717002083D7A713A5F7171700200347DD
:102DE000E7128547E30EF7F4B7070400BC4B05472D
:102DF000914597160020238BE610171500200345F8
:102E0000E505829701459DA81307204997170020E3
:102E100083C7570DB387E702171700200357670EC4
:102E2000635AF70091471145171700202300F70E4A
:102E3000EF2000609717002083D7670DE39207F01B
:102E4000171700200357E70C9717002083D7670B4D
:102E5000E378F7EE9717002083C7470BE38207EE6E
:102E6000B7070400BC4B9145171700202300070A41
:102E700017150020034585FE82970545EF407056E3
:102E8000171500200345850893074006B240171721
:102E90000020231EF70641016F20805917170020DC
:102EA0000357E706E31E07E81717002003576706D6
:102EB0009717002083D7E704E374F7E855B7930723
:102EC000E0479716002083C6F601B386F6029717EF
:102ED000002083D7070363DED700954715451717F2
:102EE00000202305F702EF20A054171700200357F6
:102EF0000702E31707E49717002083D78700171707
:102F0000002003570701E37DF7E2A9B71717002058
:102F1000035707FF9717002083D787FFE372F7E275
:102F20008D470545171700202302F7FEEF40704B31
:102F300097170020938707FB03D707031715002077
:102F40000345C5FC93172700BA97860781B79307F7
:102F5000E047171700200347F7F83307F7029717E2
:102F6000002083D707FAE3CAE7F651BF971700207E
:102F700083D7E7F9E38A07E6E1B3411122C43704B6
:102F800004008327040806C626C21725000013057F
:102F9000E5EA829797140020938444EC2380A400F0
:102FA000EF40D03913052004EF80B032EF40D0411C
:102FB000EF407052EF40A027EF20D004EF40905C2C
:102FC000EF20C01161363C4803C504008545171445
:102FD0000020130424F182979307C0127D55231516
:102FE000F40085472308F40A23040400EF40802DF1
:102FF000EF20504103458402D1472315F400934745
:10300000F5FF2304F4022244B24092444101A1BEE0
:1030100041119307C01222C42A84171700202318D5
:10302000F7EC97170020238387EC85477D5517170A
:1030300000202301F7F606C6EF40C0289307700270
:1030400063E2871E17E70000130747740A043A94E7
:103050001C40BA97828717170020034747F39357FE
:103060003700858B9376770F99E393668700054643
:103070009305F00F054597170020238AD7F0C5A8C0
:10308000EF20503817150020034545E822445147EA
:10309000B2409347F5FF97160020239AE6E41717EE
:1030A00000202305F7E641017DBC0545EF40802166
:1030B0002244B24041016F30C0192244B240014560
:1030C00041016F4020209717002083D747E39306E4
:1030D0007070054763F4F6048566138676BB09476E
:1030E000637EF602138676060D476379F6029386B1
:1030F0007651114763F4F60289661386769C15476C
:10310000637EF600138676E719476379F6009386A7
:103110007632B3B7F600FD1713F777009717002044
:10312000A382E7DCEF20203F29479717002083C7C1
:1031300007E697160020A381E6E693E787001307CA
:10314000400601A89717002083C767E493E787002C
:10315000794797160020239CE6D8171700202308EC
:10316000F7E2EF20905005469305F00F0545224405
:10317000B24041016F202060EF30B065EDB7EF3015
:10318000D068D5B7971700209387C7D583D7A701F5
:103190002244B240171700202317F7D641016F30A1
:1031A000107BEF30B048C1B7EF30D07F6DBFEF403C
:1031B000E00255BFEF2030647DB72244B2404101A8
:1031C000170300206700C3B917170020035787D3E0
:1031D00097170020938707D10DE783D6870103D780
:1031E000A7011306004B9717002083C7B7CFB387FB
:1031F000C7026373D7003687998F171700202313F0
:10320000F7D097170020239807D8EF406043054672
:103210009305F00F0545EF200056A947171700202A
:103220002317F7CCB2402244410182800145EF4090
:10323000501BEF209004014605BFB7070400BC47B0
:103240006146814517150020130555CF171700203B
:10325000230607CE8297EF30106C9717002083C7A4
:1032600007D393E707F805469305F00F05451717B1
:103270000020230EF7D0E5BD97170020238E07D03E
:10328000EF30305CCDB5411106C61717002003574B
:1032900027C89717002083C7F7C435C161C39306B9
:1032A000A05AB386D702635DD70829070146854532
:1032B000094597170020239DE7C4EF20C04B9716C0
:1032C000002083C636C293072003B387F602171780
:1032D00000200357E7C317160020035686C3BA978A
:1032E000635EF60293072003B386F602B240369778
:1032F00097170020239FE7C041016F3030339306BA
:10330000E047B387D70263CFE70005468945054507
:1033100097170020239E07BEEF20E045B2404101F1
:103320006F30D03059170146854505459717002065
:103330002390E7BEEF202044B24041016F30102FB0
:103340001307A05AB387E7020546894509451717B1
:103350000020231FF7BAEF20004295B71307E0477C
:10336000B387E70201468545094517170020231159
:10337000F7BAEF204040B24041016F30302B834715
:10338000450091E38280411122C426C24AC006C68C
:1033900023020500971400209384C4B483D78404C7
:1033A0002A841309C012171700202314F7BE171719
:1033B0000020231E27B3EF305045034414008547F7
:1033C0006304F40C09476308E400B24022449244C9
:1033D00002494101828017170020034747B5631651
:1033E000F7021307C05D9717002083C7B7AFB387F5
:1033F000E70217170020231D07B017170020231B13
:1034000027B1171700202316F7B09307C01217171C
:103410000020231EF7AC9307100217170020230784
:10342000F7AC7D558547171700202305F7B6EF3019
:1034300070699717002083D7E7AC8DE783D68401A6
:1034400003D7A4019717002083C7D7A91306004B01
:10345000B387C7026373D7003687998F1717002089
:103460002312F7AA97170020239707B2EF40401DB9
:1034700005469305F00F0545EF20E02FA9471717E4
:1034800000202316F7A691B7014685450945EF2090
:10349000802E9717002083C737B085DBFD1793F781
:1034A000F70F17170020A309F7AE85F39717002031
:1034B000239F27A3930760027D551717002023073A
:1034C000F7A297170020238787ACEF30B05F9717DC
:1034D0000020238307ACEF30D0362244B240924420
:1034E000024905469305F00F054541016F20A028CC
:1034F00083474500A1CB011156C206CE22CC26CA75
:103500004AC84EC652C45AC09307C01223020500CF
:1035100017170020231DF79C834715000547971AAE
:103520000020938A2A9C6380E7028946638FD71222
:10353000F2406244D2444249B249224A924A024B82
:103540000561828082809714002083C4249F171B0A
:103550000020130BBB9EF9C0FD1493F7F40F939456
:103560001700BE94171B0020130B5B9D8604971752
:1035700000209387179D5A84BE94370A0400971938
:1035800000209389299B054919A063858408832716
:10359000CA03A28519464E8582971904E31725FFB1
:1035A000014685450945EF20001D9717002083C778
:1035B000B79EBDDFFD1793F7F70F17170020A30D78
:1035C000F79CBDF79307C0127D55171700202310F5
:1035D000F79293076002171700202309F7909717B7
:1035E00000202389279BEF30F04D9717002023857B
:1035F000079AEF3010256244F240D2444249B24962
:10360000224A924A024B05469305F00F0545056193
:103610006F2060169714002083C444921395140001
:10362000B7070400FC4726950605194697150020A4
:10363000938545905A95829783C78A0521478507C8
:1036400093F7F70F638BE708171700202308F78E0F
:10365000EF30702C054685450945EF20C011A9477C
:1036600017170020A30AF792E1B5930710027D55C2
:1036700097160020238CF68697170020238CE7905E
:10368000EF3050449717002083D7C7878DE783D644
:103690008A0103D7AA019717002083C7B7841306AE
:1036A000004BB387C7026373D7003687998F17170C
:1036B00000202319F78497170020239E078CEF30F2
:1036C000307805469305F00F0545EF20C00AA9475D
:1036D00017170020231DF780A1BD97170020238F07
:1036E0000784BDB7411122C406C626C29707002031
:1036F00083D7E77F170400201304C47E91C7FD170A
:10370000170700202315F77E9717002083C76782CD
:1037100089CBFD1793F7F70F17170020230BF780BE
:10372000ADCB9707002083C7677C13077002636DDA
:10373000F70417E700001307670F8A07BA979C433F
:10374000BA9782879717002083C7A7810947E39C10
:10375000E71A9717002083C7E78399E36F10204883
:103760009717002083C7378021476385E7004147CB
:10377000E399E72097170020238E07809307C01254
:10378000170700202315F776B240224492444101E6
:10379000828097070020A38C0778EF40C04951B77B
:1037A0009707002083D7A774E3820732970700208A
:1037B00083C7677C09476394E7006F10C0179707BA
:1037C000002083C7E77B0947E390E7FC1707002049
:1037D0000347577BE31AF7FA2244B24092443D452F
:1037E00041016FF0FF82EF20107AEFF06FD1EF1000
:1037F000D0159707002083C7477795CF97070020FC
:10380000238507769706002083C6A6750947970784
:10381000002083C757756394E6006F10C00B2147E3
:103820006395E7000545EFF06FC39307C0121707D4
:103830000020231EF76A9707002083C7B77295CF31
:1038400097070020A38007729706002083C6B671F1
:1038500009479707002083C7C7706394E6006F107D
:10386000C00121476395E7000145EFF02FBF9307A3
:10387000C01217070020231CF7669707002083C794
:10388000B76F85C797070020A388076E170700202A
:103890000347776D89476314F7006F10600B930738
:1038A000C012170700202314F7649707002083C76E
:1038B000176CE393072A9707002083C7A76B99CB60
:1038C000170700200347D76A930700026314F70025
:1038D0006F10E01F9707002083C7576B99CB17071E
:1038E00000200347876A930700026314F7006F10F4
:1038F00060249707002083D7875FE39707E8930743
:10390000C012170700202314F75E89477D5517075B
:103910000020230DF75C854717070020230CF7666E
:10392000EF30501A2244B2409244014541016F30B9
:103930007019EFF0EFBC9707002083C70763B9C386
:103940008347340817070020230107620547FD1746
:1039500093F7F70F6368F7029307C0127D55970638
:1039600000202396F658970700202381E7589707F1
:1039700000202381E762EF30F0140545EF3090140A
:10398000EF20300D9707002083C7D75DB9C3834769
:10399000E40717070020A307075C0547FD1793F707
:1039A000F70F6368F7029307C0127D559706002052
:1039B000239FF65297070020238AE752970700209B
:1039C000238AE75CEF3010100545EF30B00FEF2091
:1039D00050089707002083C79759B9C383478408C5
:1039E00017070020A30507580547FD1793F7F70FA2
:1039F0006368F7029307C0127D559706002023984D
:103A0000F64E970700202383E74E97070020238375
:103A1000E758EF30300B0545EF30D00AEF20700348
:103A20009707002083C707559DC717070020034746
:103A30003754930700026310F7021707002003476B
:103A4000E74C89476309F700054597070020238362
:103A50000752EFF0AFA09707002083C73753E385E5
:103A600007D2170700200347475293070002E31DC0
:103A7000F7D017070020034767498947E306F7D0C7
:103A80002244B240924497070020A3810750054585
:103A900041016FF0AF9C9707002083C7874CA14678
:103AA000E389D71E4147E386E71E0946E38CC70C2E
:103AB0009707002083C7374B2147E383E70E414731
:103AC000E380E70E09476394E7006F00B0751705C0
:103AD00000201305354AEFF09F8A170500201305D3
:103AE000C549EFF0DF899707002083D74740E39D62
:103AF00007C83DAA170700200347F7468947E31583
:103B0000F7C817070020034707478547E306F7CCA8
:103B1000170700200347C746E318F7C675B917070C
:103B2000002003475744C147E308F71297070020D6
:103B300083D7E73BE39A07C485477D551307C01237
:103B4000970600202395E63A170700202300F73A4E
:103B5000170700202300F744EF30C0760545EF300B
:103B600060762244B240924441016F20806E9707F4
:103B7000002083C7073FA146E381D7184147E38E62
:103B8000E7160946E38AC7029707002083C7B73DB7
:103B90002147E381E7044147E38EE7020947E38BCE
:103BA000E7689707002083C7373DE39C071C97070A
:103BB000002083C7C73CBDC7835784041304C012C9
:103BC00017070020230D073A170700202312F73CA0
:103BD00017070020231D8730EF30A03F97070020F4
:103BE00083C7B73905476394E7006F10E00E894635
:103BF000639AD70297070020239B872EC9477D55DC
:103C0000970600202384F62E970700202384E738A8
:103C1000EF30406BEF30603F05469305F00F0545F0
:103C2000EF1070359707002083D7672CE39E07B409
:103C30009307C01217070020231BF72A97070020BD
:103C40002386072A85477D55170700202304F7346C
:103C5000EF304067EF10107B170500200345052B60
:103C600022445147B24092449347F5FF9706002003
:103C7000239FE62617070020230AF72841016FE05B
:103C80009FEE9707002083C7372F63900768970739
:103C9000002083C7C72E81CF970700202381072EDE
:103CA000170700200347772D8547630BF7669707B3
:103CB000002083C7172D81CF97070020A383072CEF
:103CC0009707002083C7C72B05476383E702970741
:103CD000002083C7672BE38B07E497070020238529
:103CE000072A9707002083C7F7290547E390E7E4F1
:103CF0001307C01297060020239BE61E7D5513076D
:103D00005002970600202383E61E17070020230396
:103D1000F728EF30205BB7070400BC4761468145B8
:103D200017050020130595211707002023080720F9
:103D30008297EF30403E8347A40A05469305F00F73
:103D400093E707F80545170700202302F724EF1033
:103D50009022E9BB9707002083C7A7200947638704
:103D6000E768636CF7480547639BE7021307E04782
:103D70009707002083C71717B387E70217070020AC
:103D800003570719E3CCE7580546894505459707CA
:103D90000020239F0716EF10101EEF302009970711
:103DA000002083C7571C0947E38DE748636BF77A08
:103DB0000547E399E7E60545EFF0EFCCA5B5970792
:103DC000002083C7071A09476386E7666365F746DD
:103DD00005476395E7029707002083D7A713E38879
:103DE0000752938747FC0146854505451707002084
:103DF0002312F712EF103018EF30C03A9707002067
:103E000083C777160947E387E722636CF774054792
:103E1000E39AE7E0835704030567130707E19387F5
:103E2000C703C207C183970600202395F60EE372ED
:103E3000F74C05468945094597070020239CE70C68
:103E4000EF107013EF300036F1BB9707002083C7E7
:103E500047110947638EE75A636DF7400547639042
:103E6000E7028357240201468545D9170545170700
:103E70000020231AF708EF101010EF30402D97079D
:103E8000002083C7570E0947E382E736636BF76C60
:103E90000547E399E7D88357240201468545A907DA
:103EA0000945170700202310F706EF10D00CEF305C
:103EB000002A8DBB9707002083D76703E396078C02
:103EC0009307C012170700202313F702930700027D
:103ED00017070020230CF7007D55854717070020A2
:103EE000230AF70AEF30003E2244B24092444101D7
:103EF00017F3FF1F6700C3E69707002083C7D707A4
:103F000099CF97070020A38907069707002083C74A
:103F10006708E388070897070020238D070697079F
:103F2000002083C7C70599CF97070020238907047E
:103F30009707002083C70706638B076A970700204F
:103F4000238A07049707002083C7B70363910736C6
:103F50009707002083C74703E38A07BC9707002021
:103F6000238407029707002083C7C7026387077E61
:103F7000970700202380070255BE9707002083C7BC
:103F8000C7FE99CF97070020238107FE97070020DF
:103F900083C74700E38C071C97070020238C07FE8C
:103FA0009707002083C717FCE38E07C697070020FA
:103FB000A38A07FA9707002083C7C7FDE382070893
:103FC00097070020238807FCB1B9170500201305C7
:103FD00015FBEFF0EFD1170500201305A5FAEFF060
:103FE0002FD19707002083D787F0639F07F8A9B6E2
:103FF0009707002083C767F799CF9707002023868C
:1040000007F69707002083C7E7F8638907709707CB
:104010000020238107F89707002083C7B7F4E383C4
:1040200007C097070020A38F07F29707002083C7D8
:1040300067F6D9F79707002083C7A7F20547E393F0
:10404000E7BE1307C012970600202392E6EA7D55CB
:104050001307100297060020238AE6E817070020BE
:10406000230AF7F2EF3000269707002083D787E96D
:104070008DE7835684010357A4019707002083C767
:1040800077E61306004BB387C7026373D700368702
:10409000998F170700202317F7E697070020239C26
:1040A00007EEEF30E05905469305F00F0545EF1098
:1040B000806CA94717070020231BF7E26FF0CFECB5
:1040C0000357A401835724027D55998F17070020B9
:1040D000231AF7E29307C012170700202319F7E00D
:1040E00093071002170700202302F7E08547170700
:1040F00000202301F7EAEF30E01C9707002083D768
:1041000067E0C1FFBDB7636CF70A05476392E70636
:104110009706002083C616DD1307004B3387E6029F
:104120009707002083D7E7DEE354F72A1307E0FC64
:104130003387E602D917C207C18317060020231A66
:10414000F6DC170600200356A6DC3E97635BC7002B
:104150001307E0FCB386E602B69717070020231981
:10416000F7DA014685450545EF10E060EF300007BE
:104170009707002083C737DF0947E387E7106362AB
:10418000F73E0547E390E7AA1307C05D97070020B5
:1041900083C757D5B387E70217070020035767D7B0
:1041A000E350F71629070146854509459707002082
:1041B0002391E7D6EF10205CEF304002A5B42147F1
:1041C0006385E7004147E395E7FA970700202383DB
:1041D00007DC9307C01217070020231AF7D00947FE
:1041E0009707002083C737D8E386E70A6363F73869
:1041F0000547E38BE7F86FF02FD921476385E70088
:104200004147E39EE7B897070020238507D8930727
:10421000C01217070020231CF7CC0947970700207E
:1042200083C777D4E385E7026365F7340547E38402
:10423000E7B86FF06FD521476385E7004147E39FFB
:10424000E7BA97070020238707D49307C012170700
:104250000020231EF7C809479707002083C7B7D05F
:104260006380E75E6367F7300547E385E7BA6FF081
:10427000AFD121476385E7004147E392E7C0970745
:104280000020238907D09307C012170700202310AE
:10429000F7C609479707002083C7F7CC638EE774FA
:1042A0006369F72C0547E388E7BE6FF0EFCD97070A
:1042B0000020A38807CC9707002083C7A7CD638081
:1042C000073C97070020238707CC59B11307004B01
:1042D0009707002083C717C1B387E702170700209D
:1042E000035707C29387872563CFE76A0345A40A6C
:1042F0001345F5FF05893305A040EF30B016EF7088
:10430000D07D7D5585476FF07F8397070020A3857B
:1043100007C617070020034707C68547E319F79626
:104320009307C012170700202313F7BCC5477D551C
:1043300017070020230CF7BA854717070020230B27
:10434000F7C4EF203078EF20D04805469305F00FF2
:104350000545EF104042A1BA97070020A38907C086
:104360009707002083C787C009476387E77E054713
:10437000E388E7149307C012170700202319F7B644
:104380006FF08FC09707002083C7C7C0E380070C7A
:104390009707002083C737BD6384D7006399E7F28E
:1043A00097070020238807BE9307C0121707002035
:1043B000231FF7B26FF0AFF19707002083C787BDC7
:1043C000E38C07049707002083C7F7B96384D700FD
:1043D0006399E7FC97070020238E07BA9307C01262
:1043E000170700202315F7B06FF0AFFB97070020E9
:1043F00083C747BA638707769707002083C7B7B696
:1044000021476389E7B64147E394E79A6FF08FB697
:104410009707002083C707B8638F077697070020A8
:1044200083C777B421476387E7B44147E392E7A6A0
:104430006FF04FB49707002083C7C7B5E385070423
:104440009707002083C737B221476385E7B241470A
:10445000E39FE79A6FF00FB29307C012170700208F
:104460002317F7A8D1477D55170700202300F7A889
:10447000854717070020230FF7B0EF20B064EF2027
:10448000F01A05469305F00F0545EF10C02E6FF0AA
:10449000EFE997070020238F07AE9307C012170795
:1044A00000202316F7A421479707002083C7B7AB46
:1044B000E388E7EE4147E385E7EE09476399E7E0E4
:1044C0009307C012170700202313F7A2CD47170741
:1044D0000020230DF7A07D55854717070020230BEB
:1044E000F7AAEF20305E8357A40117070020231C92
:1044F000F7A0EF20D0456FF08FDD97070020238BCA
:1045000007A89307C012170700202312F79E214720
:104510009707002083C737A5E38EE7EA4147E38B7F
:10452000E7EA0947639FE7E69307C01217070020F1
:10453000231FF79AC9477D55170700202308F79ACC
:104540008547170700202307F7A4EF20B057EF2077
:10455000D02B05469305F00F0545EF10C0216FF0F5
:104560004FE421476388E7A04147639DE7EA6FF086
:104570006FA021476380E7A04147638DE79E6FF0FE
:10458000AFA0835784049304C01217070020A3052B
:10459000079E17070020231DF79E170700202318EA
:1045A0009794EF2010239707002083C7C79C0547E7
:1045B000638DE7708946639CD7DE970700202398B8
:1045C0009792C9477D55970600202381F692970759
:1045D00000202381E79CEF20F04EEF2010230546BA
:1045E0009305F00F0545EF1000196FF04FDC9707AA
:1045F000002083C7979805476389E7728946E3934C
:10460000D7949307C012970600202392F68E7D550B
:104610009307100297060020238AF68C9707002044
:10462000238AE796EF20104A9707002083D7878DCB
:104630008DE7835684010357A4019707002083C7A1
:10464000778A1306004BB387C7026373D700368798
:10465000998F170700202317F78A97070020239CBC
:104660000792EF20F07D05469305F00F0545EF100A
:104670008010A94717070020231BF786E1B0970792
:10468000002083C7E78F0547638FE7728946E39170
:10469000D78C9307C01297060020239AF6847D5585
:1046A00093071002970600202382F68497070020C4
:1046B0002382E78EEF2010419707002083D787845D
:1046C0008DE7835684010357A4019707002083C711
:1046D00077811306004BB387C7026373D700368711
:1046E000998F17070020231FF78097070020239436
:1046F000078AEF20F07405469305F00F0545EF108B
:104700008007A94717F7FF1F2313F77E970700209D
:1047100083C78787E39407846FF00F87970700208C
:1047200083C777840547E398E78E1307C0127D554A
:1047300097F6FF1F239DE67A1307000297F6FF1FE7
:104740002386E67A170700202306F784EF209037A8
:1047500097E0FF1FE780C0607DB89707002083C700
:10476000778205476381E75889466391D7BC9307F1
:10477000C01297F6FF1F239CF6767D559307100213
:1047800097F6FF1F2384F676970700202384E7809F
:10479000EF20503397F7FF1F83D7C776E39F078E2D
:1047A000C9B897F7FF1F83C7077D05476387E75C95
:1047B00089466396D7F69307C01297F6FF1F239892
:1047C000F6727D559307100297F6FF1F2380F6724D
:1047D00097F7FF1F2380E77CEF20D02E97F7FF1F6E
:1047E00083D747728DE7835684010357A40197F757
:1047F000FF1F83C7376F1306004BB387C70263736E
:10480000D7003687998F17F7FF1F231DF76E97F78D
:10481000FF1F23920778EF20B06205469305F00F43
:104820000545EF005075A94717F7FF1F2311F76CD7
:104830006FF0EFEE97F7FF1F83C7C775639407BE4E
:104840009307C01217F7FF1F2313F76AE1477D553F
:1048500017F7FF1F230CF768854717F7FF1F230B78
:10486000F772EF203026EF10007905469305F00F20
:104870000545EF0050706FF0EFBA05476384E7001D
:104880006FE0FFFE1307C0127D5597F6FF1F2390C0
:10489000E666414797F6FF1F238AE66417F7FF1F76
:1048A000230AF76EEF2010228347A40A794797F670
:1048B000FF1F239EE66293E7870017F7FF1F230879
:1048C000F76CEF10805A05469305F00F0545EF0091
:1048D000906A6FE0DFF905476384E7006FE0FFF45B
:1048E0001307C01297F6FF1F2393E6607D55130749
:1048F000700297F6FF1F238BE65E17F7FF1F230B4F
:10490000F768EF20301C97F7FF1F83C7476813D75E
:104910003700058B93F6770F19E393E6870005467A
:104920009305F00F054597F7FF1F2382D766EF0029
:1049300090646FE09FEF17F7FF1F0347176463044E
:10494000F7006FE0DFE73D45EFE08FEC6FE03FE71A
:1049500017F7FF1F0347276285476304F7006FE0DF
:104960001FF43D45EFE0CFEA6FE07FF39307C012FD
:1049700017F7FF1F231DF756E1477D5517F7FF1F58
:104980002306F756854717F7FF1F2305F760EF202B
:104990007013EF10406605469305F00F0545EF00D4
:1049A000905D6FF0EFDF9307C01217F7FF1F231022
:1049B000F754930740027D5517F7FF1F2308F7525E
:1049C000854717F7FF1F2307F75CEF20B00F01455E
:1049D000EF302021EF10600A2244B2409244014699
:1049E0009305F00F054541016F00F05897F7FF1F41
:1049F00083C7475A639807A29307C01217F7FF1F90
:104A00002317F74E9307200217F7FF1F2300F74ED7
:104A10007D55854717F7FF1F230EF756EF20900AA5
:104A20006FF04FA097F7FF1F83C7C75699C36FF06A
:104A30000F8A79B497F7FF1F83C7C755639307960B
:104A4000E5B497F7FF1F83C7E754639D079C93075F
:104A5000C01217F7FF1F231CF748DD477D5517F7D6
:104A6000FF1F2305F748854717F7FF1F2304F75259
:104A7000EF205005EF20807605469305F00F0545A1
:104A8000EF00704F6FF00F9A97F7FF1F83C78750A3
:104A9000639A07989307C01217F7FF1F2319F7446B
:104AA000D5477D5517F7FF1F2302F744854717F7B2
:104AB000FF1F2301F74EEF20F000EF20A06E054608
:104AC0009305F00F0545EF00104B6FF0AF9517F70A
:104AD000FF1F0347A74389476314F7006FE09FDF79
:104AE000054597F7FF1F23870748EFE02F976FF0E3
:104AF0007F88014685450945EF00F0476FF08FB488
:104B0000054689450945EF0010476FF0EFEA054675
:104B100089450545EF0030466FF00FAE5917014645
:104B20008545054597F7FF1F2394E73EEF00B04406
:104B30006FF0AFA617F7FF1F0347473D8947631480
:104B4000F7006FE01FDB054597F7FF1FA3800744C1
:104B5000EFE0CF906FF01F820145EFE02F906FF0F4
:104B60007F819307C01217F7FF1F2312F7389307AF
:104B700000027D5517F7FF1F230AF736854717F701
:104B8000FF1F2309F740EF20E07397E0FF1FE78046
:104B9000201D6FF0CFA09307C01217F7FF1F231837
:104BA000F734C9477D5517F7FF1F2301F7348547B1
:104BB00017F7FF1F2300F73EEF20C070EF20E044FF
:104BC00005469305F00F0545EF00F03A6FF02FAB67
:104BD000054689450545EF00103A6FF02FD9930738
:104BE000C01217F7FF1F2314F730D1477D5517F771
:104BF000FF1F230DF72E854717F7FF1F230CF738EC
:104C0000EF20406CEF20802205469305F00F05450C
:104C1000EF0070366FF0CFD59307C01217F7FF1F64
:104C20002317F72C930700027D5517F7FF1F230F5B
:104C3000F72A854717F7FF1F230EF734EF20806808
:104C400097E0FF1FE780C0116FE01FF49307C012C9
:104C500017F7FF1F231DF728C5477D5517F7FF1FBF
:104C60002306F728854717F7FF1F2305F732EF20A4
:104C70006065EF20003605469305F00F0545EF000F
:104C8000902F6FE0FFE29307C01217F7FF1F23106A
:104C9000F726DD477D5517F7FF1F2309F7248547C2
:104CA00017F7FF1F2308F72EEF20C061EF200053F6
:104CB00005469305F00F0545EF00F02B6FF00F94BC
:104CC0000545EFD0BFF96FF0EFEA0146854509458C
:104CD000EF00702A6FE0BFED014685450945EF0002
:104CE00090296FE03FF417F7FF1F0347E72A834639
:104CF000A40AB397E70093C7F7FFF58F050797F668
:104D0000FF1F2386F6289377F70F21476382E7106A
:104D100017F7FF1F2302F728EF20A032054685452D
:104D20000945EF0050256FF0EFE417F7FF1F034729
:104D3000A7268346A40AB397E70093C7F7FFF58F2A
:104D4000050797F6FF1F2384F6249377F70F214773
:104D5000638AE70C17F7FF1F2300F724EF20602E6C
:104D6000054685450945EF0010219307C01217F746
:104D7000FF1F231EF7166FF0EF9C8346A40A17F758
:104D8000FF1F03476721B397E700D58F050797F605
:104D9000FF1F238EF61E9377F70F21476389E708DD
:104DA00017F7FF1F230AF71EEF20A02905468545A8
:104DB0000945EF00501C9307C01217F7FF1F231877
:104DC000F7126FF0CF958346A40A17F7FF1F03472A
:104DD000A71CB397E700D58F050797F6FF1F238819
:104DE000F61A9377F70F21476389E70217F7FF1F3A
:104DF0002304F71AEF20E024054685450945EF0016
:104E000090179307C01217F7FF1F2312F70EFDB874
:104E100097F7FF1F2382071801B797F7FF1F238D0E
:104E20000716C9BF97F7FF1F2388071605BF97F717
:104E3000FF1F238307168DBF011122CC06CE26CA81
:104E40004AC84EC652C456C293F715002E84B9E321
:104E500093F725006391071493F74500ADEF93F79F
:104E60000504EDEB93F70501D9EB93F70502639B7E
:104E7000071493F705400145B1C797F7FF1F83C794
:104E8000E706FD1793F7F70F05476370F71A134509
:104E900004400DA8B7040400BC4C1306000A894561
:104EA00017F5FF1F034585FB8297BC4C37A60E0004
:104EB00013060660914517F5FF1F034525FA8297F3
:104EC00013451400F2406244D2444249B249224A96
:104ED000924A05618280EF20103FEF206076B7078D
:104EE0000400BC4F37F62B0013060620914517F53A
:104EF000FF1F0345A5F6829713454400E1B717F558
:104F0000FF1F0345450197F7FF1F83C7D700638B3A
:104F1000A71462058547618517F7FF1F2306F7FE73
:104F2000EF20F04DB7070400BC4F13060014C14535
:104F300017F5FF1F034585F2829797F7FF1F9387A9
:104F400067FA83C7270317F7FF1FA306F7FC13456C
:104F500004018DBF97F7FF1F83C7F7FB95EB97F70A
:104F6000FF1F938727F883D7070137070400384FBF
:104F7000B307F040116697F6FF1F239EF6F613065F
:104F800006E89305000417F5FF1F034525ED02977A
:104F90001345040405BFC922EF20905FEFE08FF4B2
:104FA000B7070400BC4F37170040A30107041306DE
:104FB000000A894517F5FF1F034545EA8297134507
:104FC000240009B717F7FF1F1307C7F183478700AE
:104FD0008546FD1793F7F70F63F5F60013450402B6
:104FE000D5B58347A70A858BF5DB97F7FF1F83D7D6
:104FF000E7F317F7FF1F0357A7F96308F70017F741
:10500000FF1F035707F9E31BF7FC97F7FF1F83C741
:1050100007F20547638EE70A0947E391E7FC01457C
:10502000EFD0DFC31345040271BD97F4FF1F9384D3
:10503000F4F097FAFF1F938AFAF1370A040097F900
:10504000FF1F938929EF05498327CA03A6851946BF
:105050004E858297990463032505E3979AFE1345CD
:1050600004408DB57D55EF20903997F7FF1F238DB4
:1050700007E897F7FF1F83C717EAE39A07ECB7071C
:105080000400BC4F130600649305000417F5FF1FCE
:105090000345C5DC8297134504012DB597F7FF1F23
:1050A00083C7A7E909476382E702638F2701B70730
:1050B0000400BC4B9305000217F5FF1F034515E1E3
:1050C000829713450440FDBB0145EFD03FB9C5B7FA
:1050D0000545EFD0BFB813450402EDB3B717004044
:1050E00003A7470C97F7FF1F9387C7DF239F070688
:1050F0001D8313471700058B23900708A38107081A
:10510000239207082383070823A40708A386070818
:10511000239707082388070823990708239A070875
:10512000A38B0708239C0708238D070823AE0708D5
:10513000A380070A2391070A2382070A2393070AF9
:105140002394070A2381E70C82809307200317F733
:10515000FF1F230BF7E48280011106CE22CC26CA62
:105160004AC84EC652C497F7FF1F83C7D7E363856B
:105170000728094A91491549854417F4FF1F13046C
:10518000F4CDEF60E03B1DC16303451D637DAA18AC
:105190006306351BE31725FF83470400F99B17F7C8
:1051A000FF1FA30DF7CAEF60A03979FD3718004043
:1051B0008327480C97F6FF1F83C656CA17F7FF1FB1
:1051C000034767DE9D83858B93D51600998F17F76C
:1051D000FF1F0347C7DB858A858993B717001356DE
:1051E000170017F4FF1F2300B4D897F5FF1FA389FA
:1051F000D5D697F6FF1FA38AF6D693771600814679
:1052000091CB97F6FF1F83C6F6D989C68326480C33
:10521000A982858A17F6FF1F230CD6D497F7FF1FA4
:1052200083C7E7D013F61700814619C697F6FF1F0C
:1052300083C616D0B336D00017F6FF1FA30CD6D204
:10524000898B814699C797F6FF1F83C676CEB33602
:10525000D000198397F7FF1F2381D7D2058B814692
:1052600011CB97F6FF1F83C6F6D389C697F6FF1FAB
:1052700083C646D397F7FF1F83C727CC17F7FF1FB7
:10528000A304D7D013F72700858B6309071417F7FA
:10529000FF1F034797CA61E797F7FF1FA38107CE58
:1052A00097F7FF1F2380A7CE97F7FF1F938787C32A
:1052B00017F5FF1F1305D5C5094625430D4EC148F7
:1052C0008D45054803C7F707630EC70A6301B70E8C
:1052D00071C7014783C61708D9EA83C6E707238F3A
:1052E000E7069507358F238EE706E39DA7FC97F722
:1052F000FF1F83C7F7C391C7FD1717F7FF1FA30948
:10530000F7C297F7FF1F83C757C391C7FD1717F75A
:10531000FF1FA304F7C2F2406244D2444249B2499B
:10532000224A05618280E31E95E48347040093E7E7
:10533000270017F7FF1FA303F7B2A1B583470400A7
:1053400093E7170017F7FF1FA30AF7B01DBD8347A8
:105350000400F59B17F7FF1FA302F7B01DB5054723
:1053600097F6FF1FA38DE6C085DF054515BFA38017
:105370000709238FE7069507E38BA7F603C7F7070F
:10538000E316C7F483C6D7079DEA83C6E7074147FC
:10539000E39216F5A38F070605472DBF83C6D707EF
:1053A00095DA23800708A38FC706214725B783C650
:1053B000D707094785F2A38F0706414721BF83C658
:1053C0000708850693F6F60F2380D7086375D30088
:1053D000A38FC70701B713070002EDBD17F7FF1F23
:1053E000A30F07B8E38E07EA97F7FF1F83C7F7B449
:1053F000E38807EA05456DB5EF7020609DBB41115C
:1054000022C426C22A84AE840545814506C6EF50D3
:10541000A02281450945EF50202222852244B24036
:10542000A68592449306401F514641016F50C03EED
:10543000411122C481452A84054506C6EF50C01F8C
:1054400081450945EF50401F97F7FF1F83C727B4D9
:105450008D83858B89CF954763EB870017C7000045
:105460001307C7460A043A941C40BA978287B24091
:1054700022444101828089669386067105468145F2
:1054800005452244B24041016F5000399306007D2A
:10549000154681450945F5B79306007D1546C5B704
:1054A0008566938686380946D9BF9306800C130615
:1054B000200381450945F1B76378B504130700005F
:1054C0006364A6003A858280411106C622C426C2C2
:1054D0004AC0B2842E84EFB0A0432A892685EFB05B
:1054E000C036AA854A85EFA050722A8933059440B8
:1054F000EFB0A035AA854A85EFA0B00BB240224498
:10550000924402494101828097C700009387473E39
:1055100098433A85828097F6FF1F9386A69C03C71F
:1055200016001306C0129307404CB307F7022398E6
:10553000C602130660543307C702C207C18342077D
:10554000D98FDCD68280797122D42A84368526D2FE
:105550004AD056CA5EC606D64ECE52CC5AC862C48F
:10556000B68BAE8A3289EFB0C022931405018D4705
:10557000C18463D8270F97C70000938727378C43D0
:105580005E850D4BEFA0303F06050581EFB0602032
:10559000420541859307803E336AF5020D49B38A7F
:1055A0002A419389FAFF63D60400B3049040C204F1
:1055B000C184A299138CF9FF238009002947A546CD
:1055C00029A0BE846367890C4A8CB3E7E4021309FF
:1055D000FCFF93870703A300F900B3C7E402E3C20B
:1055E00096FE930500005E85EFA03030634A050A01
:1055F000636A890033068940050693050002228507
:10560000EFD02FBA330554019307E0022A9B238081
:10561000F9001306FBFF23000B002947A54621A034
:105620003E8A636DA608B367EA027D169387070377
:10563000A300F600B347EA02E3C446FF6360A6088E
:10564000098E0506930500032254B2509254025964
:10565000F249624AD24A424BB24B224C45616FD06A
:105660004FB46300090A05476316E90697C70000AF
:10567000938747278C435E85054BEFA0D02F060507
:105680000581EFB0001142054185A947336AF50253
:1056900039B7930500005E85EFA03025E35405F689
:1056A0009307D0022300F9001309ECFF91B793058B
:1056B00000005E85EFA070236343050AB2502254B8
:1056C00092540259F249624AD24A424BB24B224C9E
:1056D000456182800947631BE90897C700009387EB
:1056E000A7208C435E85094BEFA0F02806050581B5
:1056F000EFB0200A4205418593074006336AF50260
:1057000079BD63D60400B3049040C204C184A29A58
:105710009389FAFF23800A002947A54629A0BE8461
:10572000E36789F8CA89B3E7E4021389F9FF93872D
:105730000703A300F900B3C7E402E3C296FE930592
:1057400000005E85EFA0701A634B0500E36889F6E0
:10575000330689400506930500022285F5B59307B7
:10576000D0022300F9001389E9FFCDB74A8B014A23
:10577000E317F9E209B561B1011122CC2A8452C4C0
:1057800008412E8A0C4806CE26CA4AC84EC6EFA04B
:10579000A02B4C4848C0AA84EFA0002BAA852685E0
:1057A000EFA02061832984002A8948C4CE855285D0
:1057B000EFA0B045CA85EFA0101CCE85EFA0C02891
:1057C00097C700009387C712AA898843232434010E
:1057D000CA85EFA09043A685EFA0F01908C0F2405B
:1057E00062444E85D2444249B249224A05618280D0
:1057F0003D89A54763F5A70013057503828013054E
:1058000005038280828001458280797122D46D7483
:10581000930704E06C000547854609461305800799
:1058200006D626D24AD04ECE2316F100F574EF608C
:105830008031938704506C0005478546094613055F
:1058400080072316F100EF6000306C009567054774
:1058500085460946130580072316F100EF60A02E48
:10586000930704806C0005478546094613058007A9
:1058700011692316F100EF60002D930709F06C0009
:10588000054785460946130580072316F100EF609A
:10589000802B6C0005478546094693840430130528
:1058A000800723169100EF60002A6C0005478546AB
:1058B00009461305800723160100EF60C0286C001D
:1058C0000547854609461305800723162101EF6029
:1058D0008027E5776C00938707D005478546094602
:1058E000130580072316F1008569EF60C0259387B3
:1058F00009406C00054785460946130580072316B5
:10590000F100EF6040246C00896705478546094631
:10591000130580072316F100EF60E02293070020B3
:105920006C00054785460946130580072316F100DC
:10593000EF606021E9746C00054785460946130550
:10594000800723169100EF6000206C00F177054777
:10595000854609461305800779792316F100EF6023
:10596000801E930709A06C0005478546094613056C
:1059700080072316F100EF60001D6C000547854687
:105980000946938909201305800723163101EF602A
:10599000801BE1776C009387071005478546094611
:1059A000130580072316F100FD79EF60C019938776
:1059B00009F06C0005478546094613058007231644
:1059C000F100EF604018930709906C000547854689
:1059D0000946130580072316F100EF60C0166C001E
:1059E0000547854609469389091013058007231644
:1059F0003101EF6040156C000547854609461309E3
:105A000009B01305800723162101EF60C0136C0055
:105A10008D67054785460946130580072316F10063
:105A2000EF606012938704406C0005478546094685
:105A3000130580072316F100EF60E0106C000547A6
:105A40008546094693840460130580072316910058
:105A5000EF60600F130404F06C00054785460946AB
:105A60001305800723168100EF60E00DB250225429
:105A700092540259F249456182805D715ED6ED7B98
:105A8000A2C4A6C24EDE56DA5AD862D46ECE86C6FC
:105A9000938D0B30CAC052DC66D26AD097C4000026
:105AA0009384145817CC0000130CBC5A930A600559
:105AB000394417CB0000130BAB0793090004938BF9
:105AC0000B4093178401E18763C50710054785469E
:105AD00009466C00130580072316B10113594400D1
:105AE000EF6060060547854609466C0013690901A9
:105AF0001305800723060100A3062101EF60A0041F
:105B0000137AF4000547854609466C0013058007A3
:105B100023060100A3064101EF60E00293870AFE1D
:105B200093F7F70F939C470097C700009387C70030
:105B3000330D9B01B38A970183480D000547050D7E
:105B4000854609466C001305800723063101A3062C
:105B50001101EF50507FE391AAFF054785460946A2
:105B60006C001305800723167101EF50D07D0547A7
:105B7000854609466C0013058007A306210123060C
:105B80000100EF50507C0547854609466C0013051F
:105B90008007A306410123060100EF50D07A138A43
:105BA0008C0097C700009387A7F95A9A3389970109
:105BB00083470A000547050A854609466C00130518
:105BC000800723063101A306F100EF50D077E311DF
:105BD00049FF83CA040021041374F40F63850A008B
:105BE0008504E39084EFB640264496440649F25972
:105BF000625AD25A425BB25B225C925C025DF24D09
:105C0000616182805D7197E7FF1F9387A72D5ED644
:105C100083AB470086C6A2C4A6C2CAC04EDE52DC11
:105C200056DA5AD862D466D26AD06ECE83CA0B00D6
:105C300063850A146D7C93841B00930D0C30130450
:105C40008002938B3B0317CB0000130B6BEE930981
:105C50000004130C0C4093178401E18763C50710FF
:105C60000547854609466C00130580072316B101D8
:105C700013594400EF50306D0547854609466C00C6
:105C8000136909011305800723060100A3062101FA
:105C9000EF50706B137AF4000547854609466C0097
:105CA0001305800723060100A3064101EF50B069E8
:105CB00093870AFE93F7F70F939C470097C700005E
:105CC000938787E7330D9B01B38A970183480D00C3
:105CD0000547050D854609466C0013058007230618
:105CE0003101A3061101EF501066E391AAFF0547A9
:105CF000854609466C001305800723168101EF5085
:105D000090640547854609466C0013058007A30685
:105D1000210123060100EF5010630547854609461F
:105D20006C0013058007A306410123060100EF5014
:105D30009061138A8C0097C70000938767E05A9A96
:105D40003389970183470A000547050A85460946B6
:105D50006C001305800723063101A306F100EF5004
:105D6000905EE31149FF83CA040021041374F40F09
:105D700063850A008504E39074EFED7A17C900008B
:105D8000130959299304600513043004938A0A7097
:105D900097CB0000938B0BB617CB0000130BEBB522
:105DA00093090004130AF00693178401E18763C680
:105DB00007080547854609466C001305800723162A
:105DC0005101EF5050589357440093E7070105479E
:105DD000854609466C0013058007A306F1002306DB
:105DE0000100EF5050569377F40005478546094669
:105DF0006C0013058007811493F4F40FA306F100DF
:105E000023060100EF50305493971400A69786079D
:105E1000338CFB00B304FB0083470C000547050CE3
:105E2000854609466C001305800723063101A30649
:105E3000F100EF505051E39184FF834409001904AD
:105E40001374F40F81C40509E31044F7B6402644E7
:105E500096440649F259625AD25A425BB25B225CBE
:105E6000925C025DF24D616182805D715ED6ED7B78
:105E7000A2C4A6C24EDE56DA5AD862D46ECE86C608
:105E8000938D0B30CAC052DC66D26AD097C4000032
:105E90009384941017CC0000130C3C13930A300524
:105EA0001304000217CB0000130B8BC893090004E6
:105EB000938B0B4093178401E18763C50710054757
:105EC000854609466C00130580072316B101135956
:105ED0004400EF5050470547854609466C0013695A
:105EE00009011305800723060100A3062101EF50D5
:105EF0009045137AF4000547854609466C00130562
:105F0000800723060100A3064101EF50D043938789
:105F10000AFE93F7F70F939C470097C700009387FB
:105F2000A7C1330D9B01B38A970183480D00054734
:105F3000050D854609466C001305800723063101CF
:105F4000A3061101EF503040E391AAFF05478546B3
:105F500009466C001305800723167101EF50B03E0F
:105F60000547854609466C0013058007A3062101F5
:105F700023060100EF50303D0547854609466C0079
:105F800013058007A306410123060100EF50B03B33
:105F9000138A8C0097C70000938787BA5A9A33896F
:105FA000970183470A000547050A854609466C00A4
:105FB0001305800723063101A306F100EF50B03826
:105FC000E31149FF83CA040021041374F40F6385AD
:105FD0000A008504E39084EFB640264496440649BF
:105FE000F259625AD25A425BB25B225C925C025D09
:105FF000F24D616182805D715ED6ED7BA2C4A6C266
:106000004EDE56DA5AD862D46ECE86C6938D0B30E9
:10601000CAC052DC66D26AD097C40000938454F39D
:1060200017CC0000130CFCF5930A30051304000391
:1060300017CB0000130BCBAF93090004938B0B40DD
:1060400093178401E18763C5071005478546094614
:106050006C00130580072316B10113594400EF505B
:10606000902E0547854609466C0013690901130502
:10607000800723060100A3062101EF50D02C137ADC
:10608000F4000547854609466C0013058007230682
:106090000100A3064101EF50102B93870AFE93F7EE
:1060A000F70F939C470097C700009387E7A8330D2D
:1060B0009B01B38A970183480D000547050D85466E
:1060C00009466C001305800723063101A306110160
:1060D000EF507027E391AAFF0547854609466C00FB
:1060E0001305800723167101EF50F02505478546FB
:1060F00009466C0013058007A30621012306010051
:10610000EF5070240547854609466C00130580074B
:10611000A306410123060100EF50F022138A8C00F0
:1061200097C700009387C7A15A9A3389970183477D
:106130000A000547050A854609466C0013058007D5
:1061400023063101A306F100EF50F01FE31149FFD0
:1061500083CA040021041374F40F63850A008504C4
:10616000E3109CEEED7A17C900001309F9DE9304E1
:1061700090071944938A0A7097BB0000938B8B7722
:1061800017BB0000130B6B7793090004130A20035D
:1061900093178401E18763C60708054785460946CA
:1061A0006C001305800723165101EF50D019935747
:1061B000440093E707010547854609466C0013052F
:1061C0008007A306F10023060100EF50D017937754
:1061D000F4000547854609466C00130580078114C5
:1061E00093F4F40FA306F10023060100EF50B0155D
:1061F00093971400A6978607338CFB00B304FB002B
:1062000083470C000547050C854609466C001305BD
:10621000800723063101A306F100EF50D012E3916D
:1062200084FF8344090019041374F40F81C4050921
:10623000E31044F7B640264496440649F259625AA0
:10624000D25A425BB25B225C925C025DF24D6161AC
:1062500082801D71CEC697B900009389A969A6CA2C
:10626000CAC8D2C4D6C2DAC05EDE86CEA2CC62DC98
:1062700066DA9304200B17B9000013090968856BCF
:106280004E8A930A0004130B600B054785460946A6
:106290000C101305800723000102A3009102EF50A8
:1062A000900A0547854609460C1013058007231000
:1062B0007103EF5050090547854609460C10130538
:1062C00080072310010217B400001304A462EF50EA
:1062D00090078347842205470504854609460C102C
:1062E0001305800723005103A300F102EF50B0050E
:1062F000E31189FE850493F4F40FE39864F9130421
:10630000000B056C930B0040930A0004130B800BE9
:106310000547854609460C10130580072300010236
:10632000A3008102EF5030020547854609460C1054
:106330001305800723108103EF50F00005478546C1
:1063400009460C101305800723107103CE84EF500B
:10635000807F83C7842205478504854609460C1043
:106360001305800723005103A300F102EF50A07D25
:10637000E31199FE05041374F40FE31B64F997CB42
:106380000000938BBBB69304B007A14AED7C130BBE
:106390000004130C400393978A01E18763C5070843
:1063A0000547854609460C10130580072310910305
:1063B000EF50607993D74A0093E707010547854678
:1063C00009460C1013058007A300F1022300010207
:1063D000EF50607793F7FA000547854609460C10A1
:1063E00013058007A300F102811423000102EF507E
:1063F000807593F7F40F93941700BE9486043304CA
:106400009A00CA9483470400054705048546094657
:106410000C101305800723006103A300F102EF5065
:106420008072E39184FE83C40B00990A93FAFA0FF9
:1064300081C4850BE3918AF7ED7C97CB0000938BA9
:106440007BAC9304D007A14A938C0C70130B00040F
:10645000130C400393978A01E18763C5070805473A
:10646000854609460C101305800723109103EF5051
:10647000806D93D74A0093E7070105478546094693
:106480000C1013058007A300F10223000102EF5056
:10649000806B93F7FA000547854609460C101305F3
:1064A0008007A300F102811423000102EF50A069CC
:1064B00093F7F40F93941700BE94860433049A0064
:1064C000CA948347040005470504854609460C1015
:1064D0001305800723006103A300F102EF50A066BB
:1064E000E39184FE83C40B00990A93FAFA0F81C4E6
:1064F000850BE3918AF717E5FF1F035565A1EFA010
:106500002041EFA0C04D17C400001304A49D10400B
:10651000544097EBFF1F938B7BA9BD4AEF80807996
:10652000EFA0A056AA86054691450810EFF0AF816E
:1065300017E5FF1F0355E59DEFA0803DEFA0204A22
:1065400010405440EF800077EFA02054AA86914578
:1065500008080546EFE03FFF1408101097C500003B
:106560009385C59B17E5FF1F130545A4EFA0407B4E
:1065700097E4FF1F83C484A3CDC8ED7C938C0C608B
:10658000130B0004130CB00393978A01E18763C5D2
:1065900007080547854609466C0013058007231642
:1065A0009101EF50405A93D74A0093E707010547FE
:1065B000854609466C0013058007A306F1002306F3
:1065C0000100EF50405893F7FA0005478546094609
:1065D0006C0013058007A306F10081142306010057
:1065E000EF50605693F7F40F93941700BE9486040F
:1065F00033049A00CA94834704000547050485467E
:1066000009466C001305800723066101A306F1000B
:10661000EF506053E39184FE83C40B00990A93FA10
:10662000FA0F81C4850BE3918AF7ED7C97CB0000CC
:10663000938B9B8F9304E007B14A938C0C50130B00
:106640000004130C800393978A01E18763C5070850
:106650000547854609466C001305800723169101FE
:10666000EF50604E93D74A0093E7070105478546F0
:1066700009466C0013058007A306F10023060100FC
:10668000EF50604C93F7FA000547854609466C00C9
:1066900013058007A306F100811423060100EF50C3
:1066A000804A93F7F40F93941700BE948604330442
:1066B0009A00CA94834704000547050485460946A5
:1066C0006C001305800723066101A306F100EF505B
:1066D0008047E39184FE83C40B00990A93FAFA0F72
:1066E00081C4850BE3918AF7056B930B0B70130440
:1066F000000B130B0BC0130A0004930A800B054711
:10670000854609466C001305800723060100A30691
:106710008100EF5040430547854609466C0013054C
:10672000800723167101EF50004205478546094650
:106730006C001305800723166101CE84EF50A04042
:1067400083C7842205478504854609466C001305E6
:10675000800723064101A306F100EF50C03EE3117C
:1067600099FE05041374F40FE31B54F9F6406644D4
:10677000D6444649B649264A964A064BF25B625CC5
:10678000D25C256182805D7117D5FF1F0355457767
:1067900086C656DAA2C4A6C2CAC04EDE52DC5AD899
:1067A0005ED662D466D26AD06ECEEFA06016EFA03D
:1067B000002397B700009387E7729043D443EF809C
:1067C000604FEFA0802CAA860946954517D5FF1F7C
:1067D0001305C57DEFE03FD797DAFF1F83CA0A7D17
:1067E00063880A14ED7B938D0B2097D4FF1F93844D
:1067F000F47B17DCFF1F130C9C7E7D4417BB00004D
:10680000130B0B3393090004938B0B309317840104
:10681000E18763C507100547854609466C001305E7
:1068200080072316B10113594400EF50C0310547CA
:10683000854609466C001369090113058007230684
:106840000100A3062101EF500030137AF400054740
:10685000854609466C001305800723060100A30640
:106860004101EF50402E93870AFE93F7F70F939C58
:10687000470097B700009387272C330D9B01B38AFD
:10688000970183480D000547050D854609466C00B4
:106890001305800723063101A3061101EF50A02A3A
:1068A000E391AAFF0547854609466C00130580075A
:1068B00023167101EF5020290547854609466C00D3
:1068C00013058007A306210123060100EF50A0272E
:1068D0000547854609466C0013058007A30641015C
:1068E00023060100EF502026138A8C0097B7000082
:1068F000938707255A9A3389970183470A000547EA
:10690000050A854609466C001305800723063101F8
:10691000A306F100EF502023E31149FF83CA0400CE
:1069200021041374F40F63850A008504E3109CEEC0
:1069300097D5FF1F83C5155B9307C04E1306E0472D
:106940003386C50217D5FF1F0355A55B17D9FF1F57
:106950001309D96513048004B385F5024206418208
:10696000C205C181EFE05FB597B700009387C7F715
:106970008C43EF905000EF90F0671376F50F97B5CA
:1069800000009385E56A17D5FF1F13052562EFA068
:10699000203997D4FF1F83C46461F1C0ED7A938AD4
:1069A0000A3097BB0000938BEBF417BB0000130B6E
:1069B000CBF493090004130A400793178401E1877D
:1069C00063C607080547854609466C00130580071E
:1069D00023165101EF5020179357440093E7070106
:1069E0000547854609466C0013058007A306F1009C
:1069F00023060100EF5020159377F40005478546E4
:106A000009466C0013058007811493F4F40FA30664
:106A1000F10023060100EF50001393971400A6978E
:106A20008607338CFB00B304FB0083470C0005474B
:106A3000050C854609466C001305800723063101C5
:106A4000A306F100EF502010E39184FF8344090076
:106A500019041374F40F81C40509E31044F797D7A0
:106A6000FF1F83C7A74A0D47638EE714638707128A
:106A700017B600001306865C97B500009385455C49
:106A800017D5FF1F13058552EFA0802917D4FF1FCC
:106A90000344C45165C46D7A17D9FF1F13091951F6
:106AA0009304E005130A0A6017BB0000130B8BE484
:106AB00097BA0000938A6AE493090004930BA00834
:106AC00093978401E18763C2070A05478546094613
:106AD0006C001305800723164101EF50C00693D7C1
