:081000006F10007298CC000093
:10100800000000000000000090200020182C0020A4
:10101800A9BDF9F5942000200000000000000000A0
:10102800962000209820002000000000000000000A
:101038009A200020000000009C20002000000000F2
:101048009E200020A0200020A2200020A420002014
:10105800A6200020A8200020AA200020AC200020E4
:10106800AE200020B0200020B2200020B4200020B4
:10107800202D0020B82000203A2D0020BC20002080
:10108800BE200020C0200020C2200020C420002054
:1010980001A001A001A001A001A001A001A001A040
:1010A80001A001A001A001A001A001A001A001A030
:1010B80001A001A001A001A001A001A001A001A020
:1010C80001A001A001A041118146014681451145B9
:1010D80006C6EF10602DB727004011472383E7802D
:1010E800B7F700E003A707D16D9B23A8E7D003A7B4
:1010F80007D15D9B23A8E7D07300501001000100C1
:10110800B240410182804111814601468145114525
:1011180006C6EF106029B727004011472383E780F0
:10112800B717004083C6E70203C6E70483D78703DF
:10113800116793F6F60F1366360063E5E700F19A38
:1011480093E6160073270080218B9727000093876A
:1011580027A919CB732700809725000023A2E5A8AB
:1011680098435D9B7310078001000100371700400A
:10117800930570052300B704930580FA2300B7048C
:10118800010001002302070223000704F325008061
:101198009843218B4D8F7310078017270000232158
:1011A80007A40100010073270080218B19CB732746
:1011B80000809725000023A5E5A298435D9B731046
:1011C80007800100010037170040930570052300D0
:1011D800B704930580FA2300B70401000100230730
:1011E800D7022307C70423000704F3260080984387
:1011F800218B558F73100780172700002322079E25
:101208000100010073270080218B19CB7327008010
:101218009726000023A6E69C98435D9B73100780E1
:101228000100010037170040930670052300D7041A
:10123800930680FA2300D704010001008346B7040F
:1012480093E60602A305D70423000704F3260080CB
:101258009843218B558F731007801727000023218F
:1012680007980100010037F700E0832607D193E6CD
:1012780046002328D7D0832607D1DD9A2328D7D044
:10128800730050100100010073270080218B19CBD7
:10129800732700809726000023A4E69498435D9B5B
:1012A800731007800100010037170040930670058E
:1012B8002300D704930680FA2300D7040100010015
:1012C8008346B70493F6F60DA305D7042300070455
:1012D800732700809C43A18BD98F73900780972731
:1012E800000023AF078E01000100B2404101828057
:1012F8000111B7F5070022CC81460A862A84E10548
:10130800194506CE26CA4AC802C023120100EF10AA
:10131800A009B717004083C6E70203C6E70483D7CE
:101328008703116793F6F60F1366360063E5E70047
:10133800F19A93E6160073270080218B1729000085
:101348001309098A01CFF3270080172700002329F2
:10135800F78883270900DD9B73900780010001004F
:1013680037170040930770052300F704930780FAA6
:101378002300F704010001002302070223000704E9
:10138800F327008003270900218B5D8F73100780E6
:101398009727000023A60784010001007327008017
:1013A800218B01CFF327008017270000232AF7821B
:1013B80083270900DD9B7390078001000100371720
:1013C8000040930770052300F704930780FA230071
:1013D800F704010001002307D7022307C7042300ED
:1013E8000704F327008083260900A18ADD8E739005
:1013F80006809717000023A5077E01000100B7F7B4
:1014080000E083A607D193E6460023A8D7D08357E8
:1014180007026577110793F70760C18FD98FC20755
:10142800C183010073270080218B01CF73270080BF
:101438009716000023A6E67A032709005D9B731020
:10144800078001000100371700409306700523004C
:10145800D704930680FA2300D704010001008346CD
:10146800F70093E60604A307D7008346B70493E67C
:101478000602A305D7042310F702230007047327E5
:10148800008083270900A18BD98F73900780971755
:10149800000023A7077401000100B7F4070037F420
:1014A80000E0E104832704D1DD9B2328F4D07300F6
:1014B8005010010001001305C012EF00100381460F
:1014C8003000A685194502C423160100EF00D06D2F
:1014D80022478247E318F7FCF3270080A18B81CFCE
:1014E800F327008017170000232CF76E83270900C5
:1014F800DD9B7390078001000100B71700401307B8
:1015080070052380E704130780FA2380E7040100AD
:10151800010003C7B7041377F70DA385E7042380F9
:1015280007047327008083270900A18BD98F739044
:1015380007809717000023A5076A0100010051459D
:101548006D27F2406244D2444249056182804111CC
:1015580026C281460146AA848145114506C622C491
:10156800EF009064B717004003C7E70283C6E7049B
:1015780083D7870311661377F70F93E6360063E581
:10158800C700719B13671700F3270080A18B1714FE
:1015980000001304E46499CBF327008017160000B9
:1015A8002320F6641C40DD9B739007800100010036
:1015B800B7170040130670052380C704130680FA86
:1015C8002380C70401000100238207022380070447
:1015D800732600801C40A18BD18F739007809717CA
:1015E800000023AF075E01000100F3270080A18BF4
:1015F80099CBF3270080171600002323F65E1C40C2
:10160800DD9B7390078001000100B71700401306A7
:1016180070052380C704130680FA2380C7040100DD
:1016280001002387E7022387D70423800704732751
:1016380000801C40A18BD98F7390078097170000FA
:1016480023A0075A0100010013055002BD2237F7F5
:1016580000E0832707D193E747002328F7D0F32733
:101668000080A18B99CBF32700801717000023294E
:10167800F7561C40DD9B7390078001000100B717E7
:101688000040130770052380E704130780FA2380BE
:10169800E7040100010003C7F70013670704A387E5
:1016A800E70023800704732700801C40A18BD98F93
:1016B800739007809717000023A4075201000100C8
:1016C800F3270080A18B99CBF32700801717000020
:1016D8002328F7501C40DD9B739007800100010010
:1016E800B7170040130770052380E704130780FA33
:1016F8002380E704010001002567D98C2390970215
:1017080023800704732700801C40A18BD98F739016
:1017180007809717000023A5074C0100010037F741
:1017280000E0832707D1DD9B2328F7D073005010F2
:10173800010001008146014681451145EF00D04670
:10174800F3270080A18B99CBF3270080171700009F
:101758002328F7481C40DD9B739007800100010097
:10176800B7170040130770052380E704130780FAB2
:101778002380E7040100010003C76704136717000B
:101788002383E70423800704732700801C40A18B70
:10179800D98F739007809717000023A3074401008F
:1017A8000100B240224492444101828085679387B8
:1017B80007770100FD17F5FF8280F3270080A18BD2
:1017C800171700001307C74199CBF3270080971616
:1017D800000023A7F6401C43DD9B7390078001009F
:1017E8000100B7170040930670052380D7049306BD
:1017F80080FA2380D7040100010083C6B70493F65A
:10180800F60DA385D70423800704732600801443AC
:10181800A18AD18E739006809716000023A2063CF9
:1018280001000100937605026382061883C7A700AA
:10183800918BB9EFF3270080A18B639207300100E9
:101848000100B7170040930670052380D70493065C
:1018580080FA2380D7040100010083C6A70093E61D
:1018680046002385D70023800704F32600801C4305
:10187800A18BD58F739007809717000023A2073696
:10188800010001009307004B01000100FD17EDFF67
:10189800F3270080A18B99CBF327008097160000CF
:1018A80023A0F6341C43DD9B7390078001000100E0
:1018B800B7170040930670052380D704930680FA73
:1018C8002380D704010001007D892394A70001002B
:1018D80001000100010023800704F32600801C4357
:1018E800A18BD58F739007809717000023AA072E26
:1018F80001000100F3270080A18B639707220100F4
:101908000100B7170040930670052380D70493069B
:1019180080FA2380D7040100010001000100B726E6
:10192800004013061005A383C68023800704F3260E
:1019380000801C43A18BD58F7390078097170000F8
:1019480023A0072A01000100F3270080A18B99CB6F
:10195800F32700809716000023A4F6281C43DD9B7C
:101968007390078001000100B717004093067005C7
:101978002380D704930680FA2380D704010001004E
:1019880083C6B70493E60608A385D7042380070413
:10199800F32600801C43A18BD58F7390078097177F
:1019A800000023AF0722010001008280937605041E
:1019B8006389061283C7A700C18BA5EBF3270080B4
:1019C800A18B99CBF32700809716000023AAF62055
:1019D8001C43DD9B7390078001000100B71700408E
:1019E800930670052380D704930680FA2380D704D2
:1019F8000100010083C6A70093E606012385D700EE
:101A080023800704F32600801C43A18BD58F739095
:101A180007809717000023A5071C01000100930702
:101A2800007D01000100FD17EDFFF3270080A18B69
:101A380099CBF32700809716000023A3F61A1C43BE
:101A4800DD9B7390078001000100B71700409306E3
:101A580070052380D704930680FA2380D7040100F9
:101A680001009376F50193E606042394D70001005C
:101A780001000100010023800704F32600801C43B5
:101A8800A18BD58F739007809717000023AA07149E
:101A98000100010093076004630EF50AF327008034
:101AA800A18B99CBF32700809716000023AAF61282
:101AB8001C43DD9B7390078001000100B7170040AD
:101AC800930670052380D704930680FA2380D704F1
:101AD80001000100B726004013062005A383C68035
:101AE800A9B5F3270080A18B99CBF327008097161F
:101AF800000023A7F60E1C43DD9B739007800100AE
:101B08000100B7170040930670052380D704930699
:101B180080FA2380D7040100010083D6870093E66A
:101B2800060C2394D70011B5F32700809716000000
:101B380023A8F60A1C43DD9B73900780C9B3F327DB
:101B480000809716000023ADF6081C43DD9B7390B8
:101B58000780F5B1F3270080A18B99CBF32700808C
:101B68009716000023AEF6061C43DD9B7390078092
:101B780001000100B7170040930670052380D704C1
:101B8800930680FA2380D70401000100B72600409D
:101B98000946A383C68051BB411181460146814550
:101BA800114506C6EF005000F3270080A18B971659
:101BB80000009386E60299CBF327008017170000F0
:101BC8002320F7029C42DD9B7390078001000100EF
:101BD800B7170040130770052380E704130780FA3E
:101BE8002380E7040100010003C767041367170097
:101BF8002383E70423800704732700809C42A18B7A
:101C0800D98F739007809717000023AB07FC01005A
:101C18000100B2404101828081460146814511455B
:101C28006127F3270080A18B17170000130747FBD4
:101C380099CBF32700809716000023A3F6FA1C43DC
:101C4800DD9B7390078001000100B71700409306E1
:101C580070052380D704930680FA2380D7040100F7
:101C68000100FD562396D70223800704F32600803F
:101C78001C43A18BD58F739007809717000023A171
:101C880007F601000100F3270080A18B99CBF32709
:101C980000809716000023A5F6F41C43DD9B739083
:101CA800078001000100B7170040930670052380E4
:101CB800D704930680FA2380D7040100010083C665
:101CC800670493E616002383D70423800704F326CA
:101CD80000801C43A18BD58F739007809717000055
:101CE80023A007F00100010001A0931715003E95FD
:101CF800060501007D1575FD828015C1411122C4BC
:101D080026C206C6AA840144050442044180793CDF
:101D1800E39C84FEB2402244924441018280828046
:101D2800B7170040130700032388E70285471717F2
:101D380000002325F7EE73002030011122CE26CCB7
:101D48004ACA4EC852C6974000E0E78060459317DC
:101D5800F5002A8463D5071493771500639A072C36
:101D68009317D40063D30724B70704009387670841
:101D7800E18F95CB9717000083C727EB1717000053
:101D88000347B7EA63E9E74C9717000083C707EAF8
:101D9800638E0740054597170000A38B07E8974017
:101DA80000E0E780803793770440639907308567C0
:101DB80013890780B379F400137704109164A1673D
:101DC800137A042033792401E18C7D8C55E7631C58
:101DD8000A0263170904639C0900B5E025EC724404
:101DE800E2445249C249324A056173002030056510
:101DF800974000E0E780203C9D4717170000230527
:101E0800F7E2E9DC2DA813050020974000E0E78001
:101E1800803A9147171700002308F7E0E30D09FA05
:101E2800056513050580974000E0E780C0389947AD
:101E380017170000230AF7DEE38109FA4DBF116581
:101E4800974000E0E7802037A14717170000230DCF
:101E5800F7DC51D42165974000E0E780C035724433
:101E6800A547171700002301F7DCE2445249C2498D
:101E7800324A05617300203013050010974000E0D6
:101E8800E78060330545974000E0E78000299547E3
:101E980017170000230AF7D8E30D0AF2ADB79377B6
:101EA8002500B1C7B707040093870708E98F638A3D
:101EB8000718971700009387E7D711479C43971691
:101EC8000000A387E6D617170000A30207D6171746
:101ED8000000230F07D481CF9C4391CB97150000B6
:101EE800938505D5171500001305C5EE829793173E
:101EF800D4009374044063C5071693770404B1C7EC
:101F0800171700000347A7D2FD4763EEE72497178A
:101F180000009387C7D103C907001379F90F930706
:101F28001900171700002304F7D0974000E0E78056
:101F38004026971700009387E7E73E992300A900FA
:101F48000545974000E0E780A01F9377040195CFEF
:101F5800375700408357078093E717002310F7800F
:101F680097170000938707CD9C4381CFDC4391CB23
:101F78009715000083C5A5CB17150000130585E349
:101F8800829797170000238407CAE38204E2370583
:101F9800001013050540974000E0E780C021054583
:101FA800974000E0E780C01919B59377240081CFE6
:101FB8009717000083C777C7638D071A05459740B1
:101FC80000E0E780E01793770404639007129377A3
:101FD8000440E38E07DC37050010130505409740E1
:101FE80000E0E780401D9714000083C404C4938771
:101FF800140017170000230AF7C2974000E0E78093
:102008004019971700009387E7D8A6972380A70061
:102018009717000083C787C1638B071E054597176D
:102028000000A38707C0974000E0E780000F41B396
:1020380017150000034595BF974000E0E780C014DE
:1020480005B38D4717170000A304F7BE97170000C4
:10205800238F07BC9317D40093740440E3DF07E889
:102068000545974000E0E780A00D639F0410937733
:102078004408E38E07D29717000083C757BB17178A
:1020880000000347E7BA63F7E7169717000093873E
:1020980017BA83C70700171700001307A7D393F7CA
:1020A800F70F3E9703450700850717170000A300A1
:1020B800F7B8974000E0E780200DD5B93705001044
:1020C80013050540974000E0E780E00E8D4717179D
:1020D8000000230BF7B4054597170000A38A07B43F
:1020E800974000E0E7806003D9B19714000083C4EB
:1020F800C4B393871400171700002308F7B297405A
:1021080000E0E7800009971700009387A7C8A69703
:102118002380A70017170000034737B1971700005F
:1021280083C7A7B063EFE70C0145974000E0E7805D
:1021380020019717000083C7C7AF63870714971755
:102148000000238807AE9717000083C727AE638374
:1021580007140545974000E0E78020FC971700002A
:10216800A38807ACADB50145974000E0E78040FD86
:10217800E9BB0145974000E0E78080FC85471717D9
:1021880000002308F7AA81B537050010130505409C
:10219800974000E0E78020020545974000E0E7808F
:1021A80020FA97170000A38507A815B98547814528
:1021B8001305004017170000A308F7A6974000E092
:1021C800E78060FA814513050020974000E0E7802A
:1021D80080F9814513050010974000E0E780A0F8DA
:1021E8000545974000E0E780E0F097170000A381DD
:1021F80007A455BE1305F00F974000E0E780C0F82C
:102208007DB60545974000E0E78080F3C9B3854770
:1022180081451305004017170000A307F7A0974052
:1022280000E0E78040F4814513050020974000E076
:10223800E78060F3814513050010974000E0E780D0
:1022480080F20545974000E0E780C0EA9717000054
:10225800A380079EA9BE971700009387079D83C791
:102268000700171700001307E7B293F7F70F3E9719
:10227800034507008507171700002308F79A9740BA
:1022880000E0E78060F005B68547171700002302D5
:10229800F79A35BB8547814513050040171700009D
:1022A800A304F798974000E0E780E0EB8145130529
:1022B8000020974000E0E78000EB814513050010FF
:1022C800974000E0E78020EA0545974000E0E78076
:1022D80060E297170000A38D0794D5B9411122C475
:1022E80006C6370400201C408297F5BF23030480EC
:1022F80015472303E48001002302A480828083071A
:102308006480E3CE07FE2303048082808307648011
:10231800E3CE07FE03454480828083076480E3CED2
:1023280007FE2302A4808280411126C44AC24EC0FF
:1023380006C61377F50BAD47AA892E89954463061F
:10234800F70019456537653F8D444E854537FD597A
:10235800FD1463983401B240A244124982494101F4
:102368008280135509011375F50F453F2209CDB732
:10237800011126CC06CEB704080051371545BD37E4
:10238800713769372AC6A53F32459377150089EB1F
:10239800136515001375F50FF240E244056182805C
:1023A800FD14E9FC0145CDBF397126DC4ADA4ED867
:1023B80052D656D45AD25ED006DE62CE66CCB7E785
:1023C80000E07D5783AA070022C603AA470023A07E
:1023D800E71823A2E718B7170040130770052380F2
:1023E800E704130780FA2380E70483C74704930BA5
:1023F80075FFB684E20793FBFB0F8546AA892E8BEF
:10240800328937240040E187015763FA760163086F
:10241800D5008946130700026313D5000157D98FE9
:1024280093F7F70FB71C00402382FC0411472303DE
:10243800E4801305F00F5D3D094CD135636D7C11C7
:10244800B7050700DA9537870700795563F2E50481
:10245800B3879500636EF702370B0800A94733EB83
:1024680065016399F90689E48144513D26850DA0EB
:10247800DA850945553D05090345F9FFFD14050BA6
:10248800693D81C49377FB0FFDF7DD3569FD7D5507
:10249800B7170040130770052380E704130780FA75
:1024A8002380E70403C74704418B2382E704F250E3
:1024B800B7E700E023A0571123A24711E2543244A2
:1024C8005259C259325AA25A125B825B724CE24C80
:1024D80021618280A5476395F90685691309F00F84
:1024E800B3069900B3742B01B6941349F9FFB3747A
:1024F8009900856B33796901416B9387F9FFB3F7CD
:10250800270199E363FC340193D94900C147E3E605
:1025180037FF99BF0569C1697D19D9B71305800DC2
:1025280063886901130500026384790113051008A3
:10253800CA85DD3B353D21DD4E99B3843441D9B799
:10254800DA852D45D533CA94E30099F205097D3B18
:10255800A30FA9FED5BF9387F9FF93F7F70F636120
:10256800FC0C83C71C0413073008631FF7043707E4
:102578000800636BEB04B3079B00B706100063F514
:10258800D704334BEB0089476393F9068980D54913
:10259800E38C04ECDA850945413B11090327C9FF9F
:1025A80091472320E48003076480E34E07FE23035A
:1025B8003481FD17EDFBFD14110B81C49377FB0FDC
:1025C800E9FF7D3371F5E1B5B717004003C757043C
:1025D800B70708001377070219E3B787070079558B
:1025E800E378FBEA33079B00E3FFE7F855B5854737
:1025F800E382F9F2DA852D45053B9389F4FFE385FB
:1026080004E6293393F7390091EB832604800327E6
:10261800090093074900E39AE6E43E89CE84F1BFB6
:10262800B5476396F9001305900BC93135BDB1471D
:102638001305B00AE38BF9FE99476391F904B705CE
:102648000800B365BB002D45C53181448D4BA149B8
:10265800753963967401832704802320F900850463
:10266800E39834FF8327048013172B016355070071
:102678002312F900D5BB2322F900FDB39D476399C6
:10268800F90281451305B0044531BD4423200900F2
:1026980023220900FD599D3993F77400CA9703C78F
:1026A8000700FD14398D2380A700E39634FF6DBB26
:1026B800A1476392F9046D398144630D0B008D477E
:1026C8009304C0036308FB009304000563048B01B3
:1026D800930440041375C507E30895D819453931A3
:1026E80039390545213126850D3909453D314931AD
:1026F800E31C05D669BB91476399F9001305600689
:10270800F536F53E130590090DB7E38F09D4F1545A
:04271800A9BB000059
:10272000970100209381018E176100201301818D94
:1027300017F5FFFF1305858D970500209385858C80
:1027400017160020130646FD63FAC5008322050014
:1027500023A0550011059105E3EAC5FE17A5000069
:102760001305055497150020938505FB17160020C7
:102770001306464663FAC5008322050023A05500D0
:1027800011059105E3EAC5FE1715002013058544E0
:1027900097350020938585EF6377B50023200500EA
:1027A0001105E36DB5FEFD42739002BC8D4273903E
:1027B0004280B72200009382828873A00230970281
:1027C00000209382228493E23200739052309772F9
:1027D000000093826248739012346FD073027300CA
:1027E0002030411106C6EF60001AEF30407FB24042
:1027F0004205418541018280797122D485452A8430
:10280000014506D626D24AD04ECEEF308076EF3044
:10281000006D1374F40FB7170040238C8704AA844B
:1028200040001309E100EF3080792310A40009046F
:10283000E31B89FE95468147139717004C0013064A
:1028400027002E962E97835507000355060085070F
:1028500093F7F70F6376B5002310A7002310B60097
:10286000E3CCD7FCFD16E1FA03558100EF80B041BF
:102870002A892685AE89EF80F0392A86AE864A8578
:10288000CE85EF70807A97A700009387A7E09043EA
:10289000D443EF70906C97A70000938727E0904394
:1028A000D443EF80003797A700009387A7DF9043BA
:1028B000D443EF70906AEF803030B250225442051A
:1028C00092540259F2494181456182803717004094
:1028D0008327C70A9D668145D58F2326F70A1D6584
:1028E0006F40604E17170020130787358347870214
:1028F000B337F000A309F7022309F7028280971784
:10290000002083C76736638EA70641119717002002
:10291000238CA73422C406C689472A8463F5A702FC
:102920008547630EF4024DC489476307F4088D4759
:10293000630AF4042244B240171500200345C5324F
:1029400041016F20407EB7070400BC4B914517152D
:1029500000200345252882978547E316F4FC0145AE
:10296000EF30601F2244B240930740061717002043
:10297000231DF72E171500200345052F41016F2059
:10298000807A82800545EF30001D971700209387DD
:10299000272B03D707032244B24093172700BA9787
:1029A0008607171700202312F72C17150020034560
:1029B000A52B41016F2020770145EF30C01922443B
:1029C000B240171500200345252A41016F20A0754C
:1029D0000545EF3040182244B240930740061717D0
:1029E00000202314F728171500200345E52741018F
:1029F0006F206073411106C621C59717002083C759
:102A0000A726A5C3B7070400BC4B914517170020A4
:102A1000230C0724171500200345C51B8297054585
:102A2000EF306013B2409307400617170020231EB3
:102A3000F722171500200345252341016F20A06EC2
:102A400017170020035787219717002083D72722C5
:102A50006379F7001717002003470721894763159B
:102A6000F700B2404101828037070400384B91459E
:102A700097160020238AF61E17150020034585159A
:102A800002970145EF30200DB24017150020034595
:102A9000A51D41016F202069411106C617170020AE
:102AA0000357A71C9717002083C7071C0DCB7D1762
:102AB00042074183971600202399E61A954663ED55
:102AC000F60097A60000938666BE8A07B6979C43D9
:102AD000B69782876308071CB24041018280154780
:102AE000E36CF7FE17A700001307C7BD8A07BA9764
:102AF0009C43BA97828717170020034777149317D0
:102B00002700BA978607171700200357271697162E
:102B1000002083D6C6143E97634CD70017170020B9
:102B20000357C71363F0E61EB306D74063DCD71C18
:102B3000B7070400BC4B9145171700202306071266
:102B4000171500200345050982970545EF30A000C1
:102B5000930740061715002003450511171700209D
:102B60002315F710EF20205C9717002083D7E70F7D
:102B7000A5F7171700200347270F8547E30EF7F443
:102B8000B7070400BC4B0547914597160020238DDD
:102B9000E60C171500200345E503829701459DA823
:102BA000130720499717002083C79709B387E702C7
:102BB000171700200357A70A635AF70091471145DA
:102BC000171700202302F70AEF20E055971700207F
:102BD00083D7A709E39207F01717002003572709A7
:102BE0009717002083D7A707E378F7EE9717002001
:102BF00083C78707E38207EEB7070400BC4B914504
:102C0000171700202302070617150020034585FC2F
:102C100082970545EF203074171500200345C50441
:102C200093074006B240171700202310F704410114
:102C30006F20604F1717002003572703E31E07E894
:102C4000171700200357A7029717002083D72701E3
:102C5000E374F7E855B79307E0479716002083C65B
:102C600036FEB386F6029717002083D747FF63DE50
:102C7000D70095471545171700202307F7FEEF20CB
:102C8000804A17170020035747FEE31707E49717FA
:102C9000002083D7C7FC17170020035747FDE37DAB
:102CA000F7E2A9B717170020035747FB9717002033
:102CB00083D7C7FBE372F7E28D470545171700205E
:102CC0002304F7FAEF20306997170020938747F71E
:102CD00003D7070317150020034505F993172700AD
:102CE000BA97860781B79307E04717170020034775
:102CF00037F53307F7029717002083D747F6E3CA63
:102D0000E7F651BF9717002083D727F6E38A07E637
:102D1000E1B3411122C4370404008327040806C626
:102D200026C2172500001305E5EA829797140020B4
:102D3000938444EA2380A400EF20F052130520047A
:102D4000EF60C04BEF20F05AEF20506BEF200056A1
:102D5000EF208053EF20B06AEF20C01161363C486D
:102D600003C50400854517140020130464ED829701
:102D70009307C0127D552315F40085472308F40AF4
:102D800023040400EF20A050EF20A050034584024C
:102D9000D1472315F4009347F5FF2304F40222449E
:102DA000B24092444101A1BE41119307C01222C416
:102DB0002A8417170020231AF7E897170020238585
:102DC00087E885477D55171700202303F7F206C6CD
:102DD000EF20E04B9307700263E2871E17A7000005
:102DE0001307C78F0A043A941C40BA9782871717B3
:102DF0000020034787EF93573700858B9376770F33
:102E000099E39366870005469305F00F05459717EC
:102E10000020238CD7ECC5A8EF20A0471715002071
:102E2000034585E422445147B2409347F5FF971686
:102E30000020239CE6E0171700202307F7E241015A
:102E40007DBC0545EF20A0442244B24041016F20E3
:102E5000A0442244B240014541016F2040439717EE
:102E6000002083D787DF93067070054763F4F6046C
:102E70008566138676BB0947637EF602138676065F
:102E80000D476379F60293867651114763F4F60293
:102E900089661386769C1547637EF600138676E76F
:102EA00019476379F60093867632B3B7F600FD17BB
:102EB00013F7770097170020A384E7D8EF20202F7F
:102EC00029479717002083C747E297160020A3835E
:102ED000E6E293E787001307400601A89717002052
:102EE00083C7A7E093E78700794797160020239EC2
:102EF000E6D417170020230AF7DEEF20A039054695
:102F00009305F00F05452244B24041016F20202D6A
:102F1000EF20E038EDB7EF20A038D5B797170020A5
:102F2000938707D283D7A7012244B2401717002006
:102F30002319F7D241016F200037EF202036C1B7A7
:102F4000EF2080366DBFEF20403655BFEF20A03414
:102F50007DB72244B240410117030020670003C43B
:102F6000171700200357C7CF97170020938747CD27
:102F70000DE783D6870103D7A7011306004B9717E8
:102F8000002083C7F7CBB387C7026373D7003687A8
:102F9000998F171700202315F7CC97170020239A35
:102FA00007D4EF20805C05469305F00F0545EF2020
:102FB0000023A947171700202319F7C8B24022445D
:102FC000410182800145EF201039EF20602C01463D
:102FD00005BFB7070400BC476146814517150020AF
:102FE000130595CB17170020230807CA8297EF20F7
:102FF000602B9717002083C747CF93E707F8054654
:103000009305F00F0545171700202300F7CEE5BD07
:1030100097170020238007CEEF20A028CDB54111BF
:1030200006C617170020035767C49717002083C7E9
:1030300037C135C161C39306A05AB386D702635D19
:10304000D708290701468545094597170020239F82
:10305000E7C0EF20C0189716002083C676BE9307FE
:103060002003B387F60217170020035727C017164F
:1030700000200356C6BFBA97635EF602930720038B
:10308000B386F602B2403697971700202391E7BE29
:1030900041016F20A0209306E047B387D70263CF9A
:1030A000E70005468945054597170020239007BC92
:1030B000EF20E012B24041016F20401E5917014637
:1030C00085450545971700202392E7BAEF20201188
:1030D000B24041016F20801C1307A05AB387E7025A
:1030E000054689450945171700202311F7B8EF2039
:1030F000000F95B71307E047B387E7020146854500
:103100000945171700202313F7B6EF20400DB240F2
:1031100041016F20A0188347450091E3828041114F
:1031200022C426C24AC006C6230205009714002006
:10313000938404B183D784042A841309C012171717
:1031400000202316F7BA17170020231027B1EF200D
:1031500020150344140085476304F40C09476308F1
:10316000E400B24022449244024941018280171790
:103170000020034787B16316F7021307C05D971756
:10318000002083C7F7ABB387E70217170020231F80
:1031900007AC17170020231D27AD17170020231891
:1031A000F7AC9307C012171700202310F7AA930754
:1031B0001002171700202309F7A87D558547171718
:1031C00000202307F7B2EF20800C9717002083D749
:1031D00027A98DE783D6840103D7A4019717002080
:1031E00083C717A61306004BB387C7026373D700C4
:1031F0003687998F171700202314F7A697170020FA
:10320000239907AEEF20603605469305F00F05457C
:10321000EF10F07CA947171700202318F7A291B7E9
:10322000014685450945EF10907B9717002083C71D
:1032300077AC85DBFD1793F7F70F17170020A30B6B
:10324000F7AA85F397170020239127A1930760021F
:103250007D55171700202309F79E97170020238913
:1032600087A8EF20C00297170020238507A8EF202A
:1032700040032244B2409244024905469305F00FB0
:10328000054541016F10B07583474500A1CB011181
:1032900056C206CE22CC26CA4AC84EC652C45AC00E
:1032A0009307C0122302050017170020231FF79869
:1032B000834715000547971A0020938A6A98638010
:1032C000E7028946638FD712F2406244D2444249F2
:1032D000B249224A924A024B056182808280971449
:1032E000002083C4649B171B0020130BFB9AF9C0BA
:1032F000FD1493F7F40F93941700BE94171B00204E
:10330000130B9B99860497170020938757995A842B
:10331000BE94370A040097190020938969970549DC
:1033200019A0638584088327CA03A28519464E85A0
:1033300082971904E31725FF014685450945EF10DB
:10334000106A9717002083C7F79ABDDFFD1793F720
:10335000F70F17170020A30FF798BDF79307C012B8
:103360007D55171700202312F78E93076002171759
:103370000020230BF78C97170020238B2797EF1043
:1033800010719717002023870796EF109071624401
:10339000F240D2444249B249224A924A024B05467F
:1033A0009305F00F054505616F10706397140020B9
:1033B00083C4848E13951400B7070400FC47269538
:1033C00006051946971500209385858C5A95829796
:1033D00083C78A052147850793F7F70F638BE708B3
:1033E00017170020230AF78AEF10D06B0546854592
:1033F0000945EF10D05EA94717170020A30CF78EE0
:10340000E1B5930710027D5597160020238EF682B2
:1034100097170020238EE78CEF1070679717002016
:1034200083D707848DE783D68A0103D7AA0197172C
:10343000002083C7F7801306004BB387C70263736E
:10344000D7003687998F17170020231BF78097170F
:1034500000202390078AEF20401105469305F00FC6
:103460000545EF10D057A94717070020231FF77C09
:10347000A1BD9717002023810782BDB7411122C447
:1034800006C626C29707002083D7277C1704002092
:103490001304047B91C7FD17170700202317F77A41
:1034A0009707002083C7A77E89CBFD1793F7F70FF7
:1034B00017070020230DF77CADCB9707002083C7AB
:1034C000A77813077002636DF704179700001307BE
:1034D000E72A8A07BA979C43BA9782879707002002
:1034E00083C7E77D0947E39CE71A9717002083C746
:1034F000278099E36F1020489707002083C7777CC7
:1035000021476385E7004147E399E72097070020BB
:103510002380077E9307C012170700202317F77236
:10352000B240224492444101828097070020A38E3A
:103530000774EF20406C51B79707002083D7E770DE
:10354000E38207329707002083C7A778094763946F
:10355000E7006F10C0179707002083C72778094737
:10356000E390E7FC1707002003479777E31AF7FA81
:103570002244B24092443D4541016FF0FF82EF107A
:10358000D051EFF06FD1EF10D0159707002083C70F
:10359000877395CF9707002023870772970600202F
:1035A00083C6E67109479707002083C79771639424
:1035B000E6006F10C00B21476395E7000545EFF06B
:1035C0006FC39307C012170700202310F7689707EF
:1035D000002083C7F76E95CF97070020A382076E60
:1035E0009706002083C6F66D09479707002083C71A
:1035F000076D6394E6006F10C00121476395E700F3
:103600000145EFF02FBF9307C01217070020231EBC
:10361000F7629707002083C7F76B85C797070020DD
:10362000A38A076A170700200347B769894763140D
:10363000F7006F10600B9307C012170700202316C6
:10364000F7609707002083C75768E393072A970717
:10365000002083C7E76799CB170700200347176748
:10366000930700026314F7006F10E01F9707002014
:1036700083C7976799CB170700200347C76693074F
:1036800000026314F7006F1060249707002083D7AF
:10369000C75BE39707E89307C012170700202316BC
:1036A000F75A89477D5517070020230FF75885479C
:1036B00017070020230EF762EF10703D2244B2403E
:1036C0009244014541016F10903CEFF0EFBC970729
:1036D000002083C7475FB9C383473408170700201A
:1036E0002303075E0547FD1793F7F70F6368F7029B
:1036F0009307C0127D55970600202398F65497072C
:1037000000202383E754970700202383E75EEF1010
:1037100010380545EF10B037EF101038970700202C
:1037200083C7175AB9C38347E40717070020A309C3
:1037300007580547FD1793F7F70F6368F7029307DC
:10374000C0127D55970600202391F6509707002060
:10375000238CE74E97070020238CE758EF10303377
:103760000545EF10D032EF1030339707002083C7A4
:10377000D755B9C38347840817070020A307075408
:103780000547FD1793F7F70F6368F7029307C01219
:103790007D5597060020239AF64A97070020238537
:1037A000E74A970700202385E754EF10502E054580
:1037B000EF10F02DEF10502E9707002083C74751D0
:1037C0009DC7170700200347775093070002631037
:1037D000F702170700200347274989476309F700C5
:1037E0000545970700202385074EEFF0AFA0970708
:1037F000002083C7774FE38507D2170700200347D0
:10380000874E93070002E31DF7D0170700200347F8
:10381000A7458947E306F7D02244B2409244970770
:103820000020A383074C054541016FF0AF9C97072B
:10383000002083C7C748A146E389D71E4147E386D6
:10384000E71E0946E38CC70C9707002083C777471C
:103850002147E383E70E4147E380E70E094763947E
:10386000E7006F00B0751705002013057546EFF0EF
:103870009F8A1705002013050546EFF0DF8997079B
:10388000002083D7873CE39D07C83DAA1707002087
:10389000034737438947E315F7C817070020034755
:1038A00047438547E306F7CC170700200347074344
:1038B000E318F7C675B91707002003479740C147BB
:1038C000E308F7129707002083D72738E39A07C445
:1038D00085477D551307C012970600202397E636CB
:1038E000170700202302F736170700202302F740AE
:1038F000EF10F0190545EF1090192244B2409244A0
:1039000041016F1070199707002083C7473BA146FC
:10391000E381D7184147E38EE7160946E38AC702D9
:103920009707002083C7F7392147E381E704414720
:10393000E38EE7020947E38BE7689707002083C718
:103940007739E39C071C9707002083C70739BDC759
:10395000835784041304C01217070020230F07366F
:10396000170700202314F73817070020231F872C80
:10397000EF10F0129707002083C7F73505476394CF
:10398000E7006F10E00E8946639AD7029707002080
:10399000239D872AC9477D55970600202386F62A4E
:1039A000970700202386E734EF10700EEF10500FBA
:1039B00005469305F00F0545EF10700297070020AC
:1039C00083D7A728E39E07B49307C01217070020E8
:1039D000231DF726970700202388072685477D5556
:1039E000170700202306F730EF10700AEF10700A57
:1039F000170500200345452722445147B240924411
:103A00009347F5FF970600202391E624170700202F
:103A1000230CF72441016FE09FEE9707002083C736
:103A2000772B639007689707002083C7072B81CF08
:103A3000970700202383072A170700200347B72989
:103A40008547630BF7669707002083C7572981CF07
:103A500097070020A38507289707002083C707281A
:103A600005476383E7029707002083C7A727E38BF7
:103A700007E497070020238707269707002083C7BE
:103A800037260547E390E7E41307C01297060020A6
:103A9000239DE61A7D5513075002970600202385C3
:103AA000E61A170700202305F724EF10407EB7071A
:103AB0000400BC4761468145170500201305D51D4C
:103AC00017070020230A071C8297EF10A07D834769
:103AD000A40A05469305F00F93E707F80545170775
:103AE00000202304F720EF10806FE9BB9707002028
:103AF00083C7E71C09476387E768636CF748054796
:103B0000639BE7021307E0479707002083C757131B
:103B1000B387E7021707002003574715E3CCE758A0
:103B20000546894505459707002023910714EF10A6
:103B3000006BEF10A0769707002083C797180947FE
:103B4000E38DE748636BF77A0547E399E7E60545B8
:103B5000EFF0EFCCA5B59707002083C747160947BC
:103B60006386E7666365F74605476395E70297074F
:103B7000002083D7E70FE3880752938747FC01466D
:103B800085450545170700202314F70EEF10206523
:103B9000EF1080719707002083C7B7120947E387AA
:103BA000E722636CF7740547E39AE7E08357040361
:103BB0000567130707E19387C703C207C183970609
:103BC00000202397F60AE372F74C0546894509451C
:103BD00097070020239EE708EF106060EF10C06C8D
:103BE000F1BB9707002083C7870D0947638EE75A0B
:103BF000636DF74005476390E7028357240201464F
:103C00008545D917054517070020231CF704EF1039
:103C1000005DEF1040699707002083C7970A0947A6
:103C2000E382E736636BF76C0547E399E7D8835780
:103C3000240201468545A9070945170700202312DC
:103C4000F702EF10C059EF1000668DBB97070020F8
:103C500083D7A7FFE396078C9307C01217070020AE
:103C60002315F7FE9307000217070020230EF7FC29
:103C70007D55854717070020230CF706EF102061BC
:103C80002244B2409244410117F3FF1F670003F141
:103C90009707002083C7170499CF97070020A38BAD
:103CA00007029707002083C7A704E3880708970740
:103CB0000020238F07029707002083C7070299CFB0
:103CC00097070020238B07009707002083C7470230
:103CD000638B076A97070020238C07009707002053
:103CE00083C7F7FF639107369707002083C787FFD5
:103CF000E38A07BC97070020238607FE970700206A
:103D000083C707FF6387077E97070020238207FE8C
:103D100055BE9707002083C707FB99CF9707002060
:103D2000238307FA9707002083C787FCE38C071CCF
:103D300097070020238E07FA9707002083C757F8BC
:103D4000E38E07C697070020A38C07F6970700208D
:103D500083C707FAE382070897070020238A07F83A
:103D6000B1B917050020130555F7EFF0EFD117058E
:103D700000201305E5F6EFF02FD19707002083D739
:103D8000C7EC639F07F8A9B69707002083C7A7F37E
:103D900099CF97070020238807F29707002083C751
:103DA00027F56389077097070020238307F4970797
:103DB000002083C7F7F0E38307C097070020A381A3
:103DC00007F09707002083C7A7F2D9F797070020CD
:103DD00083C7E7EE0547E393E7BE1307C0129706D4
:103DE00000202394E6E67D55130710029706002075
:103DF000238CE6E417070020230CF7EEEF10204990
:103E00009707002083D7C7E58DE7835684010357C2
:103E1000A4019707002083C7B7E21306004BB387BE
:103E2000C7026373D7003687998F170700202319BD
:103E3000F7E297070020239E07EAEF10007305467C
:103E40009305F00F0545EF108039A94717070020AB
:103E5000231DF7DE6FF0CFEC0357A4018357240234
:103E60007D55998F17070020231CF7DE9307C0129A
:103E700017070020231BF7DC930710021707002009
:103E80002304F7DC8547170700202303F7E6EF102C
:103E900000409707002083D7A7DCC1FFBDB7636C44
:103EA000F70A05476392E7069706002083C656D9AE
:103EB0001307004B3387E6029707002083D727DBE1
:103EC000E354F72A1307E0FC3387E602D917C20749
:103ED000C18317060020231CF6D8170600200356BE
:103EE000E6D83E97635BC7001307E0FCB386E602A3
:103EF000B69717070020231BF7D6014685450545D1
:103F0000EF10E02DEF10603A9707002083C777DBB2
:103F10000947E387E7106362F73E0547E390E7AAA6
:103F20001307C05D9707002083C797D1B387E702C7
:103F3000170700200357A7D3E350F71629070146B8
:103F400085450945970700202393E7D2EF102029E4
:103F5000EF10A035A5B421476385E7004147E395FD
:103F6000E7FA97070020238507D89307C0121707A1
:103F70000020231CF7CC09479707002083C777D47C
:103F8000E386E70A6363F7380547E38BE7F86FF0EA
:103F90002FD921476385E7004147E39EE7B897079C
:103FA0000020238707D49307C01217070020231E81
:103FB000F7C809479707002083C7B7D0E385E70212
:103FC0006365F7340547E384E7B86FF06FD52147A1
:103FD0006385E7004147E39FE7BA970700202389FD
:103FE00007D09307C012170700202310F7C6094710
:103FF0009707002083C7F7CC6380E75E6367F730DD
:104000000547E385E7BA6FF0AFD121476385E70045
:104010004147E392E7C097070020238B07CC930723
:10402000C012170700202312F7C209479707002084
:1040300083C737C9638EE7746369F72C0547E38844
:10404000E7BE6FF0EFCD97070020A38A07C8970758
:10405000002083C7E7C96380073C970700202389B6
:1040600007C859B11307004B9707002083C757BDF6
:10407000B387E70217070020035747BE93878725BA
:1040800063CFE76A0345A40A1345F5FF05893305A5
:10409000A040EF107036EF5090037D5585476FF0CC
:1040A0007F8397070020A38707C2170700200347D5
:1040B00047C28547E319F7969307C01217070020F8
:1040C0002315F7B8C5477D5517070020230EF7B60F
:1040D000854717070020230DF7C0EF10401BEF1096
:1040E000001C05469305F00F0545EF10400FA1BADF
:1040F00097070020A38B07BC9707002083C7C7BC86
:1041000009476387E77E0547E388E7149307C012F2
:1041100017070020231BF7B26FF08FC0970700200E
:1041200083C707BDE380070C9707002083C777B9D3
:104130006384D7006399E7F297070020238A07BAC0
:104140009307C012170700202311F7B06FF0AFF1EB
:104150009707002083C7C7B9E38C0704970700209F
:1041600083C737B66384D7006399E7FC97070020BD
:10417000238007B89307C012170700202317F7AC56
:104180006FF0AFFB9707002083C787B6638707767A
:104190009707002083C7F7B221476389E7B64147F5
:1041A000E394E79A6FF08FB69707002083C747B470
:1041B000638F07769707002083C7B7B021476387CF
:1041C000E7B44147E392E7A66FF04FB497070020AA
:1041D00083C707B2E38507049707002083C777AE3C
:1041E00021476385E7B24147E39FE79A6FF00FB23B
:1041F0009307C012170700202319F7A4D1477D5554
:10420000170700202302F7A4854717070020230182
:10421000F7AEEF10C007EF10600805469305F00FEA
:104220000545EF00D07B6FF0EFE997070020238171
:1042300007AC9307C012170700202318F7A02147E7
:104240009707002083C7F7A7E388E7EE4147E38598
:10425000E7EE09476399E7E09307C01217070020CC
:104260002315F79ECD4717070020230FF79C7D5598
:10427000854717070020230DF7A6EF10400183574D
:10428000A40117070020231EF79CEF10C0016FF058
:104290008FDD97070020238D07A49307C01217070F
:1042A00000202314F79A21479707002083C777A19E
:1042B000E38EE7EA4147E38BE7EA0947639FE7E6D6
:1042C0009307C012170700202311F798C9477D559F
:1042D00017070020230AF7968547170700202309B0
:1042E000F7A0EF00D07AEF00B07B05469305F00F02
:1042F0000545EF00D06E6FF04FE421476388E7A0DB
:104300004147639DE7EA6FF06FA021476380E7A014
:104310004147638DE79E6FF0AFA0835784049304F9
:10432000C01217070020A307079A17070020231FB2
:10433000F79A17070020231A9790EF0050769707F7
:10434000002083C707990547638DE7708946639C02
:10435000D7DE97070020239A978EC9477D55970689
:1043600000202383F68E970700202383E798EF0031
:104370001072EF00F07205469305F00F0545EF004F
:1043800010666FF04FDC9707002083C7D79405476E
:104390006389E7728946E393D7949307C01297061F
:1043A00000202394F68A7D5593071002970600207B
:1043B000238CF68897070020238CE792EF00306D5E
:1043C0009707002083D7C7898DE783568401035759
:1043D000A4019707002083C7B7861306004BB38755
:1043E000C7026373D7003687998F170700202319F8
:1043F000F78697070020239E078EEF1000170546CB
:104400009305F00F0545EF00905DA94717070020C1
:10441000231DF782E1B09707002083C7278C05474B
:10442000638FE7728946E391D78C9307C012970692
:104430000020239CF6807D559307100297060020EC
:104440002384F680970700202384E78AEF003064F6
:104450009707002083D7C7808DE7835684010357D1
:10446000A40197F7FF1F83C7B77D1306004BB387DF
:10447000C7026373D7003687998F17F7FF1F231181
:10448000F77E9707002023960786EF10000E05465B
:104490009305F00F0545EF009054A94717F7FF1F4C
:1044A0002315F77A9707002083C7C783E39407840F
:1044B0006FF00F879707002083C7B7800547E39801
:1044C000E78E1307C0127D5597F6FF1F239FE676F0
:1044D0001307000297F6FF1F2388E67617070020D0
:1044E0002308F780EF00B05A97E0FF1FE780006BCA
:1044F0007DB897F7FF1F83C7B77E05476381E758ED
:1045000089466391D7BC9307C01297F6FF1F239E7D
:10451000F6727D559307100297F6FF1F2386F672F9
:1045200097F7FF1F2386E77CEF00705697F7FF1F72
:1045300083D70773E39F078EC9B897F7FF1F83C719
:10454000477905476387E75C89466396D7F6930703
:10455000C01297F6FF1F239AF66E7D55930710023F
:1045600097F6FF1F2382F66E97F7FF1F2382E778E7
:10457000EF00F05197F7FF1F83D7876E8DE78356C3
:1045800084010357A40197F7FF1F83C7776B1306B6
:10459000004BB387C7026373D7003687998F17F72D
:1045A000FF1F231FF76A97F7FF1F23940774EF007D
:1045B000D07B05469305F00F0545EF005042A94713
:1045C00017F7FF1F2313F7686FF0EFEE97F7FF1F42
:1045D00083C70772639407BE9307C01217F7FF1FC4
:1045E0002315F766E1477D5517F7FF1F230EF76484
:1045F000854717F7FF1F230DF76EEF005049EF00B7
:10460000904905469305F00F0545EF00503D6FF0CA
:10461000EFBA05476384E7006FE0FFFE1307C0129F
:104620007D5597F6FF1F2392E662414797F6FF1FDD
:10463000238CE66017F7FF1F230CF76AEF00304565
:104640008347A40A794797F6FF1F2390E66093E714
:10465000870017F7FF1F230AF768EF00B0430546EE
:104660009305F00F0545EF0090376FE0DFF9054740
:104670006384E7006FE0FFF41307C01297F6FF1F93
:104680002395E65C7D551307700297F6FF1F238D77
:10469000E65A17F7FF1F230DF764EF00503F97F717
:1046A000FF1F83C7876413D73700058B93F6770FF7
:1046B00019E393E6870005469305F00F054597F744
:1046C000FF1F2384D762EF0090316FE09FEF17F751
:1046D000FF1F034757606304F7006FE0DFE73D45C6
:1046E000EFE08FEC6FE03FE717F7FF1F0347675ED0
:1046F00085476304F7006FE01FF43D45EFE0CFEA24
:104700006FE07FF39307C01217F7FF1F231FF752C5
:10471000E1477D5517F7FF1F2308F752854717F725
:10472000FF1F2307F75CEF009036EF00D0360546F9
:104730009305F00F0545EF00902A6FF0EFDF930728
:10474000C01217F7FF1F2312F750930740027D5541
:1047500017F7FF1F230AF74E854717F7FF1F230997
:10476000F758EF00D0320145EF10E03EEF00503235
:104770002244B240924401469305F00F05454101A1
:104780006F00F02597F7FF1F83C78756639807A22E
:104790009307C01217F7FF1F2319F74A9307200248
:1047A00017F7FF1F2302F74A7D55854717F7FF1FAD
:1047B0002300F754EF00B02D6FF04FA097F7FF1FC5
:1047C00083C7075399C36FF00F8A79B497F7FF1F18
:1047D00083C7075263930796E5B497F7FF1F83C714
:1047E0002751639D079C9307C01217F7FF1F231ED5
:1047F000F744DD477D5517F7FF1F2307F74485472B
:1048000017F7FF1F2306F74EEF007028EF00F0297F
:1048100005469305F00F0545EF00701C6FF00F9AE9
:1048200097F7FF1F83C7C74C639A07989307C01277
:1048300017F7FF1F231BF740D5477D5517F7FF1FBD
:104840002304F740854717F7FF1F2303F74AEF00BC
:104850001024EF00702505469305F00F0545EF0085
:1048600010186FF0AF9517F7FF1F0347E73F894711
:104870006314F7006FE09FDF054597F7FF1F23895B
:104880000744EFE02F976FF07F8801468545094583
:10489000EF00F0146FF08FB4054689450945EF002D
:1048A00010146FF0EFEA054689450545EF00301317
:1048B0006FF00FAE591701468545054597F7FF1F65
:1048C0002396E73AEF00B0116FF0AFA617F7FF1F7E
:1048D0000347873989476314F7006FE01FDB0545FD
:1048E00097F7FF1FA3820740EFE0CF906FF01F8282
:1048F0000145EFE02F906FF07F819307C01217F70B
:10490000FF1F2314F734930700027D5517F7FF1F8D
:10491000230CF732854717F7FF1F230BF73CEF00F7
:10492000101797E0FF1FE78060276FF0CFA0930775
:10493000C01217F7FF1F231AF730C9477D5517F725
:10494000FF1F2303F730854717F7FF1F2302F73AAE
:10495000EF00F013EF00D01405469305F00F054566
:10496000EF00F0076FF02FAB054689450545EF00D6
:1049700010076FF02FD99307C01217F7FF1F2316E8
:10498000F72CD1477D5517F7FF1F230FF72A8547CF
:1049900017F7FF1F230EF734EF00700FEF00101012
:1049A00005469305F00F0545EF0070036FF0CFD576
:1049B0009307C01217F7FF1F2319F7289307000268
:1049C0007D5517F7FF1F2301F728854717F7FF1FAE
:1049D0002300F732EF00B00B97E0FF1FE780001CC9
:1049E0006FE01FF49307C01217F7FF1F231FF72470
:1049F000C5477D5517F7FF1F2308F724854717F78D
:104A0000FF1F2307F72EEF009008EF00500905461F
:104A10009305F00F0545EF00807C6FE0FFE2930700
:104A2000C01217F7FF1F2312F722DD477D5517F736
:104A3000FF1F230BF720854717F7FF1F230AF72ACD
:104A4000EF00F004EF00700605469305F00F0545F2
:104A5000EF00E0786FF00F940545EFD0BFF96FF0ED
:104A6000EFEA014685450945EF0060776FE0BFED4D
:104A7000014685450945EF0080766FE03FF417F762
:104A8000FF1F034727278346A40AB397E70093C76E
:104A9000F7FFF58F050797F6FF1F2388F624937716
:104AA000F70F21476382E71017F7FF1F2304F7244E
:104AB000EF00207F054685450945EF0040726FF005
:104AC000EFE417F7FF1F0347E7228346A40AB397D3
:104AD000E70093C7F7FFF58F050797F6FF1F2386BB
:104AE000F6209377F70F2147638AE70C17F7FF1F2C
:104AF0002302F720EF00E07A054685450945EF00DF
:104B0000006E9307C01217F7FF1F2310F7146FF002
:104B1000EF9C8346A40A17F7FF1F0347A71DB3970F
:104B2000E700D58F050797F6FF1F2380F61C9377C4
:104B3000F70F21476389E70817F7FF1F230CF71AC0
:104B4000EF002076054685450945EF00406993074B
:104B5000C01217F7FF1F231AF70E6FF0CF95834689
:104B6000A40A17F7FF1F0347E718B397E700D58F8D
:104B7000050797F6FF1F238AF6169377F70F21474D
:104B80006389E70217F7FF1F2306F716EF0060712E
:104B9000054685450945EF0080649307C01217F765
:104BA000FF1F2314F70AFDB897F7FF1F238407148C
:104BB00001B797F7FF1F238F0712C9BF97F7FF1F92
:104BC000238A071205BF97F7FF1F238507128DBFA2
:104BD000011122CC06CE26CA4AC84EC652C456C2BD
:104BE00093F715002E84B9E393F72500639107141A
:104BF00093F74500ADEF93F70504EDEB93F705014F
:104C0000D9EB93F70502639B071493F70540014521
:104C1000B1C797F7FF1F83C72703FD1793F7F70F58
:104C200005476370F71A134504400DA8B704040044
:104C3000BC4C1306000A894517F5FF1F034585F98B
:104C40008297BC4C37A60E0013060660914517F5F7
:104C5000FF1F034525F8829713451400F240624474
:104C6000D2444249B249224A924A05618280EF0009
:104C70003058EF00900FB7070400BC4F37F62B00F9
:104C800013060620914517F5FF1F0345A5F48297EB
:104C900013454400E1B717F5FF1F034585FD97F75E
:104CA000FF1F83C717FD638BA714620585476185C6
:104CB00017F7FF1F2308F7FAEF00B06BB7070400E0
:104CC000BC4F13060014C14517F5FF1F034585F0BF
:104CD000829797F7FF1F9387A7F683C7270317F7D6
:104CE000FF1FA308F7F8134504018DBF97F7FF1FB7
:104CF00083C737F895EB97F7FF1F938767F483D740
:104D0000070137070400384FB307F040116697F6E4
:104D1000FF1F2390F6F4130606E89305000417F529
:104D2000FF1F034525EB02971345040405BF5D2AC9
:104D3000EF00B06DEFE08FF4B7070400BC4F3717FA
:104D40000040A30107041306000A894517F5FF1F59
:104D5000034545E882971345240009B717F7FF1F5D
:104D6000130707EE834787008546FD1793F7F70F74
:104D700063F5F60013450402D5B58347A70A858B72
:104D8000F5DB97F7FF1F83D727F017F7FF1F0357B0
:104D9000E7F56308F70017F7FF1F035747F5E31B15
:104DA000F7FC97F7FF1F83C747EE0547638EE70AB7
:104DB0000947E391E7FC0145EFD0DFC31345040247
:104DC00071BD97F4FF1F938434ED97FAFF1F938A08
:104DD0003AEE370A040097F9FF1F938969EB0549FA
:104DE0008327CA03A68519464E85829799046303D3
:104DF0002505E3979AFE134504408DB57D55EF00D8
:104E0000505797F7FF1F238F07E497F7FF1F83C7BC
:104E100057E6E39A07ECB7070400BC4F130600649B
:104E20009305000417F5FF1F0345C5DA8297134564
:104E300004012DB597F7FF1F83C7E7E50947638294
:104E4000E702638F2701B7070400BC4B93050002FC
:104E500017F5FF1F034555DE829713450440FDBB40
:104E60000145EFD03FB9C5B70545EFD0BFB81345F1
:104E70000402EDB3B717004003A7470C97F7FF1FD5
:104E8000938707DC239F07061D8313471700058BB5
:104E900023900708A38107082392070823830708A4
:104EA00023A40708A3860708239707082388070871
:104EB00023990708239A0708A38B0708239C070850
:104EC000238D070823AE0708A380070A2391070A4A
:104ED0002382070A2393070A2394070A2381E70CF6
:104EE00082808280371600408327460C97F6FF1F8A
:104EF00083C626E117F7FF1F034727DF9D83858BB6
:104F0000958F93B717009356170097F5FF1FA38C43
:104F1000F5DA97F5FF1F238605DA93F7160097F564
:104F2000FF1FA38D05D8814699C797F6FF1F83C63B
:104F300036DD6394061417F6FF1F2309D6D897F7BA
:104F4000FF1F83C787D413F61700814619C697F64B
:104F5000FF1F83C6B6D3B336D00017F6FF1FA309D1
:104F6000D6D6898B814699C797F6FF1F83C616D27E
:104F7000B336D000198397F7FF1F238ED7D4058B44
:104F8000814611C797F6FF1F83C696D7DDEA97F7CC
:104F9000FF1F83C747D017F7FF1FA305D7D413F709
:104FA0002700858B5DCF17F7FF1F0347D7CE09CBAF
:104FB000054797F6FF1FA382E6D299C7854731A020
:104FC00097F7FF1FA38B07D0814717F7FF1F230910
:104FD000F7D017F5FF1F130575C997F7FF1F9387C4
:104FE00027C6094625430D4EC1488D45054803C7D0
:104FF000F7076304C70A6307B70C45CF014783C6A9
:105000001708C9E283C6E707238FE7069507358FA0
:10501000238EE706E39DA7FC97F7FF1F83C717C7FB
:1050200091C7FD1717F7FF1FA302F7C697F7FF1FDA
:1050300083C777C6C5CFFD1717F7FF1FA30DF7C4AA
:10504000828097F6FF1F83C6A6CB97F7FF1F83C703
:1050500087C417F7FF1FA307D7C813F72700858B4F
:1050600039F317F7FF1FA30A07C6B9DF97F7FF1F2A
:1050700083C777C2B1DB854789BF8326460CA982E7
:10508000858A55BDA3800709238FE7069507E38529
:10509000A7F803C7F707E310C7F683C6D7079DEA4B
:1050A00083C6E7074147E39C16F5A38F070605472C
:1050B000B9B783C6D707A1D623800708A38FC70631
:1050C000214735BF83C6D707094795FAA38F07063F
:1050D000414735B783C60708850693F6F60F238048
:1050E000D7086376D300A38FC70711BF8280130749
:1050F000000231B7411122C426C22A84AE8405457C
:10510000814506C6EF30C02B81450945EF30402B65
:1051100022852244B240A68592449306401F514600
:1051200041016F30E047411122C481452A84054581
:1051300006C6EF30E02881450945EF30602897F733
:10514000FF1F83C787BA8D83858B89CF954763EB14
:105150008700177700001307676C0A043A941C4015
:10516000BA978287B2402244410182808966938641
:1051700006710546814505452244B24041016F3024
:1051800020429306007D154681450945F5B79306F3
:10519000007D1546C5B78566938686380946D9BF12
:1051A0009306800C1306200381450945F1B797F655
:1051B000FF1F9386E6A803C716001306C0129307C5
:1051C000404CB307F7022398C60213066054330716
:1051D000C702C207C1834207D98FDCD68280411142
:1051E00022C4328406C6393709E4B2402244410160
:1051F00082802244B24041016F007013011122CC21
:105200002A8452C408412E8A0C4806CE26CA4AC8AF
:105210004EC6EF60C02D4C4848C0AA84EF60202DD8
:10522000AA852685EF604063832984002A8948C4C3
:10523000CE855285EF60703FCA85EF60D015CE8570
:10524000EF60E02A977700009387C75EAA898843BA
:1052500023243401CA85EF60503DA685EF60B0136A
:1052600008C0F24062444E85D2444249B249224AC3
:10527000056182803D89A54763F5A7001305750385
:1052800082801305050382808280014582808280AE
:1052900082808280828082808280828082808280FE
:1052A000828082808280828082808280828097F762
:1052B000FF1F23A3A792828017F7FF1F0347C79AF8
:1052C00097F7FF1F83C767A2937677008E0717F6BD
:1052D000FF1F0356C698D58F95660111935586001A
:1052E0009386164406CE2310D1002301F100A301BA
:1052F000B1002302C100854E01C77517933E170008
:1053000097F7FF1F9387C79383D5C70203D6E7029A
:1053100083D6070303D7A70203CF170017FEFF1F8B
:10532000130E8E8B931787001393850093188600B6
:1053300013988600A1812182A1822183032E0E0071
:105340005D8FB365B30033E6C800B366D80093073A
:105350003002A302D1012313B1002314C10023158D
:10536000D1002316E1002307E101A307F100630543
:105370000E0041468A85029EF24005618280C14747
:105380006318F60003C70500930710046303F700D2
:10539000828003C7150093074005E31BF7FE03C790
:1053A000F50093073002E315F7FE011122CC26CA5F
:1053B0004EC606CE4AC803C9C50003C7D50097F735
:1053C000FF1F83D7079322093A9942092E84AA84A2
:1053D0001359090197F9FF1F93898986B1E7631C67
:1053E00009028347240013074002638DE710130767
:1053F0000004638AE7141307E0056380E7041307DA
:1054000050026387E7146244F2404249B24926855C
:10541000D244056155B597F7FF1F239C278DB12214
:1054200097F7FF1F83D7E78CE30DF9FAF240624448
:10543000D2444249B2490561828003474400C147D2
:10544000E313F7FC0347540093075002E31DF7FAF8
:105450008347A4000347340097F6FF1F2387F6888D
:105460000345B4008347E40097E6FF1FA38AE67C68
:1054700022053E954205418105C9EF60706B2A897E
:1054800083972901039509013E95EF60105EAA8577
:105490004A85EF60603C930500002A89EF60E06672
:1054A000634E050A23AA2901834774000347640059
:1054B00003D6C90B83D6A9012207918FBA9717F794
:1054C000FF1F231EF7828347940003478400958FB4
:1054D0002207BA9717E7FF1F2314F778C93997F700
:1054E000FF1F23980780512003C5A90A1345F5FF24
:1054F00005893305A040092717E5FF1F0345C57639
:105500001D3111B78347640003477400A207BA979F
:1055100017E7FF1F231CF774834784000347940099
:10552000A207BA9717E7FF1F2313F7748347A40056
:105530000347B400A207BA9717E7FF1F231AF772B1
:105540002D20993BC9B503455400EFD0AFCA65BDC6
:1055500097E7FF1F239F0778092875B5B7070080D5
:10556000B3C7270123AAF90081B75D71A2C417E46C
:10557000FF1F1304E46C0343140083580402032840
:10558000C40A0347A40A50548356240B83572401AA
:1055900083550403484886C6A6C223066100231B20
:1055A000110142CCA307E10032C8231ED100231F02
:1055B000F100231AB100EF609064977700009387A1
:1055C000E7289043D4438354E40BEF500019EF5085
:1055D00030588347140C4205C98C230EF102B707DB
:1055E0000400FC47081026DC614697E5FF1F938501
:1055F000B56A829732454246B7877F7F9387F7F730
:105600003787808013070708D2463378F500B375D3
:10561000F600298E798EC295B18D33F8F600624678
:1056200033F5F500AD8EF98E4295358DF245337820
:10563000F600B376F500298E798EC296B18E0255AA
:1056400033F8F50033F6F600AD8E4296F98EB18E42
:1056500033F8F6001256B375F500A98EF98EC2958F
:10566000B58D225533F8F500B376F6002D8EC2962F
:10567000798E358E3378F600B256B375F500298EE3
:10568000798EC295B18D425533F8F50033F6F600A8
:10569000AD8E4296F98EB18E33F8F6005256B37540
:1056A000F500A98EF98EC295B58D625533F8F500D7
:1056B000B376F6002D8EC296798E358EB376F600CF
:1056C000298EE98FB697718F3D8F8346C10393571B
:1056D0008700BA97B69793560701B6976183BA9732
:1056E000B307F04093062003014681452545A30EEC
:1056F000F10297E0FF1FE78060CB70009306200364
:105700008145294597E0FF1FE78040CAB6402644FF
:105710009644616182805D71CAC0370904008327A5
:10572000890486C6A2C4A6C21306800C814517E56B
:10573000FF1F1305E55082979306200370008145F3
:105740002D4597E0FF1FE78060C6B2454244B7870A
:105750007F7F9387F7F7B78680809386060833F8B4
:10576000F50052453377F4003346B4004297758E06
:10577000398EB375F5003377F600E244298E758EC5
:105780002E97318FB375F70033F5F4007246258FED
:10579000758FAA95B98D3378F60033F7F500025569
:1057A0002D8E758E4297318F3378F500B375F700E3
:1057B0001256398D758DC295A98D33F8F500225595
:1057C0003377F6002D8E4297758E398E3378F6003A
:1057D000B375F5003257298E758EC295B18D33F8A9
:1057E000F50042553376F7002D8F4296758F318F35
:1057F0003378F7003376F500D255298F758F4296AE
:10580000398E3378F60033F7F5006255B18D429743
:10581000F58DB98D0348D1030347C10333F6F50075
:10582000E98FA98DB297ED8EBD8EB3070701B697AC
:1058300013D78600BA9713D70601BA97E182B697B5
:1058400093F7F70FF9E38347C1000315A10317E7A7
:10585000FF1FA307F73E8357610117E7FF1F2311BF
:10586000F740EF50303B97770000938727FDD443F4
:105870009043EF40906EEF60504317E7FF1F130710
:10588000273C8327C90448CB17E7FF1F23209746EF
:10589000035741010C10614697E6FF1F239AE63C2F
:1058A00017E7FF1F2324873C0357C10117E5FF1F9C
:1058B0001305953E97E6FF1F239DE6420347F1003F
:1058C00097E6FF1F2383E64282978357E101B640A4
:1058D000264417E7FF1F231EF7368357810396449C
:1058E000064917E7FF1F231CF7408347C10317E74B
:1058F000FF1FA307F740977700009387A7F417E7E8
:10590000FF1F2321F73461618280054797E7FF1F5E
:10591000A388E73289679387775397E6FF1F239A17
:10592000F63C97E7FF1FA38DE73C9307C00317E7FB
:10593000FF1F230CF73AEFF09F87977700009387BC
:1059400067EF9C4317E4FF1F1304842F5CC8914743
:1059500017E7FF1F2315F73A97E7FF1F239B072E33
:1059600097E7FF1F239E072EEFF03FC0014597E703
:10597000FF1F238B072EEF40A067935685009317D8
:105980008500D58F2A87054597E6FF1F2395E636C4
:105990002312F100EF40C06503488402935685004E
:1059A000931785002A87D58F0146954693050010E9
:1059B000254517E4FF1F2311E4342313F1002304CA
:1059C000010197E0FF1FE780609E50009546930518
:1059D0000010294597E0FF1FE780409D97D0FF1FEB
:1059E000E780C01BB6402644964406496161828028
:1059F0000111014506CE22CCEF40805F9356850011
:105A0000931785002A8717E4FF1F13046423D58F9B
:105A10000545231BE40A2314F100EF40605D0348B1
:105A2000840293568500931785002A87D58F0146F7
:105A30009546930500102545231CE40A2315F10023
:105A40002306010197E0FF1FE7804096300095464E
:105A500093050010294597E0FF1FE7802095F2404D
:105A60006244056182800111954630009305001063
:105A70002D4506CE97E0FF1FE780409383478100C6
:105A8000034791008346C100A207BA97C2077D77FA
:105A9000C183130787443E97420717E6FF1F23057C
:105AA000D61C41839306803E63F5E60085679387A5
:105AB00027CC17E7FF1F2310F7248347A1000347D4
:105AC000B1009306803EA207BA97C2077D77C183D3
:105AD000130787443E974207418363F5E6008567D5
:105AE000938727CCF24017E7FF1F2317F7200561A4
:105AF0008280411122C4371400408327C40C37052B
:105B00008000410506C6C98F2326F40C8D45EF1091
:105B100000388327C40A0565130505C0C98F2326ED
:105B2000F40A2244B2408D4541016F10C02917E7A5
:105B3000FF1F1307E71083472703B706040003A3DB
:105B4000060593B717002309F702C14517E5FF1FA4
:105B5000034545080283B707040003A30705C145B1
:105B600097E7FF1F2387A71017E5FF1F034585064B
:105B70000283B717004003A7C70CB706800013863F
:105B80000601518F23A6E70C05476300E5040DE5E8
:105B900003A7870CD98E23A4D70C03A7C70A856651
:105BA000938606C0558F23A6E70A03A7870A1367C3
:105BB000074023A4E70A828003A7C70A8566938665
:105BC00006C0558F23A6E70A828003A6870C0567C7
:105BD000930507C01366060123A4C70C83A6C70A52
:105BE00013070780CD8E23A6D70A83A6870A558F71
:105BF00023A4E70A8280828001458280828097E721
:105C0000FF1F238107066FC07FCC97E7FF1F83C765
:105C1000670591C382807971094506D622D426D2C0
:105C20004AD04ECE52CC56CA5AC85EC662C466C26C
:105C3000EFC09FBCEF50007E97740000938404C2B5
:105C40009040D44017E4FF1F130484FFEF40F0306E
:105C5000EF5080768317A40B13190501135909011E
:105C60006347F0003309F9404209135909010D4512
:105C7000EFC09FB8EF50007A9040D440131A09014A
:105C8000135A0A41EF40702DEF5000738317A40B95
:105C90009319050193D909016347F000B389F940CD
:105CA000C20993D90901EFC0DFB3AA8AEFF0EFDD93
:105CB000AA84139509014185EF60205BAA8952856A
:105CC000EF60A05A2A8A3305904042054185EF6073
:105CD000C05997E7FF1F83C7E7EBAA84638C071EB1
:105CE00083570402568597ECFF1F938CACEA3E99CC
:105CF0004209135909019317590013170901336910
:105D0000E90017E7FF1F232BF7EC97E7FF1F23A7F7
:105D100027F5EF60805517ECFF1F130CECA22A89C2
:105D200097EBFF1F938B4B9F17EBFF1F130B4BA39F
:105D300097EAFF1F938ACA9FCE856285EFF00FCC4A
:105D4000D2855E85EFF08FCBCA855A85EFF00FCBF9
:105D5000A6855685EFF08FCA83C70C00FD1793F711
:105D6000F70F17E7FF1F2307F7E2F9F717E5FF1F04
:105D70000355A5EEEF60604FAA8AD28517E5FF1F95
:105D800013058599EFF08FC7AA855685EF502076C9
:105D9000177A0000130A0AAC83250A00EF50B05F9F
:105DA000EF6040478357040293160501C18217E74D
:105DB000FF1F1307A7E2B6971843C207C1833E9798
:105DC00017E6FF1F0356A6E9118F1356574097E5B4
:105DD000FF1F23A5E5E017E5FF1F0355E5E717E7DC
:105DE000FF1F231CD7E617E7FF1F2319F7E697E7E6
:105DF000FF1F2396C7E6EF604047CE85AA8A17E5C6
:105E0000FF1F13056594EFF06FBFAA8917E5FF1F09
:105E1000035505E5EF606045D685EF50406DCE85B2
:105E2000EF50E06C83250A00EF50F056EF60803EA3
:105E300097E7FF1F2392A7E20315C40BEF60E04230
:105E4000AA89CA8517E5FF1F13058591EFF00FBBDF
:105E5000AA854E85EF50A06983250A00EF50B05304
:105E6000EF6020358357E40B131705014187BA977C
:105E7000A68517E5FF1F1305A58B97E6FF1F239F38
:105E8000E6E617E7FF1F231AF7E6EFF02FB7EF60FC
:105E90004032831724014205418517E7FF1F23196C
:105EA000A7DA3E95EF60603C4C48EF50D04EEF6073
:105EB0004030B250225497E7FF1F239AA7D892543C
:105EC0000259F249624AD24A424BB24B224C924C9E
:105ED000456182805685EF6040392A8941BDB717F8
:105EE0000040054603C3870503CE9705238CC704EE
:105EF00003C797051373F30F137EFE0F1367870015
:105F0000A38CE70403C79705B71600401377B70FB4
:105F1000A38CE704238DC70483C7A6051387A605B2
:105F2000858BFDFB8568C1460146B71500400548D5
:105F30001385F8FF2300070183470700858BEDFFDA
:105F400083D7C505FD16C20693C7F7FFE98FC18247
:105F50003E96EDF293078600938808809183B3877D
:105F6000F840A38CC50513950701238C6504418572
:105F70008280B717004003C777051A0592054D8D3B
:105F80001377E70F13653500A38BE7041375F50F3F
:105F9000A38CA7048280B717004003C77705137747
:105FA000E70FA38BE704130700F8A38DE7043D4731
:105FB000238CE70413075003A38CE7048280054772
:105FC000B7170040238DE704371700408347A70524
:105FD000858BEDFF0355C705520551818280B7F7C8
:105FE0000700DC4B93D6070191E2E546C207C18367
:105FF0003307F54093172700BA9786076D4533C5D9
:10600000A70236958280B717004083C7E7040D8941
:1060100093F7C70FC98F73270080218B97E6FF1F67
:10602000938606BC19CB7327008017E6FF1F232930
:10603000E6BA98425D9B7310078001000100371794
:106040000040130670052300C704130680FA2300DE
:10605000C704010001002307F70423000704732786
:1060600000809C42A18BD98F7390078097E7FF1F18
:1060700023A807B6010001008280B717004083C73C
:10608000E704120593F7F708C98F93F7F70F732703
:106090000080218B97E6FF1F938686B419CB732768
:1060A000008017E6FF1F232DE6B298425D9B731018
:1060B0000780010001003717004013067005230018
:1060C000C704130680FA2300C70401000100230758
:1060D000F70423000704732700809C42A18BD98F0B
:1060E0007390078097E7FF1F23AC07AE0100010004
:1060F0008280797122D406D626D24AD04ECE52CC96
:1061000056CA2A84EF10E021F3270080A18B97E57F
:10611000FF1F9385E5AC99CBF327008017E7FF1F9E
:106120002320F7AC9C41DD9B7390078001000100A8
:10613000B7170040130770052380E704130780FAA0
:106140002380E7040100010003C7F70213678700FB
:10615000A387E70203C7F7021377770FA387E70246
:1061600023800704732700809C41A18BD98F7390F3
:10617000078097E7FF1F23A507A601000100F3276B
:106180000080A18B99CBF327008017E7FF1F2329FD
:10619000F7A49C41DD9B7390078001000100B717B5
:1061A0000040130770052380E704130780FA23805B
:1061B000E7040100010003C7E7021377C70F238735
:1061C000E70203C7E702136717002387E70223806C
:1061D0000704732700809C41A18BD98F739007809F
:1061E00097E7FF1F23AE079E01000100F327008001
:1061F000A18B99CBF327008017E7FF1F2322F79E7F
:106200009C41DD9B7390078001000100B71700409F
:10621000130770052380E704130780FA2380E7043F
:106220000100010003C737051377870FA389E7042F
:1062300003C7370513671700A389E7042380070402
:10624000732700809C41A18BD98F7390078097E7BB
:10625000FF1F23A70798010001009302803EB3426D
:106260005502130780C19304A0049163A16693862D
:1062700006D0938903E8B71700400143138607044B
:106280001309700593087005130880FA916EE17F79
:10629000FD13094A3347E502139F3200169F0A0F88
:1062A000169FB3849202131E37003A9E0A0E3A9E3E
:1062B0003D67130707A6B3493503334EDE02334F5C
:1062C000DF02B3C4E40273270080218B19CB73274C
:1062D000008097E6FF1F23A5E69098415D9B731011
:1062E00007800100010023001601230006010100C0
:1062F000010003C7370513670702A389E70403D723
:1063000007053367D7012398E70403D707053367E9
:10631000F701420741832398E7042DA873270080E3
:10632000218B19CB7327008097E6FF1F23AAE68AEB
:1063300098415D9B73100780010001002300160146
:10634000230006010100010003C737051367070298
:10635000A389E70423000600F32600809841218BDF
:10636000558F7310078017E7FF1F232B0786010047
:10637000010003C73705137707024DD303C737055D
:10638000218B6DDF73270080218B19CB7327008051
:1063900097E6FF1F23A6E68498415D9B7310078054
:1063A0000100010023002601230006010100010075
:1063B00003C737051377F70DA389E70403C737052C
:1063C00013670702A389E70403D707053367D701DB
:1063D0002398E70403D707053367F7014207418392
:1063E0002398E7042DA873270080218B19CB7327EE
:1063F000008097D6FF1F23A5E67E98415D9B731012
:10640000078001000100230016012300060101009E
:10641000010003C7370513670702A389E7042300B8
:106420000600F32600809841218B558F731007805A
:1064300017D7FF1F2326077A0100010003C737057E
:10644000137707024DD303C73705218B6DFF985F84
:106450003AC0945F0247E39CE6FE824A985F3AC2E4
:10646000945F1247E39CE6FE1247E389EAFE03D7F6
:1064700007053367D7012398E70403C73705218B46
:106480006DDF03D7070583CA270533F7E30093962B
:10649000EA00B38656413697330737416351EE0819
:1064A000635FE707631F0306050393161700137363
:1064B000F30FB3C69602635EE04A850613D7F60172
:1064C00036970587F3260080A18A99CAF3260080B3
:1064D00097DAFF1F23A6DA709441DD9A7390068045
:1064E0000100010023002601230006010100010034
:1064F00083D6C7023697420741832396E7022300DB
:106500000600F32600809841218B558F7310078079
:1065100017D7FF1F2326076C010001006DB3E37539
:106520006AF8F3270080A18B639C074801000100F3
:10653000B7170040130770052380E704130780FA9C
:106540002380E7040100010003C737051378F40F27
:106550001377870FA389E70403C737053367E8007C
:10656000A389E70423800704F32600809841218B48
:10657000558F7310078017D7FF1F2323076601006D
:10658000010083C737059D8B630AF4063717004067
:106590009306070413037005930880FAF32700801D
:1065A000A18B99CBF327008017D6FF1F232AF66211
:1065B0009C41DD9B739007800100010023806600F1
:1065C000238016010100010083473705B367F800F7
:1065D000A309F70423800600732600809C41A18B49
:1065E000D18F7390078097D7FF1F23AB075E010001
:1065F0000100834737059D8BE39287FAF3270080DC
:10660000A18B6394073A01000100B71700401307FC
:1066100070052380E704130780FA2380E704010054
:10662000010003C7370591661377F70DA389E704C7
:1066300003C7370513670702A389E70403D70705D4
:10664000558F2398E70403D70705A166558F239834
:10665000E70423800704F32600809841218B558F9F
:106660007310078017D7FF1F232C07560100010066
:1066700083C7370593F70702ADEB37170040930642
:10668000070493087005130880FAF3270080A18B94
:1066900099CBF327008017D6FF1F2323F6549C4184
:1066A000DD9B739007800100010023801601238089
:1066B0000601010001008347370593E70702A3099C
:1066C000F70423800600732600809C41A18BD18FA4
:1066D0007390078097D7FF1F23A407500100010084
:1066E0008347370593F70702CDD337170040834719
:1066F0003705A18BEDDFF3270080A18B639C072872
:1067000001000100B7170040130770052380E7045C
:10671000130780FA2380E7040100010003C737054F
:1067200091661377F70DA389E70403C7370513674D
:106730000702A389E70403D70705558F2398E704C9
:1067400003D70705A166558F2398E7042380070424
:10675000F32600809841218B558F7310078017D73F
:10676000FF1F232F07460100010083C7370593F75A
:106770000702ADEB37170040930607049308700536
:10678000130880FAF3270080A18B99CBF3270080B0
:1067900017D6FF1F2326F6449C41DD9B739007808C
:1067A0000100010023801601238006010100010081
:1067B0008347370593E70702A309F7042380060000
:1067C000732600809C41A18BD18F7390078097D74F
:1067D000FF1F23A70740010001008347370593F7F8
:1067E0000702CDD33717004083473705A18BEDFF54
:1067F000B7170040985F3AC4945F2247E39CE6FED7
:106800002246B7170040985F3AC6945F3247E39C30
:10681000E6FE3247E309E6FE83D607051166371721
:106820000040D18E2398D70483473705A18BEDDF35
:10683000F3270080A18B6394071401000100371631
:106840000040930770052300F604930780FA2300A5
:10685000F604010001008347360593F7F70DA309FD
:10686000F60423000604732700809C41A18BD98F76
:106870007390078097D7FF1F23A4073601000100FC
:10688000B7470F00938707243345F5028547B39731
:1068900087008D87035706050348260585664A0746
:1068A0001316E800330606414983329713066055F4
:1068B000938606FAB3968600B3875702B387C7025A
:1068C0003D66130606A6B3C7C7023386A6029356D3
:1068D000F64193F6F60FB296A1868E06158F9306B3
:1068E000800CB306D702B3C7F6026356E00E1387D7
:1068F00017009357F701BA9785879607732700808B
:10690000218B19CB7327008097D6FF1F23AAE62C73
:1069100098415D9B7310078001000100371700400C
:10692000930670052300D704930680FA2300D7044A
:10693000010001008356C702B697C207C183231620
:10694000F70223000704732700809C41A18BD98F95
:106950007390078097D7FF1F23A407280100010029
:10696000B250225492540259F249624AD24A4561C5
:106970008280FD1613D7F60136970587A1B6F32757
:10698000008017D7FF1F232DF7249C41DD9B7390B8
:10699000078065B5F327008017D7FF1F2322F72450
:1069A0009C41DD9B73900780A1BBF327008017D724
:1069B000FF1F2327F7229C41DD9B73900780A1B125
:1069C000F327008017D7FF1F232CF7209C41DD9B66
:1069D00073900780A1BE1387F7FF9357F701BA970B
:1069E0008587960721BF1308407E4111637FA83A2F
:1069F0001308B5814208930EE5FF13580801930868
:106A0000F5FFB38E0E410143130F001993024006A8
:106A100033EEE8031308E016630E0E0033EE58025F
:106A200093FF38001308D01663060E0013B81F003A
:106A30001308D8161A9813130801FD1813530301ED
:106A4000E3981EFD05486374B80693783500130873
:106A50000019130E4006337805033375C5036389A7
:106A6000081C8D48214E894E6305082463000528C3
:106A70006382150313F515001308E5016378BE2A38
:106A80001A981313080113530301FD15C205C181A0
:106A9000E39215FF7148EDB71335150079053308FA
:106AA000A3001313080113530301639CD52BE14585
:106AB000B3F6B6021308F6FF13068070931547006D
:106AC000998D860513D71700BA95BE0721671A98C6
:106AD000F98F42081358080137170040B386C602E1
